:100000000C949B030C94B8030C94B8030C94B803A1
:100010000C94B8030C94B8030C94B8030C94B80374
:100020000C94B8030C94B8030C94F42A0C94B02AE2
:100030000C94F12B0C94B8030C94B8030C94B803F3
:100040000C94B8030C94B8030C94B8030C94B80344
:100050000C94B8030C94CD2B0C94B8030C94B803F7
:100060000C94B8030C94B8030C94B8030C94B80324
:100070000C94B8030C94B8030C94B8030C94B80314
:100080000C94B8030C94B8030C94B8030C94B80304
:100090000C94B8030C94B8030C94B8030C94B803F4
:1000A0000C94B8030C94B8030C94B803050109022E
:1000B000A10185020901A100050919012905150001
:1000C00025019505750181029501750381010501E1
:1000D000093009311581257F950275088106093897
:1000E0001581257F950175088106050C0A380215D2
:1000F00081257F950175088106C0C005010980A191
:1001000001850319012AB700150126B7009501756D
:10011000108100C0050C0901A101850419012AA064
:1001200002150126A002950175108100C005010984
:1001300006A1018506050719E029E71500250195A7
:1001400008750181020507190029EF1500250195A1
:10015000F0750181020508190129059505750191C0
:1001600002950175039101C00660FF0961A10109B3
:1001700062150026FF0095207508810209631500AD
:1001800026FF00952075089102C005010906A1010E
:10019000050719E029E71500250195087501810279
:1001A0009501750881010507190029FF150026FF33
:1001B0000095067508810005081901290595057542
:1001C000019102950175039101C00000000000003B
:1001D000000000000000000000000000000000001F
:1001E00000000000000000000000000000007E0F82
:1001F00000D4FFFFFFC700000078000000000000EF
:1002000000002A2B28000000000000000000000071
:10021000000000000029000000002C1E34202122D4
:1002200024342627252E362D3738271E1F2021223D
:10023000232425263333362E37381F0405060708B6
:10024000090A0B0C0D0E0F101112131415161718A6
:10025000191A1B1C1D2F3130232D350405060708E4
:10026000090A0B0C0D0E0F10111213141516171886
:10027000191A1B1C1D2F3130354C49276D20736F07
:1002800020736F7272792E2E2E202D5079726F4C42
:10029000007F3F1F783C1E1E140A05FD377A585A0E
:1002A000000004E6D6B446020021011600000074E6
:1002B0002FE5A3E0014700BE5D003D8889C65436A6
:1002C000C3174FE4EE6FC164BAA70CA5519267CD76
:1002D0007C1A01BC2314007D141DA47D28CCD3AD51
:1002E0006DC1DFAC4E55812A88473F94D4D2A160BE
:1002F0009A06C38CAE5C2F134E912C11E0C09180F6
:10030000703C180B96278529A58B9517E235052398
:100310005EB60A0B82EF435C434DD32845E35DE5AF
:10032000D1A44CB3A593761C8485A812060A51105B
:10033000ADA1FB3D4F1F72F67A47B67B9CBE579727
:1003400006F597159943AF7DD79C05F83A0DFAB39A
:100350008858C0A43542B0C7D5B464CDA0CC0AB784
:10036000054CEE9A65ECAE9CBFE3305F57E794C452
:10037000955AA3E1BD088500000000069F6A6C5AEB
:100380005F737C0001DA01C8020000A3D0EDFDB16B
:10039000C467FB020000000004595A00010101017A
:1003A0000101010101020202020202020202030330
:1003B0000303030303030404040404040405050500
:1003C00005050606060606070707070708080808C2
:1003D000090909090A0A0A0B0B0B0C0C0C0D0D0D6F
:1003E0000E0E0E0F0F0F1010111111121213131405
:1003F00014151516161717181819191A1A1B1B1C7D
:100400001D1D1E1E1F2020212222232424252626D6
:10041000272829292A2B2C2D2D2E2F30313232330B
:100420003435363738393A3B3C3D3E3F4041424314
:100430004445464748494A4C4D4E4F5051535455F8
:100440005658595A5B5D5E5F616264656668696BA8
:100450006C6D6F7072737577787A7B7D7E80828326
:100460008587888A8C8E8F91939596989A9C9EA06A
:10047000A2A3A5A7A9ABADAFB1B3B5B7BABCBEC077
:10048000C2C4C6C9CBCDCFD1D4D6D8DBDDDFE2E440
:10049000E7E9EBEEF0F3F5F8FAFDFF222325262835
:1004A000292A2C2D2F3032333536383A3B3D3E4009
:1004B00042434547494A4C4E5051535557595A5C4F
:1004C0005E6062646668696B6D6F71737577797B66
:1004D0007D7F81838587898A8C8E90929496989A65
:1004E0009C9E9FA1A3A5A7A8AAACAEAFB1B3B4B67A
:1004F000B8B9BBBCBEBFC1C2C3C5C6C7C9CACBCCD5
:10050000CDCED0D1D2D2D3D4D5D6D7D7D8D9D9DAA7
:10051000DADBDBDBDCDCDCDCDCDDDDDDDDDCDCDC1C
:10052000DCDCDBDBDBDADAD9D9D8D7D7D6D5D4D344
:10053000D2D2D1D0CECDCCCBCAC9C7C6C5C3C2C119
:10054000BFBEBCBBB9B8B6B4B3B1AFAEACAAA8A776
:10055000A5A3A19F9E9C9A98969492908E8C8A892E
:10056000878583817F7D7B79777573716F6D6B690B
:1005700068666462605E5C5A5957555351504E4CE0
:100580004A4947454342403E3D3B3A38363533328F
:10059000302F2D2C2A29282625232214001A000862
:1005A00000150017001C0018000C001200130004B6
:1005B000001600070009000A000B000D000E000FD6
:1005C0000011501D001B000600190000002C6200E5
:1005D000000500110010001E001F00200021002255
:1005E00000230024002500260027002A0029002BD4
:1005F00000330034005000510052004F001250E010
:1006000000E300E2001050000028620000360037CE
:100610000038003A003B003C003D003E003F0040F7
:1006200000410042004300E100440045002D002E3F
:10063000002F003000310035001350C95CCA5CC582
:100640005C10500000C35C0000AE00AA00A90000CE
:100650005C0000000000000000000000000000003E
:10066000000000000000000000000000000000008A
:10067000000000000000000000000000001050001A
:1006800000A65D000000000000000009025B0003FE
:100690000100A0FA09040000010301010009211171
:1006A000010001224000070581030800010904013F
:1006B00000020300000009211101000122220007AD
:1006C000058203200001070503032000010904023D
:1006D00000010300000009211101000122BC0007F4
:1006E0000584032000011201000200000008EDFE55
:1006F00060600100010203011C03760069006100D3
:100700006C003A006600360034006300320062007C
:100710003300630000000C0361006C00700068008F
:10072000610000000C035000790072006F004C0063
:1007300000000403090411241FBECFEFDAE0DEBF7E
:10074000CDBF11E0A0E0B1E0E2EEF9E602C0059015
:100750000D92A637B107D9F725E0A6E7B1E001C0B1
:100760001D92A430B207E1F70E94182C0C94C434F7
:100770000C940000E8EDF0E080818E7F8083109281
:10078000E2001092DA001092E100A0EEB0E08C914D
:1007900081608C9380818F77808319BCA7EDB0E056
:1007A0008C918E7F8C9380818F7E80831092D10478
:1007B00008952091E4003091E50095E6A90120918B
:1007C000EC00822F817020FF06C08091E80080FF3E
:1007D00006C080E008952091E80022FD1AC08091B3
:1007E000FF04882389F0853089F08091EB0085FD36
:1007F0000FC02091E4003091E50042175307F9F251
:100800009150E1F684E0089582E0089583E0089530
:1008100081E00895EF92FF920F931F93CF937C0195
:100820008B010E94D903C82F811117C08091E80065
:1008300085FD0BC08091E8008E778093E8000E94D0
:10084000D903882399F3C82F08C0F70181917F014C
:100850008093F1000150110949F78C2FCF911F911E
:100860000F91FF90EF900895CF93FC018091FF04CA
:10087000843001F5C091E900CF702091EC00922FF7
:10088000917020FD90E8C92B82E08093E90080916F
:10089000E80080FF0CC050E040E060E270E0CF0173
:1008A0000E940A048091E8008E778093E800CF7060
:1008B000C093E900CF9108958091F70487FF13C09A
:1008C0008091E80082FF06C08091E8008B778093DA
:1008D000E80004C08091FF048111F2CF0895809157
:1008E000FF048823D9F38091E80080FFF8CF80913E
:1008F000E8008E77ECCF982F9093E900242F762F85
:1009000050E0891731F07091EC002091ED0050918A
:10091000F00021FD07C09F5F973071F78093E900D9
:1009200081E008953091EB003E7F3093EB003091F1
:10093000ED003D7F3093ED003091EB00316030935E
:10094000EB007093EC002093ED005093F0002091A9
:10095000EE0027FDE0CF80E00895CF92DF92EF9286
:10096000FF920F931F93CF93DF93C8EDD0E0888160
:100970008F7E8883E7EDF0E080818160808384E072
:1009800082BF81E08093D10488818E7F888302EECC
:1009900010E0F80110821092DA0081EEC82ED12CFE
:1009A000F601108288818F778883888180688883A8
:1009B00088818F7D888319BC1092FF041092F60401
:1009C0001092F5041092F40490EEE92EF12CF70148
:1009D00080818B7F808388818160888342E060E0B2
:1009E00080E00E947B04F60180818E7F8083F80185
:1009F000808181608083808188608083F70180812D
:100A00008E7F8083888180618883DF91CF911F9161
:100A10000F91FF90EF90DF90CF900895FC018091AF
:100A2000FD049091FE0486179707A0F061157105EB
:100A300029F49091E8009E779093E80090E061158A
:100A4000710551F4911108C08091E80082FF34C013
:100A500080E00895BC01F2CF8091FF048823C1F1AA
:100A60008530C1F18091E80083FD30C08091E800BD
:100A700082FDEACF8091E80080FFE1CF8091F30012
:100A80002091F200382F6115710519F028303105D9
:100A900058F091E02830310509F090E02091E8000D
:100AA0002E772093E800CBCF81918093F1006150A5
:100AB00071092F5F3F4FE7CF8091FF04882341F0FA
:100AC000853041F08091E80083FFBECF81E008953A
:100AD00082E0089583E0089508958091D3040895F5
:100AE00087E797E7909301088093000888E19AE0F0
:100AF0000FB6F894A895809360000FBE90936000A5
:100B0000FFCF9C014FB7F8948091C8049091C9041D
:100B1000A091CA04B091CB044FBF821B930B0895E0
:100B20002FB7F8946091C8047091C9048091CA04E9
:100B30009091CB042FBF08952FB7F8948091C804EB
:100B40009091C904A091CA04B091CB042FBF08951D
:100B50002091C5043091C6042817390771F090938D
:100B6000C6048093C504E091C304F091C404309797
:100B700021F00084F185E02D099408952091C104AD
:100B80003091C2042817390771F09093C204809302
:100B9000C104E091C304F091C404309721F00680B1
:100BA000F781E02D09940895E091C304F091C40405
:100BB000309721F00190F081E02D099480E00895B4
:100BC000CF93DF93EC0140910204509103046091B4
:100BD0000404709105042FB7F8948091C804909193
:100BE000C904A091CA04B091CB042FBF841B950BFC
:100BF000A60BB70B843F9140A105B10518F5809174
:100C0000020490910304A0910404B0910504809320
:100C1000FE039093FF03A0930004B093010484EFBC
:100C200091E0A0E0B0E08093FA039093FB03A093DF
:100C3000FC03B093FD03D0930A04C0930904DF9131
:100C4000CF9108950E9490056093FE037093FF0377
:100C5000809300049093010482E390E0A0E0B0E070
:100C6000E2CFFC018481862351F492819923B9F06B
:100C70006923808583FF05C081E061110FC080E09A
:100C80000895892F8F7092959F70982B862F8F7063
:100C900062956F70682B81E09613F1CF089581E023
:100CA000FDCFDC016091F6038091F703962F891345
:100CB00001C00895292F30E0F901EE0FFF1FE25126
:100CC000FC4F408151814A175B07A1F487E08A9F5E
:100CD000A0018B9F500D11244A545C4F81E0FA0112
:100CE00084839613E6CF2F5F3F4F237033272093E3
:100CF000F60308952F5F3F4F922F9370D8CF109235
:100D0000530310925203E6EBF3E08581811102C098
:100D100014821682379683E0EE3EF807B1F7089505
:100D200081152CE5920741F420914C0330914D033D
:100D3000232B11F490E080E00895FA01811101C0A5
:100D4000FB010994089580915A02982F9E7F29F4FF
:100D50008170826080935A0208958831E8F381702F
:100D60008661F8CFAF92BF92DF92EF92FF920F931E
:100D70001F93CF93DF93082F162FE901E42FF0E0A4
:100D8000E556FC4F611110C0E4915E2F4E2F498350
:100D9000E8835A83DF91CF911F910F91FF90EF90DD
:100DA000DF90BF90AF900895E62EF12C4491D42EA1
:100DB000E42FF0E026E0829FC00111242FEF30E005
:100DC000B9010E940534802F90E0880F991F55E5E6
:100DD000569FD001579FB00D11248A1B9B0B982F53
:100DE000990F890F5901AE18BF08AE9ED001AF9E72
:100DF000B00DBE9EB00D11245B2F189F80011124F1
:100E0000012F11275901A01AB10AAE9E8001AF9E91
:100E1000100DBE9E100D11245901A81AB108AE9CE8
:100E2000C001AF9C900DBE9C900D1124892F992775
:100E3000281B390B2E9FC0012F9F900D3E9F900DB8
:100E40001124E92F62307105A1F050F4611571058C
:100E500009F49DCF6130710581F0EB2F512F97CFB1
:100E60006430710569F080F06630710509F48FCF48
:100E7000F4CFE42F4B2F592F8ACFE42F412F87CF68
:100E8000EB2F542F492F83CF4B2F5D2DE12F7FCF99
:100E90000E949C059C0190913E0280913F02982BFC
:100EA00021F030933B0220933A02909140028091CE
:100EB0004102982B21F03093390220933802E091BF
:100EC000C304F091C404309749F082E080933C025F
:100ED0000480F581E02D8CE392E0099408959091CF
:100EE0003E02803F59F480913F0287FF0DC010926F
:100EF0003F0291110BC01092360208C0813F81F46D
:100F000080913F0218169CF3992381F08091400252
:100F100090914102892B09F064C010923502089526
:100F2000823F49F497FFF0CF10923E0280913F023A
:100F30008111ECCFE0CF833F19F41916ACF3E4CF65
:100F400020914002893F29F41216F4F610924002D3
:100F5000DBCF8A3F19F427FFD7CFF8CF209141028A
:100F60008B3F29F427FFD0CF10924102CDCF8C3F89
:100F700019F41216CCF3C8CF843F31F480913D02AE
:100F80008E7F80933D02C0CF853F21F480913D024A
:100F90008D7FF7CF863F21F480913D028B7FF1CF8B
:100FA000873F21F480913D02877FEBCF883F21F47A
:100FB00080913D028F7EE5CF8D3F31F480913702E5
:100FC0008E7F80933702A0CF8E3F21F4809137022D
:100FD0008D7FF7CF8F3F09F097CF809137028B7FBE
:100FE000F0CF08958091370280FD16C081FD16C0B4
:100FF00082FD16C0809135028823A1F0883280F4EA
:1010000028E0829FC001112468E270E00E94193438
:10101000862F672B39F0089582E0089584E00895C3
:1010200088E0089581E008958091370280FD14C022
:1010300081FD14C082FD16C080913602882381F0A4
:101040008E3180F420E5829FC00111246EE170E0B2
:101050000E941934862F089584E1089588E2089546
:1010600088E0089580E50895803F31F40E941408D7
:10107000819580933F020895813F19F40E941408DE
:10108000F8CF823F31F40E941408819580933E028C
:101090000895833F19F40E941408F8CF893F29F47A
:1010A0000E94F2078093400208958A3F21F40E9433
:1010B000F2078195F7CF8B3F31F40E94F2078195BB
:1010C0008093410208958C3F19F40E94F207F8CFF3
:1010D000843F31F480913D02816080933D02089508
:1010E000853F21F480913D028260F7CF863F21F455
:1010F00080913D028460F1CF873F21F480913D02D1
:101100008860EBCF883F21F480913D028061E5CF7C
:101110008D3F31F4809137028160809337020895CA
:101120008E3F21F4809137028260F7CF8F3FB9F76D
:10113000809137028460F1CF80E00895F894E82F21
:10114000E295EF70F0E031A1282F2F7081E090E060
:1011500001C0880F2A95EAF7982F9095932391A3C1
:1011600092A1892B82A3789408959091CC0492FF48
:1011700006C0282F28712830F9F4877F846093FFF8
:1011800006C0282F28712831F1F4877E84612091D0
:10119000CD0420FF06C0382F38713830D9F4877F4E
:1011A000816021FF06C0282F28712831D1F4877E65
:1011B000816194FD877E0895282F24712430F9F6EB
:1011C0008B7F8860DCCF282F2471243101F78B7E40
:1011D0008861DDCF382F3171313019F78E7F88600B
:1011E000E0CF282F2171213121F78E7E8861E1CF58
:1011F000CF93DF93EC0182389105A9F1D8F58133C3
:10120000910509F496C048F58932910509F48AC020
:101210008A9709F495C0C11521E5D20708F0BCC032
:10122000C11530E5D30708F014C1C83ED10508F058
:101230009CC0C03ED10560F5C83AD10508F087C012
:10124000C53AD10508F0FDC0C130D10509F120979C
:10125000F9F0C430D105E0F440C08533910509F4BC
:101260005AC0C997C1F68091CC04837089F0C0EE52
:10127000D0E00EC0833E910599F170F4803E910557
:1012800001F1823E910539F68091CC0482FD21C0A6
:10129000CE01DF91CF910895863E910561F1873EA1
:1012A000910571F1843E910509F0B5CF8091CD048F
:1012B00081FFEECF8091CC04C7EED0E084FD0DC05D
:1012C000E7CF8091CC0480FD12C19091CD0490FFB6
:1012D000DFCFC3EED0E084FFDBCFD0E0C0E0D8CFDB
:1012E0008091CC0482FD06C19091CD0490FDBFCFCA
:1012F00084FFCECFF2CF8091CC0483FDDDCFC8CF69
:101300008091CC0483FDF9C09091CD0491FFF0CF82
:10131000C4EED0E0BDCF8091CC0485FFB9CFC9E247
:10132000D0E0B6CF8091CC0485FFB2CFC5E3D0E04A
:10133000AFCF8091CC0486FFABCFCAE2D0E0A8CF7C
:101340008091CC0486FFA4CFC1E3D0E0A1CFCF3BF6
:10135000D10518F6C85AD0E0CC0FDD1FC15EDE4FB4
:101360000990D881C02DD46493CFC11540E2D40731
:1013700058F4C11581E0D80708F08ACFC03FD105E5
:1013800008F4ABCFD06584CFC11590E4D90708F439
:10139000A4CFDF70D06A7CCFC11525E5D20700F558
:1013A000C11534E5D30708F08AC0C11543E5D40759
:1013B00008F071C0C11582E5D80708F467C0CE01F6
:1013C0008370992721E030E002C0220F331F8A95F5
:1013D000E2F7C695C69580E2C89FE001112452C08D
:1013E000C11599E5D907A8F4C11528E5D20708F079
:1013F0006BC0C11536E5D30708F06FCF8C2F0E9464
:10140000B508C82FD0E0DC2FCC27CC27DF71D06205
:101410003FCFC1154AE5D40708F45BC0CE01905612
:101420008115904208F059CF8D2F8F710E94B50819
:1014300090E0982F882788279F719C012C2BE90129
:10144000E6CFC55AD0E0C45EDE4FC881D0E0D0649C
:101450001FCFCE01E4E096958795EA95E1F783707A
:101460002C2F26952695237040E2249F900111246D
:10147000382B8C2F8370C1E0D0E002C0CC0FDD1F71
:101480008A95E2F7C22BD32BDC6802CFDC2FCC2766
:10149000C16FD06AFDCECE018370992721E030E084
:1014A00002C0220F331F8A95E2F7C695C69590E2D7
:1014B000C99FE0011124C22BD32BDA68E9CEDC2FBF
:1014C000CC27C46FD06AE4CEDC2FCC27C06FD06AA3
:1014D000DFCE8C2F8F700E94B50834E0D695C7956B
:1014E0003A95E1F7CF709C2FEC01D069D1CEC9E3DA
:1014F000D0E0CECEC2EED0E0CBCEC6EED0E0C8CEAD
:1015000080911702882331F0109217021092160270
:10151000109215020895809590910E04982390934F
:101520000E040895809590910D04982390930D04D6
:1015300008951092F4011092F3011092F2010895AF
:101540008091F10181111092F101089590911301A0
:101550009923D1F09091CC0497FF16C0E82FE6951F
:10156000E695E695EE31E0F4F0E0E858FE4F282FDE
:10157000277081E090E001C0880F2A95EAF78095F6
:101580009281892382830895EAE7F1E0919189139A
:1015900003C0DF0111971C9291E0E038F907B1F721
:1015A0000895909113019923C1F09091CC0497FF75
:1015B00014C0E82FE695E695E695EE31F8F4F0E0F4
:1015C000E858FE4F877021E030E001C0220F8A9575
:1015D000EAF78281822B82830895AAE7B1E0EFEFD8
:1015E00090E02D91821751F0EF3F19F4211101C0C5
:1015F000E92F9F5F9630A9F7EF3F09F408950E2E6B
:10160000000CFF0BE858FE4FE6CF8091F00190915F
:10161000AF01981301C008958F5F8770FACF9E3F86
:1016200049F1E82F2AE0929FE00D11249E2F977038
:10163000E695E695E69583E0E89FF0011124E556EE
:10164000FE4F50E040E080E0219130E0092E02C0E2
:10165000369527950A94E2F721703327042E01C0AE
:10166000220F0A94EAF7822B4F5F5F4F43305105F8
:1016700059F7089580E008959E3F69F1E82F2AE028
:10168000929FE00D11248E2F877041E001C0440F1E
:101690008A95EAF7E695E695E69583E0E89FF001FE
:1016A0001124E556FE4F30E020E070E05191DF015B
:1016B0001197CB01022E02C0969587950A94E2F706
:1016C000817081958527842385278C932F5F3F4FD9
:1016D0002330310559F708959C013A9521153F4172
:1016E00050F5FC01EE27F170BC0166277270AC0169
:1016F000442754709C012227387094FF0EC080E16B
:10170000EF2B09F480E0672B09F08062452B09F08C
:101710008064232B89F08068089581E0EF2B09F421
:1017200080E0672B09F08260452B09F08460232B51
:1017300019F08860089580E008958093CE04709336
:10174000D0046093CF048091FF048430F9F4809337
:10175000E9008FEF9091E800815095FD06C095ED6E
:101760009A95F1F700008111F5CF8091E80085FF8F
:101770000DC050E040E063E070E08EEC94E00E9429
:101780000A048091E8008E778093E8000895BC01F8
:1017900084E00C949D0BBC0183E00C949D0B9C0198
:1017A00084E08093E9009FEF8091E800915085FDEF
:1017B00006C085ED8A95F1F700009111F5CF809173
:1017C000E80085FF0CC050E040E066E070E0C90131
:1017D0000E940A048091E8008E778093E8000895C3
:1017E000CF93DF93EC01809113018823B1F18091B5
:1017F000CC0487FF32C060E284E08093E9008FEF81
:101800009091E800815095FD06C095ED9A95F1F70D
:1018100000008111F5CF8091E80085FF1BC0809109
:10182000130170E050E040E0811104C050E040E05E
:1018300068E070E0CE010E940A048091E8008E7793
:101840008093E80080E2FE01A4EDB4E001900D92E7
:101850008A95E1F7DF91CF91089568E081E0CDCFDF
:1018600080915A0280FD0AC0EBE4F2E011821082FE
:101870001282339652E0EA35F507C1F7849A31B304
:101880003F7E21B320614FB7F8948BE492E0FC01D6
:101890005191CF0168E021BB000000C057FF31BB70
:1018A000550F000000C000C000C031BB00C06A95E9
:1018B00091F7F2E08A359F0751F74FBF8FE594E02B
:1018C0000197F1F700C0000008950F931F93CF9385
:1018D000DF93CBE4D2E0FE011182108212823396B4
:1018E00082E0EA35F807C1F710E000E080914A0293
:1018F000082E000C990B081719078CF18091110123
:10190000082E000C990B801791074CF19E01409115
:101910005D0260915C0280915B020E94B2060F5FE3
:101920001F4F23960530110509F70E94300C809156
:10193000100190914A02980F90934A022091110150
:10194000280F20931101121614F494301CF0819585
:1019500080931001DF91CF911F910F91089519820B
:1019600018821A82DCCF90915A0290FF0CC0EBE4EF
:10197000F2E0818360834283339692E0EA35F9078F
:10198000C1F70C94300C0895CF93DF9300D00F92E1
:10199000CDB7DEB790915A0290FF0AC09E012F5F2B
:1019A0003F4F0E94B2064B8169818A810E94B30C2D
:1019B0000F900F900F90DF91CF910895CF93DF9309
:1019C000EC01EAE5F2E0438162818C810E94C40C63
:1019D0008C818F5F8C83DF91CF910895CF93DF93BC
:1019E000EC01EC81F0E0E556FB4F4491EAE5F2E0D2
:1019F000628181810E94C40C8C818F5F8C83DF9116
:101A0000CF910895CF93DF93C7E0D2E060E0CE019D
:101A10000E9488342196C11584E0D807B9F7DF9178
:101A2000CF9108950F931F93CF93DF938901843053
:101A300048F5633038F54A3028F521153C4531F436
:101A400020914C0330914D03232BE1F0C42FD0E0C3
:101A5000CC0FDD1F94E1699FC00DD11D11249CE3C3
:101A6000899FC00DD11D1124612FCE0187960E9440
:101A70008834602FCE018896DF91CF911F910F910E
:101A80000C948834DF91CF911F910F910895CF93DB
:101A9000DF93D82FCFEF8111CCE36C2F83E290E05E
:101AA0000E9488346FEFD11162EF84E290E00E94CF
:101AB00088346C2F85E290E0DF91CF910C948834CC
:101AC0007F928F929F92AF92BF92CF92DF92EF92CE
:101AD000FF920F931F93CF93DF93CDB7DEB76E972F
:101AE0000FB6F894DEBF0FBECDBFA0904C03B090F0
:101AF0004D0381E090E090934D0380934C038BE97C
:101B0000C82E85E0D82E00E0760110E015C0F40163
:101B100025913491472D612F802F0E94120D82E074
:101B2000880E911C7394EAE07E12F1CFF4E1EF0E7F
:101B3000F11C1F5F133019F04701712CE8CF0F5FC4
:101B40008CE3C80ED11C0430F9F61A8219821C826B
:101B50001B821E821D8218861F8288EC90E09A8765
:101B6000898707E111E04AE050E0B801CE01019613
:101B70000E94AC34065F1F4F0736E1E01E0799F75D
:101B80007E01FBE0EF0EF11C8AE0F70111928A95CD
:101B9000E9F74AE050E0B801C7010E94AC34065FA3
:101BA0001F4F073BF1E01F07A1F77E0185E1E80E1B
:101BB000F11C8AE0F70111928A95E9F78FEF9FEF08
:101BC0009A8F898F87E08E8F4AE050E0B801C70175
:101BD0000E94AC34065F1F4F0730F2E01F07A1F7E9
:101BE000B0924D03A0924C036E960FB6F894DEBFF0
:101BF0000FBECDBFDF91CF911F910F91FF90EF905E
:101C0000DF90CF90BF90AF909F908F907F9008957E
:101C100080E00E94470D60E086E290E00E948834F8
:101C20000E94600D0E94020D81E00C94470D9B0103
:101C3000883070F49AE0899FB0011124695E7E4F6C
:101C40004AE050E0C9010E94643490E080E00895C9
:101C50008FEF9FEF08958F929F92AF92BF92CF9296
:101C6000DF92EF92FF920F931F93CF93DF93CDB745
:101C7000DEB72A970FB6F894DEBF0FBECDBF01E1E5
:101C800014E0F12CE12C8FEFC82E89E2D82E99E2D6
:101C9000A92E9AE2B92E24E7822E29E2922EF8018B
:101CA000D182C082B382A28295828482F58AE48A3C
:101CB000BE016F5F7F4F8E2D0E94170E892B29F476
:101CC00089859A85F801938B828BFFEFEF1AFF0AC3
:101CD0000A5E1F4F88E0E816F10409F72A960FB64E
:101CE000F894DEBF0FBECDBFDF91CF911F910F9152
:101CF000FF90EF90DF90CF90BF90AF909F908F902C
:101D000008950F931F93CF93DF93843030F56330A2
:101D100020F54A3010F5C42FD0E0CC0FDD1F24E1B0
:101D2000629FC00DD11D11243CE3839FC00DD11DC6
:101D30001124CE0187960E947434082F10E0102FD2
:101D40000027CE0188960E9474349801282BC9017F
:101D5000DF91CF911F910F91089590E080E0F8CF2F
:101D6000462F2091500330915103232B91F47E3F55
:101D700039F46E3F71F480914E0390914F030895B2
:101D8000843038F4733028F46A3018F4672F0C94D8
:101D9000810E90E080E00895CF92DF92FF920F9342
:101DA0001F93CF93DF936C0100910005809118027F
:101DB000082BC7E0D0E010E0FC2EC8010C2E02C0BA
:101DC000959587950A94E2F780FD0CC02197A0F7BE
:101DD000F12C8F2DDF91CF911F910F91FF90DF900C
:101DE000CF900895B6018C2F0E94B00E0E94F80883
:101DF000019761F3EECFCF93DF93EC010E94CC0EFD
:101E0000BE010E94B00EDF91CF910C94F808FC0146
:101E100086819781009791F00E94F80892959F70B3
:101E20009630B9F080F4925F9F70923080F4803FDA
:101E300019F058F4883E58F481E00895808191812A
:101E40000E94FB0EEBCF9A5FEFCF843FA9F380E0B7
:101E50000895883E88F3813FD1F7EECF1F93CF934B
:101E6000DF9300D000D00F92CDB7DEB7FC01268102
:101E700037812115310541F525E0DE0111960190EC
:101E80000D922A95E1F7FC01228189819A81222312
:101E9000B9F06623A9F00E94CC0E182F682F898113
:101EA0009A810E943C0B69817A81812F0F900F905B
:101EB0000F900F900F90DF91CF911F910C94B00E67
:101EC0000E940F0B182FEFCFC9010F900F900F90AA
:101ED0000F900F90DF91CF911F91089583E290E0D2
:101EE0000E9474348C3389F484E290E00E9474344C
:101EF000823F59F485E290E00E94743491E08C3383
:101F000009F090E0892F8170089580E0FCCFCF9395
:101F100084E090E00E947434C82F82E290E00E9436
:101F20007434982F8C2FCF9108958F929F92AF92F7
:101F3000BF92CF92DF92EF92FF920F931F93CF93B6
:101F4000DF93CDB7DEB72A970FB6F894DEBF0FBE8A
:101F5000CDBF04ED12E082ECC82E82E0D82E97EBC4
:101F6000E92EFF24F39427E0922E31ECA32E32E0E9
:101F7000B32E88248394D6010D931D936D014AE0FE
:101F800050E0B701CE0101960E946434F801389602
:101F9000DF01892D1D928A95E9F789819A81D801FF
:101FA00011969C938E938F8112968C9312978D81AC
:101FB00013968C931397888514968C931497898520
:101FC00015968C9315978B819C8117969C938E9375
:101FD000169718961C9218978A8587FF4BC01E96F5
:101FE0001C921E921D9780FF03C0D80118968C92F8
:101FF00081FF04C0F80190859260908782FF07C03E
:10200000D80118969C911897946018969C9383FF1A
:1020100004C0F80190859860908784FF07C0D801BC
:1020200018969C911897906118969C9385FF04C010
:10203000F801808580628087015F1F4FFAE0EF0E14
:10204000F11C87E0E81682E0F80609F094CF2A96A2
:102050000FB6F894DEBF0FBECDBFDF91CF911F91B9
:102060000F91FF90EF90DF90CF90BF90AF909F9037
:102070008F900895F801B686A586B5CFCF92DF92EE
:10208000EF92FF920F931F93CF93DF93CDB7DEB7FD
:102090002A970FB6F894DEBF0FBECDBFE1E7F2E09E
:1020A00080E5DF011D928A95E9F7E6EBF3E088E32E
:1020B000DF011D928A95E9F781E7C82E82E0D82ECC
:1020C0007F0107E611E0F701D182C0824AE050E0CB
:1020D000B801CE0101960E94643488E0FE01319679
:1020E000D60101900D928A95E1F789859A85D701ED
:1020F00013969C938E931297BAE0CB0ED11CE7E017
:10210000EE0EF11C065F1F4F073BF1E01F07D9F6EB
:102110002A960FB6F894DEBF0FBECDBFDF91CF91E8
:102120001F910F91FF90EF90DF90CF900895CF9285
:10213000DF92EF92FF926B017C010E94A306B70130
:10214000A60188E090E0FF90EF90DF90CF900C9494
:102150009A34EF92FF920F931F93CF93DF9300D0A7
:102160000F92CDB7DEB7082FF62E142FE22E8091F6
:102170005A0280FF28C0E82FE695F0E0E65AFE4FAD
:102180009081909348028E7F823039F59E012F5FB7
:102190003F4F802F0E94B2064B8169818A810E9445
:1021A000B30C00935B02F0925C0210935D02EE2090
:1021B00051F060915A0270915B0280915C029091A3
:1021C0005D020E9497100F900F900F90DF91CF91BA
:1021D0001F910F91FF90EF900895923019F4109194
:1021E0005D02DFCF9630E9F600915B02DACFEAE5D7
:1021F000F2E0438128E0421B08F440E021E06281E4
:1022000081810C94A910EAE5F2E0438128E0420FB5
:1022100008F44FEF21E0628181810C94A910EAE576
:10222000F2E0628128E0621B08F460E021E0438173
:1022300081810C94A910EAE5F2E0628128E0620F46
:1022400008F46FEF21E0438181810C94A910EAE545
:10225000F2E0818121E04381628188500C94A910D1
:10226000EAE5F2E0818121E043816281885F0C949C
:10227000A91080915E02882319F0815080935E023C
:1022800060915A0270915B0280915C0290915D02B4
:102290000C94971080915E02833018F48F5F8093C6
:1022A0005E0260915A0270915B0280915C02909193
:1022B0005D020C94971090915A0290FF3DC091706E
:1022C000811129C0926090935A02662351F0609167
:1022D0005A0270915B0280915C0290915D020E94B3
:1022E000971060915A02669570E041E050E08FE0EF
:1022F00091E00E944334892BA9F01092490281E0B9
:102300008093450220E040915D0260915C028091E3
:102310005B020C94A9108C3010F09661D4CF880F1A
:10232000982BD1CF81E0809349020E949C05909325
:10233000430280934202E3CF089580915A0286952A
:10234000815009F48BE061E00C945B1180915A029A
:1023500086958F5F8C3008F081E061E00C945B1112
:1023600090915A0290FF07C09695981720F0961703
:1023700010F40C94A61161E00C945B11EAE5F2E014
:1023800083E0808311828FEF828383831482608154
:102390007181828193810C94971069EE7EEF90E0B9
:1023A00080E00E94A63460E082E090E00E948834E1
:1023B00060E083E090E00E9488341092180260E0B0
:1023C00084E090E00E94883460E082E290E00E9425
:1023D000883460E085E090E00E94883460E086E028
:1023E00090E00E9488346FEF87E090E00E9488348C
:1023F00040E050E0BA0188E090E00E949A3460E04A
:102400008DE090E00E94883440E050E0BA0188E11D
:1024100090E00E949A3460E087E190E00E94883466
:1024200040E050E0BA018CE190E00E949A3470E004
:1024300060E080E290E00E94A63440E050E0BA0103
:1024400088E190E00E949A3480E00E94470D0E944B
:10245000080E40E050E0BA018FE090E00E949A340C
:1024600040E050E0BA0183E190E00C949A344F923E
:102470005F926F927F928F929F92AF92BF92CF9214
:10248000DF92EF92FF920F931F93CF93DF9300D0D1
:1024900000D000D0CDB7DEB78E010F5F1F4F86E0B2
:1024A000F80111928A95E9F79DE4E92E91E0F92E61
:1024B000680120E5422E21E0522E66246394712C9F
:1024C0004AE5842E41E0942EF70181917F018F3FF0
:1024D00009F445C0F894E82FE295EF70F0E021A1EF
:1024E0008F70A30102C0440F551F8A95E2F7CA01FD
:1024F000922F982B91A392A18095892382A37894FF
:1025000000C0E0E5F1E021E030E0B12CA12C4191E8
:102510004F3F09F46DC0A42FA295AF70B0E0909624
:102520008C9190E04F7002C0959587954A95E2F79F
:1025300080FD5EC0C901A82AB92A220F331F8E165A
:102540009F0629F7F701319780818F3F11F00E9494
:102550009E0850EA5A95F1F7F601B182A082F2E0A6
:10256000CF0ED11C4E145F0409F0AECF46E050E010
:10257000B8018CE192E00E945034FF24F39400975C
:1025800009F4F12C892BB9F186E0F801ACE1B2E055
:1025900001900D928A95E1F781E080931B020E94E1
:1025A0009C0590931A0280931902809119029091D0
:1025B0001A020E948105059710F180911C029091EA
:1025C0001D029093300280932F0280911E02909101
:1025D0001F029093320280933102809120029091E9
:1025E0002102909334028093330210921B0207C0A1
:1025F00090E080E0A0CF80911B028111D6CF8F2D7B
:1026000026960FB6F894DEBF0FBECDBFDF91CF91F7
:102610001F910F91FF90EF90DF90CF90BF90AF9000
:102620009F908F907F906F905F904F900895CF9381
:1026300080910D0490910E04892B809378018091F4
:102640001702882339F10E949C05209115023091D0
:102650001602821B930B8838934110F00E94800A67
:102660008091780190911702892B80937801809155
:102670001301882309F446C08091CC0487FF42C02F
:102680008EE1EAE7F1E090E0815008F03DC0911161
:102690000E94800AC0910604C09580917801C823E9
:1026A00080910704C82BC093780140E250E065EFA9
:1026B00071E088E791E00E945034892B59F180E263
:1026C000E8E7F1E0A5EFB1E001900D928A95E1F71E
:1026D000E091C304F091C4043097E1F080911301BC
:1026E000882349F08091CC0487FF05C0C09379010D
:1026F00086E0809378010280F381E02D88E791E005
:10270000CF91099486E0BDCF2191222309F4BCCF5B
:102710009F5FBACFCF910895EF92FF920F931F93CF
:10272000CF93DF93EC018A85811134C0EB80FC806C
:1027300087E5F81A26E12E9DC0012F9D900D1124EA
:10274000DC01AF5EBB4F1496ED91FC91159730976D
:1027500031F054966D917C91895E9B4F099586E18D
:102760008E9D80018F9D100D11240F5E1B4FF8016F
:1027700087810E94920AF80180850E948B0A0E943C
:102780001713188219861B861E821D821092100450
:1027900010920F04DF91CF911F910F91FF90EF9056
:1027A0000895CF93DF93EC01898981111BC081E0EB
:1027B000898B80910D049F81892B80930D048091DA
:1027C0000E049885892B80930E040E941713EA81CA
:1027D000FB81309739F06C897D89CE010696DF91B7
:1027E000CF910994DF91CF91089590E080E00E940D
:1027F000BE0590E080E00E94A80510920E040E94A1
:10280000171386E0ECE3F2E0DF011D928A95E9F709
:102810001092360210923502109237020C9448073B
:10282000809300050C94F51380910005982F967005
:10283000963019F488600C941014877FFCCF21E047
:1028400030E001C0220F8A95EAF7209580910005BB
:1028500082230C9410149091F40180958923809325
:10286000F401282F277091F4282F082E000C330B29
:102870009217130659F09091CD0492FD07C08595EB
:10288000859585950E941F140C94990A0895CF93FD
:10289000C091CD04C2FB992790F9981799F080FB5D
:1028A000C2F9C093CD046091CC0484E090E00E9412
:1028B00088346C2F82E290E00E94883482E0CF91CD
:1028C0000C942B14CF91089521E030E001C0220F29
:1028D0008A95EAF780910005822B0C941014909150
:1028E000CD0492FD10C098E0899F90011124622BC5
:1028F0006093F4010E9464140E949C059093F3017C
:102900008093F20108950C946414809318020C943F
:10291000F51310920D0480911301EAE7F1E088238A
:1029200059F08091CC0487FF07C08EE1DF011D9232
:102930008A95E9F70C94F51386E0F8CF1F93CF93AF
:10294000DF93CDB7DEB7AA970FB6F894DEBF0FBE00
:10295000CDBF87EF94E02091F100DC012D93CD01F4
:10296000B4E08F3F9B07B9F78091F804833009F4F6
:1029700072C0B8F4813009F449C0823009F4B3C0A0
:102980008091E80083FF96C28091F7049091F8044B
:102990009A3008F08FC2E92FF0E0EA53FB4C0C9418
:1029A0002D348A3009F48EC08B3009F471C089301F
:1029B00039F78091F704813219F78091FB049091E7
:1029C000FC04009711F00297D9F68091E800877F08
:1029D0008093E8008091E80082FF38C09091F30076
:1029E0008091F200029731F48091F100813011F072
:1029F000863021F48091F1008093D3048091E80027
:102A00008B778093E8000E945C04BACF8091F70432
:102A1000813A09F0B5CF8091E800877F8093E80084
:102A20008091FB049091FC04892B61F460E284EDB9
:102A300094E070E00E940E058091E8008B7780930F
:102A4000E8009ECF60E090E080E0F3CF8091FF044B
:102A50008111C0CF95CF8091F704813A09F090CFD2
:102A60008091FB049091FC04892B09F089CF80911F
:102A7000E800877F8093E8008091E80080FFFCCF2A
:102A8000809113018093F1008091E8008E77B9CF97
:102A90008091F704813209F073CF8091FB0490910B
:102AA000FC04892B09F06CCF8091E800877F80932C
:102AB000E8000E945C048091F904809313010E9455
:102AC00089145ECF8091F704813209F059CF80914B
:102AD000E800877F8093E8000E945C048091FA04FC
:102AE0008093D2044DCF8091F704813A09F048CF0A
:102AF0008091E800877F8093E8008091E80080FF64
:102B0000FCCF8091D204BECF803899F0823809F092
:102B1000D1C18091FB048F70873008F0CBC18093C6
:102B2000E9008091EB0085FB882780F91092E9008D
:102B300006C08091F4049091F50491118260909107
:102B4000E800977F9093E8008093F1001092F100E5
:102B50008091E8008E77AAC1882309F498C1823059
:102B600009F0A8C18091F90481119BC18091FB04F7
:102B70008F702FEF280F263008F09CC18093E9005A
:102B80002091EB0020FF8DC1933031F48091EB0058
:102B900080628093EB0085C19091EB0090619093EF
:102BA000EB0021E030E001C0220F8A95EAF7209384
:102BB000EA001092EA008091EB008860EACF811170
:102BC00079C11091F9041F778091E3008078812BFF
:102BD0008093E3008091E800877F8093E8000E9463
:102BE0005C048091E80080FFFCCF8091E300806866
:102BF0008093E30082E0111183E08093FF045AC1C7
:102C00008058823008F056C12091F9043091FA04BE
:102C10002C3DE3E03E07A1F583E08A838AE28983C5
:102C20004FB7F894DE01139620E03EE051E2E32F27
:102C3000F0E050935700E49120FF03C0E295EF705D
:102C40003F5FEF708E2F90E0EA30C0F0C7968D9313
:102C50009D932F5F243159F74FBF8091E800877F04
:102C60008093E8006AE270E0CE0101960E940E05B2
:102C70008091E8008B778093E8001CC1C096E7CF75
:102C80008091FB049091FC04432F5527433051055C
:102C900009F44AC078F54130510509F485C08BE547
:102CA00090E0EBE8F6E04230510509F003C12091D5
:102CB000E800277F2093E8002091FD043091FE0476
:102CC0008217930708F49C0140E02115310509F0B3
:102CD00070C041116EC08091E80082FDC9CF809123
:102CE000FF04882329F2853019F28091E80083FFE0
:102CF000F2CFBECF4132510509F447C042325105EF
:102D000009F0D8C08330910508F0D4C0FC01EE0F63
:102D1000FF1FE759FE4F0190F081E02D8A599E4F29
:102D2000DC018C9190E01DC0332721303105E9F0A2
:102D30002115310579F022303105F9F023303105C4
:102D400009F0B8C0E8EFF6E0E4918E2F90E0E8EFEC
:102D5000F6E007C0E2E3F7E0E4918E2F90E0E2E3D3
:102D6000F7E0009709F4A6C0A2CFE4E2F7E0E4910F
:102D70008E2F90E0E4E2F7E0F4CFE6E1F7E0E491B3
:102D80008E2F90E0E6E1F7E0ECCF8330910508F07C
:102D900091C0880F991FFC01E159FE4F0190F0810D
:102DA000E02D89E090E083CF82E190E0E6EEF6E06E
:102DB0007ECF8091FF04882309F45ACF853009F42F
:102DC00057CF8091E80083FD53CF8091E80082FDCA
:102DD00082CF8091E80080FF78CF9091F3008091BE
:102DE000F2002115310519F08830910550F041E0CD
:102DF000089709F040E08091E8008E778093E80022
:102E000064CF44914093F1003196215031090196ED
:102E1000E8CF803809F04EC08091E800877F80932A
:102E2000E8008091F6048093F10092CE811142C0B7
:102E30001091F9041230F0F58091E800877F8093BB
:102E4000E8001093F6040E945C04112311F084E062
:102E500005C08091E30087FDFACF81E08093FF04F5
:102E600042E061EC81E00E947B0442E261EC84E09C
:102E70000E947B0442E261EC82E00E947B0442E219
:102E800060EC83E00E947B048091FF0413C080917A
:102E9000F904813079F481E0933009F080E0809387
:102EA000F5041092E9008091E800877F8093E800A4
:102EB0000E945C048091E80083FF0AC08091E800D2
:102EC000877F8093E8008091EB0080628093EB0025
:102ED000AA960FB6F894DEBF0FBECDBFDF91CF919B
:102EE0001F910895882321F00E948B0A0C941713D8
:102EF0000895882339F090910E04982B90930E0436
:102F00000C9417130895882321F00E94920A0C94C0
:102F100017130895882339F090910D04982B9093FE
:102F20000D040C9417130895882309F452C08238B5
:102F300071F40E94D40581FF4CC089E30E94D10A3C
:102F40000E94171389E30E94A60A0C941713833872
:102F500059F40E94D40580FF3CC083E50E94D10A49
:102F60000E94171383E5EFCF843859F40E94D405EB
:102F700082FF2FC087E40E94D10A0E94171387E4C2
:102F8000E2CF9CEF980F913AF0F290E2980F9830D0
:102F900050F4877091E001C0990F8A95EAF7892F64
:102FA0000E94920AD2CF9BE5980F933020F490E0D4
:102FB00080E00C94BE0598E5980F973120F490E0DE
:102FC00080E00C94A805803F20F00E946F070C94CD
:102FD00048070895FF920F931F93CF93DF93F82E26
:102FE00000910B0410910C040115110509F449C05E
:102FF00010920A0410920904109206041092070419
:10300000D8011696CD91DC919E013A9521153F414C
:1030100008F4D07ED1E0C11101C0D0E0D8011996EA
:10302000ED91FC911A97309731F01B966D917C9140
:1030300080E00995D823DD2339F08CEF8C0F813A9D
:1030400038F58C2F0E94A60AFF2099F0E0910B041E
:10305000F0910C04808584FD0CC0809108048823C5
:1030600041F0808191819C0121503109253A3D45F3
:10307000A8F00E94171310920C0410920B041092E7
:103080000804C801DF91CF911F910F91FF9008951F
:103090000E9417138C2F0E949417D6CF0E94E00530
:1030A000E8CFCF93C82F882309F4AEC08238C1F48B
:1030B0000E94D40581FDA8C089E30E94D10A0E9424
:1030C00017132FEF81EE94E0215080409040E1F7FC
:1030D00000C0000089E30E94A60ACF910C94171348
:1030E0008338A1F40E94D40580FD8EC083E50E9440
:1030F000D10A0E9417132FEF81EE94E021508040F7
:103100009040E1F700C0000083E5E5CF8438A1F4EA
:103110000E94D40582FD78C087E40E94D10A0E94F3
:1031200017132FEF81EE94E0215080409040E1F79B
:1031300000C0000087E4CFCF8CEF8C0F813A88F578
:1031400080911301882301F18091CC0487FF1CC07A
:10315000EC2FE695E695E695F0E0E858FE4F828183
:1031600090E04C2F477021E030E002C0220F331F67
:103170004A95E2F782239323892B79F08C2F0E94C2
:10318000A60A0E94171309C0EAE7F1E08191C81767
:10319000A9F321E0E038F207C9F78C2F0E94D10A89
:1031A0009CCF80E28C0F883068F4C77021E030E05B
:1031B00001C0220FCA95EAF780910D04822B8093FB
:1031C0000D048BCFEBE5EC0FE33040F4F0E0E45E70
:1031D000FE4F808190E0CF910C94BE05E8E5EC0FA6
:1031E000E73150F4F0E0EE0FFF1FE15EFE4F80810B
:1031F0009181CF910C94A805C03F30F08C2F0E9494
:103200003408CF910C944807CF9108951F93CF9322
:10321000DF93182FD0E0C0E0893311F4C0E5D0E08F
:10322000812F0E945118209731F4812FDF91CF9187
:103230001F910C9494178FE99FE00197F1F700C05C
:1032400000002197F0CF0F931F93CF93DF93C62FEA
:10325000D42F022FFC0182818823A1F06093030503
:103260000E949C059093020580930105C77081E040
:1032700001C0880FCA95EAF7DF91CF911F910F9196
:103280000C948A1780910305681335C0809101055D
:10329000909102050E948105883C910560F510E23D
:1032A0001D0FCD17B9F080E28C0F883040F4C77045
:1032B00081E001C0880FCA95EAF70E948317183091
:1032C00048F481E09D2F977001C0880F9A95EAF726
:1032D0000E948A17802F0E940619183098F4D77020
:1032E00081E001C0880FDA95EAF7DF91CF911F9155
:1032F0000F910C948317C77081E001C0880FCA95A5
:10330000EAF7F3CFDF91CF911F910F910895DF92EC
:10331000EF92FF920F931F93CF93DF93E82FF0E08C
:10332000E650FE4FD490282F26952695269530E01E
:10333000F901E651FE4F0491877010E0082E02C09B
:10334000159507950A94E2F701701127F901E652E5
:10335000FE4FE490F12C082E02C0F594E7940A94F5
:10336000E2F791E0E922FF24F901E653FE4FC49110
:10337000D0E002C0D595C7958A95E2F7C170DD27E8
:103380000115110519F081EE0E945118E114F104A4
:1033900019F086EE0E9451188D2D0E940619EF2813
:1033A00019F086EE0E949417012B19F081EE0E940D
:1033B0009417CD2B51F08CE2DF91CF911F910F919B
:1033C000FF90EF90DF900C940619DF91CF911F9141
:1033D0000F91FF90EF90DF9008951F93CF93DF93AD
:1033E000EC011AE08881882309F43EC08130C9F5D8
:1033F00099818A81913029F422960E94061921969A
:10340000F1CF923021F422960E945118F8CF9330D8
:1034100021F422960E949417F2CF943011F0219655
:10342000EECF229630E020E0AE014F5F5F4F805339
:10343000990B8A30910550F02150310900F38FE942
:103440009FE00197F1F700C00000F6CF129FB00196
:10345000139F700D11249C01260F371F8981EA01EB
:10346000E3CF0E948719CBCFDF91CF911F910895B1
:10347000CF93DF93EC010E946C0B9E01205E31091B
:103480002830310510F0209739F40E948A178C2FCC
:10349000DF91CF910C9451180E947917F8CF2F9299
:1034A0003F924F925F926F927F928F929F92AF92D4
:1034B000BF92CF92DF92EF92FF920F931F93CF9321
:1034C000DF9300D000D000D00F92CDB7DEB77C01E3
:1034D000DC0113968D919C911497892B39F08C9176
:1034E00011969C9189238F3F09F007C727960FB645
:1034F000F894DEBF0FBECDBFDF91CF911F910F912A
:10350000FF90EF90DF90CF90BF90AF909F908F9003
:103510007F906F905F904F903F902F900895D601CD
:1035200016968C9116978823D1F019968D919C91BF
:103530000817190739F480910F04909110040817A7
:10354000190769F0F601978614870387C6010E9460
:10355000D113C60106960E948C1310920E04FFEF41
:10356000AF1ABF0A26E1C20ED11CDFC6C8018251C4
:103570009F45409708F0B5C68FEF93E00E947434E2
:10358000EEEEDE2ED00E07E012E08823F9F08091F7
:10359000F401877009F4AACFD70112968C91882381
:1035A00009F4A4CF8091CD0482FDA0CF82E00E94D7
:1035B0002B149CCF011534E0130749F3C8010E9476
:1035C0007434811101C0DA940F5F1F4FD110F2CF14
:1035D00019821A821B821C8299249A9468014FEFE7
:1035E000C41AD40AC8010E94743489831A828823B9
:1035F00071F2813009F073C0580152E0A50EB11C80
:10360000C6010E947434C82E8A83882309F4BFCF70
:10361000C5010E947434D82E8FEF8C0D833068F46E
:10362000580183E0A80EB11CDB82DD2021F0CE0121
:1036300001960E94ED198501D1CF8BEF8C0D83305F
:1036400030F5C8010396DB825C01DD20A1F358014F
:10365000A4E0AA0EB11C0E9474348C83882359F311
:103660008B819C818130BFEF9B0710F0982F8827BA
:10367000E6E0CE1631F0F7E0CF1631F00E94F529E2
:10368000DACF0E94C529D7CF0E942529D4CF24E0C4
:10369000C212D1CF580134E0A30EB11CC801039669
:1036A0000E947434DD2009F472CF882309F46FCFAF
:1036B0008150990B989E9001999E300D11244D2DAB
:1036C0004150550BCA01820F931F019708F4B3CFE5
:1036D000AFE9BFE01197F1F700C00000F6CFCE01CF
:1036E00001960E94ED195601A6CF81E00E94641454
:1036F0000E9414144CCF81E00E941F14F9CF82E085
:10370000FBCF823009F05BC680916B0290916C0216
:10371000892B09F454C626E12C9DC0012D9D900DE6
:1037200011248F5E9B4FDC0150961C920E94D11396
:1037300046C6823041F486010E5F1F4FF801849126
:103740000E94511862C6833041F486010E5F1F4FFC
:10375000F80184910E94941758C6843009F055C628
:1037600086010E5F1F4FF801249190E080E0F80180
:1037700031962053330B2A30310550F0019708F46D
:1037800044C6AFE9BFE01197F1F700C00000F6CFE3
:10379000B89EA001B99E500D1124C901840F951F38
:1037A00024918F01E4CF0E94871986012EC60F3520
:1037B000FDE51F0791F000362DE5120741F00E35AB
:1037C0003DE5130771F480910001882331F01092D8
:1037D000000180E00E94EA17DACE81E080930001C8
:1037E000D6CE80910001882309F4B1C4480140EE8F
:1037F000841A9108409017028091F101482A809123
:103800000D04482A58E08516910408F086C09801F6
:103810002770332781E090E001C0880F2A95EAF7EE
:10382000552009F477C0482AD7018D919C910E94B8
:103830000F0B21E030E0F90102C0EE0FFF1F8A9567
:10384000E2F7FF83EE8320900B0430900C0460902D
:103850009801709099011D822D81E22FF0E0EE0F0A
:10386000FF1FEE53FD4FC080D180C114D10409F475
:1038700023C5411005C0D60112968C91811187C0D5
:10388000F601838190E02E813F8182239323892B4F
:1038900009F47DC08085982F977009F487E038E09F
:1038A0008316910408F053C0552009F44CC0869546
:1038B0008170882309F46BC0D601AD90BC900A15C5
:1038C0001B0519F4552009F462C0C214D30409F48D
:1038D0005EC0D6011D96ED91FC91309721F080815C
:1038E000882309F454C0642DC6010E943106882340
:1038F00009F44DC00A151B0509F099C501151105FC
:1039000009F49AC551109AC5A614B70409F03FC02E
:10391000512C94C58095482287CF552009F4B5C411
:1039200010939901009398010E94900560930204FE
:1039300070930304809304049093050410920A0486
:103940001092090471CF82FB882780F9B2CF5520ED
:10395000F1F08170AECF0E9494178EC50497813A22
:10396000910548F48A2D0E94D10A552009F4EFC32D
:103970000E9417130CCE0E9417138FE39CE9019746
:10398000F1F700C000008A2D0E945118EECF9D81F2
:103990009F5F9D8361CFFC01208131810217130756
:1039A00009F0CEC35110CEC31092080480E096C433
:1039B000882309F41BC4FA018189882309F416C4F9
:1039C000C501895E9B4F0E948C1310C4033FFCE528
:1039D0001F0739F188F4083D3CE51307F1F0093D74
:1039E0004CE5140751F1073D5CE5150709F0FEC3EE
:1039F00026E241EE61EE0DC0053F8CE51807C9F0E7
:103A0000A0F027E245EE66EE063FACE51A0709F0A6
:103A1000EDC3C7010E942319BACD27E245EE65EE3A
:103A2000F8CF26E241EE60EEF4CF27E245EE64EEF9
:103A3000F0CF26E241EE62EEECCF28E241E0EFCF9C
:103A400001363DE5130709F4E7C3053A4DE51407D0
:103A500009F4E2C30631ACE51A0709F041C58091CB
:103A60000D048A7A91E009F490E090939A01811113
:103A7000EFC089E20E94D10A7BCF8091CC048062A2
:103A800007304CE5140709F494C08091CC048061A0
:103A900008301C4508F48DC08091CC04806489C036
:103AA0000D308CE5180709F499C098F48091CC0486
:103AB0008E7F0B30ACE51A0709F47BC08091CC04F3
:103AC0008C600C301C4508F474C08091CC048D7F50
:103AD00070C08091CC048F7E0F30ECE51E0709F496
:103AE00068C08091CC04877F00311C4508F461C018
:103AF0008091CC048F7D5DC00D3F2CE5120709F449
:103B000075C038F505314CE5140709F481C080F41F
:103B100003318CE5180709F477C008F46FC00E94E0
:103B200089149091CC04892F97FB87F9805841C064
:103B30000B3FACE51A0709F447C008F053C0809169
:103B4000CD0481600A3F1C4509F08FC38093CD04EA
:103B50008CC30130FDE51F0709F466C0B8F48091FD
:103B6000CD048C7F0F3F3CE5130781F38091CD049A
:103B7000836001151D4550F38091CD04982F9095D9
:103B800091708E7F892B90FB81F9E0CF01365DE546
:103B9000150709F44FC0053A8DE5180709F451C01F
:103BA00002301D4509F061C360E03FC08091CC0444
:103BB00082608093CC0459C38091CC048460F9CF97
:103BC0008091CC048860F5CF8091CD048260BECF17
:103BD0000E9489148091CC048068EBCF8091CC0442
:103BE0008B7FE7CF8091CD048E7FB0CF8091CD04C5
:103BF0008D7FACCF8091CC048F7BDBCF0E9489146A
:103C00008091CC048F77D5CF8091CC04837FD1CFA6
:103C10008091CC0482FB992790F921E0922790FBB8
:103C200082F990FB83F9C5CF61E08EE090E00E94BD
:103C300088341BC39091CC04892F8F7E94FF8061C0
:103C4000B8CF9091CC04892F8E7F90FF8160B1CF47
:103C500085E310CF85E3E8C3816080935A0261E079
:103C600086950E945B1193CC4DE951E166EA71E1C2
:103C70000E949D068CCC46EA51E16DE971E1F8CFD6
:103C800040E351E167E271E1F3CF4FE051E16BE1D5
:103C900071E1EECF4BE151E16FE071E1E9CF47EF28
:103CA00050E163E071E1E4CF49E351E16AE471E19D
:103CB000DFCF4AE451E169E371E1DACF61E081E00D
:103CC000D0CF65E082E00E94B01161CC0E948914DF
:103CD0002FEF34E34CE0215030404040E1F700C08A
:103CE00000000E94700581E01BC480E019C482813D
:103CF00000811181882369F0C8010E94CC0ED82E62
:103D0000682FC8010E943C0BB8018D2D0E94B00E97
:103D10000FC4C8010E940F0BD82EF6CF212F2F7091
:103D2000D22E107F19F0D29490EFD922CC20B9F086
:103D3000DD2069F080E2800F883010F0011109C0A9
:103D400080910D04D82AD0920D040E941713802F61
:103D500046C080910E04D82AD0920E04F6CF802F50
:103D60000E949417DD20E9F180E2800F883010F086
:103D7000011104C08D2D0E94920A03C08D2D0E9456
:103D80008B0A0E9417132DC0312F3F70D32E107F46
:103D9000103219F0D29480EFD822002381F0013044
:103DA00009F48BC0CC2009F494C0BB2009F469C08D
:103DB000F701858180FFCBCF8F70858362C08091B2
:103DC000CD0482FF39C0CC2089F1DD2039F080910B
:103DD0000D04D82AD0920D040E94171380E00E948F
:103DE0005118292D2850330B2430310510F40E942E
:103DF000D405AA20B1F08091F40180FD12C0D70152
:103E000012961C928595859585950E946414C7012C
:103E10000E944F1A8091F4018595859585950E94A1
:103E20001F1460E0C7010E942E0F60CB80E00E944B
:103E30009417DD20B1F29ECFCC2039F1B11004C02F
:103E4000809117028D291EC041E0B41210C082FD7E
:103E5000C8CF80911702D82AD81619F20E949C0563
:103E60009093160280931502D0921702BACF55E0B4
:103E7000B512E6CF0E94800A8091F101D812D0924B
:103E8000F1018D2D0E948A17ACCFB11006C00E949F
:103E9000800A8D2D0E948317A4CF81E0B81208C03C
:103EA00080910D048D2109F49CCF0E94A00AEFCFD0
:103EB00095E0B91609F495CFEACFCC2029F0A5E01A
:103EC000AB1508F48ECFDDCFB4E0BB1508F489CF75
:103ED000E0CFBB20F1F2093349F4FFEF27EE33E0E6
:103EE000F15020403040E1F700C00000802F0E94D8
:103EF000941777CF812F86958695837061F08130F6
:103F000009F06FCFC8019370C11002C090E080E04B
:103F10000E94A80566CFC8019370C11002C090E04E
:103F200080E00E94BE055DCF802FCC2029F00E944A
:103F300034080E94480755CF0E946F07FACF812F9F
:103F4000837089F5C1104DCF402F4295469547703B
:103F5000440F440F802F8F70042E01C0880F0A94E5
:103F6000EAF7202F207104FF07C02FE030E001C0E6
:103F7000220F4A95EAF72095169516951370123080
:103F800069F050F430911802113029F0822B83230C
:103F90000E94851426CF832B822BFACF282B809169
:103FA00018028227F5CF8695CC2011F0812F8170E1
:103FB000882309F416CF402F429546954770440F49
:103FC000440F802F8F70042E01C0880F0A94EAF7E7
:103FD000202F207104FF07C02FE030E001C0220F26
:103FE0004A95EAF72095169516951370123069F0E8
:103FF00050F430910005113029F0822B83230E9468
:104000001014EFCE832B822BFACF282B8091000542
:104010008227F5CF1F70CC2029F0812F0E946414D5
:10402000802F30CF802F0E948317812F0E941F1472
:10403000D8CE023F81F160F4003FB9F0013F81F03A
:10404000CC2009F46DC0B11082CE812F8F7127C0B2
:10405000033F41F1043FA1F78091CD0482FF2DC0C1
:10406000812F8F71CC2011F31AC0CC2079F044E05D
:104070004B1508F4B6CE1F7181E090E001C0880FA7
:104080001A95EAF7909100058927B9CF55E05B159D
:1040900008F4A7CEF0CF812F8F71C110C7CF0E9437
:1040A00064149FCE80E0CC2009F4A9CF1F7181E079
:1040B00001C0880F1A95EAF7A2CF8091F101CC20B8
:1040C000D9F00E94920A8091F4018770843041F403
:1040D0000E94990A812F8F710E941F14A12C81CEFA
:1040E00084E08B15D8F31F71812F0E94641463E064
:1040F000812F0E946F14F2CF90910D04982B909312
:104100000D0494E09B1540F40E94990A0E94A00AB5
:1041100064E0812F8F71EDCF81E00E942B14DECF00
:10412000BB2059F0093309F0E1CEAFEFB7EEE3E081
:10413000A150B040E040E1F7D7CE812F8F7176CF0C
:10414000552029F0DC0118968C9185FF2FCCC801F1
:1041500097558F3F910511F008F038CC20910D0153
:1041600030910E012817390724F490930E018093A3
:104170000D01F701228136E1389F5001399FB00CC3
:104180001124A5014F5E5B4F6A01DA0150962C9312
:104190005097928116968C911697992309F408CC22
:1041A0001A961C930E9319978F5F16968C930E9404
:1041B0009C05F601968785878091170287838091F9
:1041C0000E0490910D04892B80870190F081E02DE1
:1041D000309741F0D60154966D917C91C501895E6E
:1041E0009B4F09951093100400930F04F7018281EF
:1041F000882309F40FC1109203050330FDE51F0762
:1042000008F01ECC0A3F2CE5120730F4C80182509A
:104210009C45449708F01ECC0E94870F9093CD04D4
:104220008093CC0401315CE5150709F4E3CC08F078
:1042300063CC09309CE5190709F4CACC08F030CCEE
:104240000530BCE51B0709F4BBCC08F016CC0330E5
:10425000FCE51F0709F4AACC08F0AECC8091CC0491
:10426000816002301C4509F4A4CC6091CC0410910B
:10427000CD0484E090E00E948834612F82E290E0D7
:104280000E9488340E94891482C98091980190917B
:1042900099010817190781F4109299011092980159
:1042A0001092020410920304109204041092050468
:1042B00010920A041092090480910B0490910C044E
:1042C000009709F444CFA8E08A16910408F063CB64
:1042D000642D0E94310681113ACF81E00E94EA17D5
:1042E00036CF0031FFE51F0709F4FFC901312FE583
:1042F000120709F064C082E0F9C961E0C7010E94B9
:104300002E0F8C01D70112968C918823B1F08091E9
:104310000D0190910E01019681F0F1E1CF2EF4E0B4
:10432000DF2EB12CA12C9924939480910D019091B2
:104330000E018A159B050CF0F2C8F70182818111EC
:1043400015C900313FE5130709F4D5C901314FE51F
:10435000140709F4D4C96801E7E5DE1AFFEFCF16A8
:10436000D10409F060F567E672E08C2D0E94170E0B
:10437000892B29F586E18C9DF0018D9DF00D11248E
:10438000EF5EFB4F8681813009F0BBC980916702E7
:1043900090916802892B99F08091690290916A024C
:1043A000892B69F080916B0290916C0220916D02D3
:1043B00030916E02822B932B892B09F4ACC9F70143
:1043C0005280552009F40DCA063AFDE51F0709F091
:1043D000EEC95AE7C52E52E0D52E6AE0B62EF60198
:1043E0008491882309F4D3C8813009F0DCC986019F
:1043F0000F5F1F4FF8018491813009F09AC90F5F58
:104400001F4FF80184910E9406196801EFEFCE1A40
:10441000DE0AE5CF0631BCE51B0709F0BDC080917F
:104420009A01811117CC89E20E94A60AA1CAA1149F
:10443000B10409F069CA512CB12CA12C80E00E9472
:10444000EA17D0920C04C0920B0481E08093080418
:10445000F60185818093060451100EC0AB2861F0EF
:10446000F601808191819C0124503109213A310566
:1044700008F071CA0E94A60AD6011696AD90BC90AB
:10448000C5019A9581159F4110F4E0EEBE22772474
:104490007394C5010197853A9D4508F0712CD601AA
:1044A0001996ED91FC911A97309731F01B966D910A
:1044B0007C9181E009957822772079F0F601868158
:1044C00097810E946C0B80930704C501F8E08F165A
:1044D000910408F043CA0E94E0050E94171345CAE0
:1044E0000A35EDE51E0709F4FECB58F401152CE55D
:1044F000120709F4EBCB0E3D1C45A1F40E94CD112F
:1045000046C80B354DE5140709F4EFCB0C351D45B6
:1045100049F48091CD0482FB882780F991E08927B6
:104520000E944714F70186819781009709F4DFCB39
:104530000E94F8088C01F701C280B580B2943FE078
:10454000B3228091F4018770C1F0AC2CCC20B1F083
:10455000812F807F803421F080E2800F883068F0E6
:104560008091CD0482FD09C082E00E942B148091CD
:10457000F4018770AA24A3948111A12C912E929406
:104580002FE09222FBE0F91508F42BCCE92DF0E0A6
:10459000E053FB4C0C942D3480910D0482720B3C43
:1045A0009CE5190709F480CB08F053C0063CBCE534
:1045B0001B0709F465CBC0F5033CFCE51F0709F4B4
:1045C00053CB20F5023C1C4509F0ACCF80915A0238
:1045D00080FF42CB8E7F80935A0260915A02709185
:1045E0005B0280915C0290915D020E949710109294
:1045F0004902BFEFE0E7F2E0B150E040F040E1F700
:1046000000C000000E94300C0C94C71A043C4CE51A
:10461000140709F430CB053C1C4509F083CF47E271
:1046200051E160E371E124CB083C9CE5190709F4F2
:1046300031CB08F42ACB093CBCE51B0709F42FCB8E
:1046400043E051E167EF70E10A3C1C4509F410CBEF
:1046500069CF023DFCE51F07C8F4003D2CE51207B9
:1046600010F00C94C71A0D3C3CE5130709F426CB57
:1046700008F41FCB0E3C5CE5150709F422CB0F3C78
:104680001C4509F04FCF68E086E01DCB063D9CE558
:10469000190740F46BE089E0033D1C4508F413CB97
:1046A0000C94C71A0D351D4511F40C94C71A3ACF56
:1046B000CF93DF938091AC01807FA1F48091A90119
:1046C000882381F08091F001D091AF016091A70122
:1046D0007091A801A091AA01B091AB01C62FC72388
:1046E000D81303C0DF91CF91089590E0109711F097
:1046F000CF3F19F401968770F3CF9C0143E0220F5E
:10470000331F4A95E1F7F901E055FE4F4181471308
:10471000F1CF40814613EECF42814111EBCF43816F
:1047200054814A1B5B0B483C510520F78091AC013A
:104730008F7080618093AC01F901EB54FE4F808152
:104740008F708061808387EA91E00E944F1ADF9129
:10475000CF910C94050BAF92BF92CF92DF92EF9264
:10476000FF920F931F93CF93DF93CDB7DEB765977B
:104770000FB6F894DEBF0FBECDBF8C0185E0F80107
:10478000DE01519601900D928A95E1F7F801E280E1
:1047900067EAA62E61E0B62E6091AA017091AB0186
:1047A0006115710509F468C19091A7014091A801B4
:1047B000892F84238F3F09F45FC120813181C38019
:1047C000D480F090A901F601E61BF70BFF2009F455
:1047D0001DC18091AC01582F507FE83CF10508F0D5
:1047E000D0C0511181C0FE2C43132BC0921329C09D
:1047F0006091AD017091AE01F80146815781641757
:104800007507F9F4E1101DC08F7080618093AC01D1
:10481000C5010E944F1A8091AC01F80185838F2D4C
:1048200065960FB6F894DEBF0FBECDBFDF91CF9176
:104830001F910F91FF90EF90DF90CF90BF90AF90BE
:104840000895CD2829F0822F83238F3F09F02FC1AF
:1048500080E0F82FF170DF2E80FF3CC08091F001E6
:104860004091AF01841315C0298B3A8B89899A89AD
:104870000E94FB0E292F22952F702230F8F0243051
:1048800020F59F70F9F0F8019581907FD9F4D12C33
:104890001FC090E0FC0153E0EE0FFF1F5A95E1F7B7
:1048A000E055FE4F5181351306C05081251303C0DA
:1048B0005281E5120FC001968770D4CF9F7011F01E
:1048C000882329F3805E883010F3C8010E944F1AB4
:1048D000FD2CA5CFEE2009F4A2CF8091AC01816020
:1048E0008093AC01F12C9BCF43131BC0921319C0D2
:1048F0004091AD015091AE01F801268137814217F8
:10490000530779F4E1100DC08583C8010E944F1A46
:1049100088E0F801A7EAB1E001900D928A95E1F7ED
:104920007ECFC8010E94070F882339F1EE2029F1BC
:104930008091AC018032A0F02091A7013091A801B4
:104940003A8729871B86DD86CC868E878091AD01CC
:104950009091AE01988B8F87CE0109960E944F1AD5
:1049600088E0F801A7EAB1E001900D928A95E1F79D
:104970000E945823FF24F39452CFC8010E944F1A7B
:10498000F9CF51110AC087EA91E00E944F1A88E0DE
:10499000F50111928A95E9F7A5CF431318C0921338
:1049A00016C04091AD015091AE01F80126813781CA
:1049B0004217530761F4E1100AC08583C8010E94C1
:1049C0004F1A88E0F50111928A95E9F728CFC801BE
:1049D0000E94070F882389F2EE2079F28091AC01C2
:1049E000803208F4BDCF2091A7013091A8013A830D
:1049F00029831B82DD82CC828E838091AD019091D0
:104A0000AE0198878F83CE010196A8CFE83CF105CF
:104A1000C0F6FE2CEE2009F4B0CF43131FC0921352
:104A20001DC02091AD013091AE01F80186819781C2
:104A30002817390799F49091AC0190FD69CF907FC8
:104A400009F466CF8091AC018583903F09F45DCF76
:104A5000982F907F905F8F70892B56CFC8010E944E
:104A6000070F81117DCF8091AC0181608093AC01F3
:104A7000C8010E944F1AD3CEEE2009F47ECFC801A0
:104A80000E94070FF82E882309F477CF88E0F801F9
:104A9000A7EAB1E001900D928A95E1F78091A70114
:104AA0009091A8010E94FB0E0E945823B8CE81E08D
:104AB0008E25CFCECF93DF93CDB7DEB760970FB6FD
:104AC000F894DEBF0FBECDBF29873A874B875C873E
:104AD0006D877E878F87988BCE0109960E94AB23C6
:104AE000811112C088E0FE013996DE011196019015
:104AF0000D928A95E1F78C859D85892B29F0898512
:104B00009A8589238F3FA9F58091F0019091AF019B
:104B100089131CC060960FB6F894DEBF0FBECDBFE0
:104B2000DF91CF91089593E0AA0FBB1F9A95E1F70B
:104B3000A055BE4F98E0FE01319601900D929A95D6
:104B4000E1F78093AF010E94050BDECFB8E08B9FA9
:104B5000C001112480559E4F0E94AB238823D1F2BF
:104B60008091F00190E00196877099278093F00181
:104B7000CBCFA091AF01B0E0CD010196877099270E
:104B80002091F0012817190671F60E9489141092DD
:104B9000AF011092F00188E0E7EAF1E0DF011D9239
:104BA0008A95E9F7B1CF0F931F93CF93DF9380914D
:104BB0005503E0915403CCE081111AC0DF91CF91ED
:104BC0001F910F910895D1E0DE0FD09354030E2F63
:104BD00010E0EC9FF0011124EA5AFC4F838194818C
:104BE000892B29F08081918189238F3F51F4ED2F0A
:104BF00080915503E81738F310925503109254032F
:104C0000DDCFC09FD001C19FB00D1124AA5ABC4F67
:104C100016968D919C911797892B29F418968D9152
:104C20009C91019651F420813181428153816481AC
:104C30007581868197810E945A25C09FF001C19F8E
:104C4000F00D1124EA5AFC4F1482138210920E04C4
:104C5000CECF1092F9031092F803109212018091B6
:104C6000F7038093F6030E947F060C94D3253F92AE
:104C70004F925F926F927F928F929F92AF92BF926C
:104C8000CF92DF92EF92FF920F931F93CF93DF9318
:104C9000C091F60397E0892E01E010E02CE0322E5F
:104CA0003EEF932E442443948091F7038C1315C058
:104CB0000E94D325DF91CF911F910F91FF90EF902C
:104CC000DF90CF90BF90AF909F908F907F906F902C
:104CD0005F904F903F900C947F06D0E0FE01EE0F66
:104CE000FF1FE251FC4F80819181889ED001899EF7
:104CF000B00D1124AA54BC4F14962C911497211175
:104D000057C050905503E6E5F3E030E020E0712C09
:104D10005D01251508F04AC0E284F384D501CD90E9
:104D2000DC906FEF7FEF612C462D50E0DA01AA0F87
:104D3000BB1FAC0DBD1D0D90BC91A02D109731F087
:104D4000EA16FB0609F4BA016394EECF6F3F7607CB
:104D5000A1F1D80102C0AA0FBB1F6A95E2F77A2A17
:104D6000B80102C0660F771F6A94E2F7AB014150A9
:104D7000510974161506F9F4329EF001339EF00DB8
:104D80001124EA5AFC4F889ED001899EB00D11244F
:104D9000AA54BC4F12962D913C91139737832683CA
:104DA000908291829187808715964C920E9451063D
:104DB0002196C37079CF148213822F5F3F4F3C96A8
:104DC000A8CF2F923F924F925F926F927F928F92D5
:104DD0009F92AF92BF92CF92DF92EF92FF920F938A
:104DE0001F93CF93DF93CDB7DEB769970FB6F894D3
:104DF000DEBF0FBECDBF498B5A8B6B8B7C8B8D8BEF
:104E0000611110920E041D861E861F86188A85E089
:104E1000FE017196DE01199601900D928A95E1F7D7
:104E20008091CD0482FD1CC00E949C052091F2015E
:104E30003091F301821B930B8838934120F08091CD
:104E4000F40182FFFEC10E949C0520911502309161
:104E50001602821B930B8838934110F00E94800A3F
:104E60008C859D85892B31F089859A8589238F3F93
:104E700009F0D3C129853A854B855C856D857E8592
:104E80008F8598890E945A25C2C048EFC4164CE508
:104E9000D40629F4882379F00E942926EBCF69EF04
:104EA000C6166CE5D60639F4882329F080911201E4
:104EB0008111F2CFC2C106EB13E0E12CB12CA12C81
:104EC00088248394912C2EEF522E44244394F8018D
:104ED0004081518166246A94762C20E0822F90E0F4
:104EE000FC01EE0FFF1FE40FF51F6081718161155A
:104EF000710531F0C616D70609F43C012F5FEECFDD
:104F0000F12CFFEF6F167F0609F443C0F8014481CE
:104F1000F09012018F2D411180E0F82FF170FF2EDB
:104F2000F801258086819B85992309F406C1FF201D
:104F300009F403C1211013C0A40101C0440F6A94F5
:104F4000EAF7842B86838091520390915303C29792
:104F500030F462E370E07093530360935203C40132
:104F600002C0880F991F2A95E2F70197F801268160
:104F70002817190671F48091F8039091F9030097AE
:104F800009F45EC00E948105C39708F459C0F80176
:104F90004482EF28FFEFAF1ABF0A095F1F4F28E0D6
:104FA000A216B10409F093CF8B85882309F420C1A0
:104FB000EE2009F41DC10E949C059093F903809393
:104FC000F80380915503883010F591E0980F909385
:104FD000550398E0FE013996DE01119601900D927D
:104FE0009A95E1F73CE0839FC00111248A5A9C4FB7
:104FF00028E0FE013196DC0101900D922A95E1F73F
:105000002FEF3FEFFC0131872087D386C286699658
:105010000FB6F894DEBF0FBECDBFDF91CF911F91C9
:105020000F91FF90EF90DF90CF90BF90AF909F9047
:105030008F907F906F905F904F903F902F9008954A
:105040008091F6035091F703982FF0E0E0E085138C
:1050500014C09093F6030E171F0709F49ACF90E03F
:10506000FC01EE0FFF1FE251FC4FB182A0820196BE
:10507000837099278093F7038CCF282E312CF10170
:10508000EE0FFF1FE251FC4F20813181F7E0F29FCC
:10509000D001F39FB00D1124AA54BC4F2D913C9127
:1050A0001197398F288F40E020E030E0E32FF0E0C7
:1050B000EE0FFF1F688D798DE60FF71F60807180FE
:1050C00061147104E1F0F8010190F081E02DFF8B93
:1050D000EE8B20E005C06616770609F44F2D2F5F92
:1050E000E22FF0E0EE0FFF1F6E897F89E60FF71FBA
:1050F000608171816115710571F73F5FD7CF4423DE
:10510000C9F0F801231708F0FD014482E017F10708
:1051100021F49093F603F42E3CCF981305C0EA17C0
:10512000FB0711F49F5F937091012F5F3F4F822F18
:1051300083708DCFF0E0E0E0F7CF90E021101FC04A
:10514000B40102C0660F771F2A95E2F79B01215038
:1051500031098217930731F4442309F447C0C5018C
:105160000E945106C40101C0880F6A94EAF7982F83
:105170009095F801868189238683F22C0ACF9C01C1
:10518000062C02C0359527950A94E2F7A9014170D3
:105190005527BC016150710986239723892B11F58E
:1051A000452B01F1F80182819381892BC1F01B828B
:1051B0001C821D821E8259825A820E949C05816037
:1051C000582F9D838C83F801828193818F839887E8
:1051D00029813A814B816D817E810E945A25F80197
:1051E0001582C0CFF22FF1702F2EBCCF2F2CBACF4B
:1051F0009091F6038091F703981731F00E943726BB
:10520000EE2009F437CE03CF0E94D3251092F90384
:105210001092F8030E947F06F3CF61E0CE01099659
:105220000E942E0F6C018B85F7EFCF16FCE5DF0691
:1052300009F02BCE882309F43ECE81E08093120141
:1052400019CE82E00E942B14FECD0F931F93CF93B3
:10525000DF9300D000D00F92CDB7DEB78C019093D2
:105260004F0380934E03011580E2180720F5802F2D
:105270000E949417C8010E946C0B9801205E3109AE
:105280002830310510F0012B59F40F900F900F903A
:105290000F900F90DF91CF911F910F910C94831776
:1052A0000F900F900F900F900F90DF91CF911F9163
:1052B0000F910C9472178EEF89838A831B820E9450
:1052C0009C058160782F9D838C8349815A816B81F5
:1052D0008D810F900F900F900F900F90DF91CF91D5
:1052E0001F910F910C94E1260F931F93CF93DF939F
:1052F0008C01EB0167E672E08C2F0E94170E892B60
:1053000071F4DD27C15ADD4F8881F80110821882BF
:10531000833009F148F4813059F0823081F0DF9117
:10532000CF911F910F9108958430D1F08530B9F756
:105330008091670290916802009789F306C080917E
:10534000690290916A02009799F3DF91CF911F91C2
:105350000F910C94252980916B0290916C02F3CFF0
:1053600080916D0290916E02009779F7209167020B
:10537000309168028091690290916A02211531058D
:10538000D9F2009711F7C901E0CFCF93DF9300D096
:1053900000D00F92CDB7DEB790934F0380934E03AA
:1053A000811520E2920748F40F900F900F900F9014
:1053B0000F90DF91CF910C94381A8EEF89838A83F6
:1053C00081E08B830E949C058160782F9D838C8374
:1053D00049815A816B818D810F900F900F900F90B2
:1053E0000F90DF91CF910C94E126CF93DF93EC01E6
:1053F0000E94C529CE01DF91CF910C9425290F93EE
:105400001F93CF93DF938C01862F67E672E00E9493
:10541000170E892BC9F4C0916702D09168022097BA
:1054200099F0F8018081833069F4CE010E94F5295A
:10543000CE010E94F529CE01DF91CF911F910F91EE
:105440000C94F5298430B8F7DF91CF911F910F911B
:1054500008950F931F93CF93DF938C01EB0167E6C1
:1054600072E08C2F0E94170E892B09F064C0FE0198
:10547000FF27D8018C91E15AFD4F8130D9F419965C
:105480009C911997992311F080830CC01A969C91D6
:105490009923D1F382E080838091690290916A021E
:1054A0000097D9F48091670290916802009709F4FF
:1054B00042C013C08230E9F519968C911997811179
:1054C0002DC01A968C9181110EC083E0808380914B
:1054D0006B0290916C02009719F1DF91CF911F91AF
:1054E0000F910C94C52984E0808380916D02909186
:1054F0006E02009791F78091670290916802009781
:10550000F9F00E94F5298091690290916A02009752
:1055100021F78091670290916802DFCF85E0808358
:105520008091670290916802009729F00E94F52906
:10553000F0CF86E08083DF91CF911F910F91089586
:105540008091690290916A02B1CF90E080E00E9460
:105550008234893E9E4F11F40C946E0F80E00895C2
:105560001F920F920FB60F9211242F933F934F93D8
:105570005F936F937F938F939F93AF93BF93CF93DB
:10558000DF93EF93FF93D091E900DF708091EC00FF
:10559000C82FC17080FDC0E81092E9008091F00032
:1055A000877F8093F00078940E949E141092E90007
:1055B0008091F00088608093F000CD2BCF70C09375
:1055C000E900FF91EF91DF91CF91BF91AF919F9152
:1055D0008F917F916F915F914F913F912F910F909C
:1055E0000FBE0F901F9018951F920F920FB60F923B
:1055F00011242F933F934F935F936F937F938F93D8
:105600009F93AF93BF93EF93FF938091E10082FF4D
:1056100009C08091E20082FF05C08091E1008B7F8C
:105620008093E1008091DA0080FF24C08091D8004F
:1056300080FF20C08091DA008E7F8093DA00809115
:10564000D90080FF9DC080E189BD82E189BD09B498
:1056500000FEFDCF81E08093FF048091D104811191
:1056600009C00E94BA030E94AD048091E2008460E8
:105670008093E2008091E10080FF17C08091E200FA
:1056800080FF13C08091E2008E7F8093E2008091C2
:10569000E20080618093E2008091D8008062809374
:1056A000D80019BC85E08093FF048091E10084FF5D
:1056B0002BC08091E20084FF27C080E189BD82E198
:1056C00089BD89B5982F917080FFFBCF8091D8005C
:1056D0008F7D8093D8008091E1008F7E8093E100E0
:1056E0008091E2008F7E8093E2008091E2008160F1
:1056F0008093E2008091F604882309F447C084E097
:105700008093FF048091FF048091E10083FF27C014
:105710008091E20083FF23C08091E100877F809326
:10572000E10082E08093FF041092F6048091E10092
:105730008E7F8093E1008091E2008E7F8093E20073
:105740008091E20080618093E20042E060E080E0CE
:105750000E947B048091F00088608093F000FF91AC
:10576000EF91BF91AF919F918F917F916F915F91D9
:105770004F913F912F910F900FBE0F901F90189552
:1057800019BC1092FF041092D10474CF8091E300F1
:1057900087FD93E09093FF04B5CF78941F921FB6D6
:1057A0001F9211248F939F93AF93BF938091C8044E
:1057B0009091C904A091CA04B091CB040196A11D97
:1057C000B11D8093C8049093C904A093CA04B093F8
:1057D000CB04BF91AF919F918F911F901FBE1F90DF
:1057E00018951F921FB61F9211248F939F93AF930A
:1057F000BF938091C704811113C08091C804909118
:10580000C904A091CA04B091CB044196A11DB11D59
:105810008093C8049093C904A093CA04B093CB04A6
:10582000BF91AF919F918F911F901FBE1F901895B0
:10583000CDB7DEB7E6970FB6F894DEBF0FBECDBF8B
:1058400084B7877F84BF0FB6F894A89580916000D5
:10585000886180936000109260000FBE80E890E045
:105860000FB6F89480936100909361000FBE85B7E6
:10587000806885BF85B7806885BF8CE998E0909384
:105880007701809376010E942B0E0E943E100E94A9
:10589000950F0E94BA030E94AD048091E2008460DB
:1058A0008093E20078948091FF048823A1F0109106
:1058B000E9001F709091EC00892F817090FD80E8C5
:1058C000182B1092E9008091E80083FD0E949E143D
:1058D0001F701093E90082E084BD93E095BD9AEFBC
:1058E00097BD80936E000E946E0F811102C00E94CE
:1058F000080E84E90E949E0884E30E949E0885E3C6
:105900000E949E0800E511E07AE5E72E71E0F72E8F
:10591000D8018D918D018F3F11F00E949E08E016F5
:10592000F106B1F786E0EFE2F2E0DF01282F1D92E9
:105930002A95E9F7ECE1F2E0DF011D928A95E9F79B
:105940000E94A52A811102C00E94CD1182E090E040
:105950000E947434809323020E94870F9093CD0499
:105960008093CC040E943712EFE3FCE93197F1F702
:1059700000C000000E94371280912F0280FF08C0F3
:105980006FEF7FEF90E080E00E94A6340E947005E8
:1059900083E090E00E9474340E948514809122027A
:1059A000811133C00E94A52A811104C00E94CD112B
:1059B0000E94BE1188E090E00E947C3460935A02FD
:1059C00070935B0280935C0290935D026E7F71F432
:1059D0000E94BE1188E090E00E947C3460935A02DD
:1059E00070935B0280935C0290935D020E94A30619
:1059F0001092490280915A0280FF04C060E08695AF
:105A00000E945B1181E08093220281E091E09093FB
:105A1000C4048093C3048E010F5F1F4F9E012D5F4E
:105A20003F4F3EAB2DAB8091FF0450E1F52E62E17C
:105A3000E62E853009F433C20E94371281110E948C
:105A40009005AFE2B2E0E4E2F2E0F12CE12C7E2D31
:105A50008D919D91219131912817390709F42FC219
:105A60002827392760E0CC24C394D12CA6014223F7
:105A70005323452B09F41DC26BA77CA7960128234D
:105A8000392391E0232B09F490E09DA70E949C0507
:105A90008160782F9FA78EA74BA55CA56DA58FA5CC
:105AA0000E94E126F701EE0FFF1FEC5DFD4F8081A4
:105AB0009181C826D926D182C08280910904909113
:105AC0000A04892B09F43EC04091FE035091FF0364
:105AD00060910004709101042FB7F8948091C8047C
