:020000040000FA
:100000000C942007FFFFFFFFFFFFFFFFFFFFFFFF35
:10001000FFFFFFFFFFFFFFFFFFFFFFFFFFFFFFFFF0
:10002000FFFFFFFFFFFFFFFFFFFFFFFFFFFFFFFFE0
:10003000FFFFFFFFFFFFFFFFFFFFFFFFFFFFFFFFD0
:100040000C94B422FFFFFFFFFFFFFFFFFFFFFFFF46
:10005000FFFFFFFF0C94201CFFFFFFFFFFFFFFFFD0
:100060000C94BB19FFFFFFFFFFFFFFFFFFFFFFFF28
:10007000FFFFFFFFFFFFFFFFFFFFFFFFFFFFFFFF90
:10008000FFFFFFFFFFFFFFFFFFFFFFFFFFFFFFFF80
:10009000FFFFFFFFFFFFFFFFFFFFFFFFFFFFFFFF70
:1000A000FFFFFFFFFFFFFFFFFFFFFFFFFFFFFFFF60
:1000B000FFFFFFFFFFFFFFFFFFFFFFFFFFFFFFFF50
:1000C000FFFFFFFFFFFFFFFF3A0C3D0C430C460C08
:1000D000490C4C0C4F0C520C550C580C5B0C5E0C24
:1000E000610C400C640CA32746572020004F464665
:1000F00020004F4E202000302020200031202020E2
:100100000032202020003320202000415558494E45
:1001100000555342494E003000310032003300197F
:10012000000412012000040E014E000300500302DF
:100130000030040400380402002045512020202013
:1001400020202020200020555342204348472020D3
:1001500020200020534C4545502020202020200006
:10016000204B45594C4F434B2020202000204D412F
:100170005820564F4C202020200020564F4C204D18
:10018000454D20202020002053595354454D202018
:1001900020202020202020000002000400060C0463
:1001A0002C044E046E04204F46462000204F4E2063
:1001B000200014044E042046572056455253494F00
:1001C0004E2020202020002052554E2054494D45DD
:1001D00020202020202020002044454641554C541A
:1001E0002053455420202020000106015D02010219
:1001F0000167020202015E020202015F02020201C5
:1002000062020102016102000001610200F80808B7
:10021000080808080808080808F8E000001F10107F
:100220001010101010101010101F070000F808E830
:10023000080808080808080808F8E000001F101758
:100240001010101010101010101F070000F808E810
:1002500008E808080808080808F8E000001F101758
:100260001017101010101010101F070000F808E8E9
:1002700008E808E80808080808F8E000001F101758
:100280001017101710101010101F070000F808E8C2
:1002900008E808E808E8080808F8E000001F101758
:1002A0001017101710171010101F070000F808E89B
:1002B00008E808E808E808E808F8E000001F101758
:1002C0001017101710171017101F07000000F00864
:1002D00004040404F40404040408F00000000F10F3
:1002E000202020202121212120100F0000000000CB
:1002F0000080C0E0F0F88C8080000000000000006A
:100300000101311F0F0703010000000020303132CE
:1003100033343536373839414246494E4F535558B4
:100320000000000000000000000000000003F109D0
:1003300009F103C087888887C0030111F90103C050
:1003400080808F80C0033109897103C08C8B8888BD
:10035000C0033189897103C086888887C00301C1C1
:1003600031F903C08382828FC203F949498903C0EE
:1003700086888887C003F189893103C08788888788
:10038000C0030909C93903C0808E8180C003718907
:10039000897103C087888887C003718989F103C088
:1003A00086888887C00000E018E000000F02020283
:1003B0000F00F888888870000F0808080700F88880
:1003C000888808000F00000000000008F8080000FE
:1003D00000080F080000F830C000F8000F00010608
:1003E0000F00F0080808F000070808080700304868
:1003F00088083000060808090600F8000000F80028
:100400000708080807001860806018000C03000344
:100410000C20303132333435363738396265696F04
:10042000474C4F5600000000000000000000000094
:1004300000000000000000000000000000000000BC
:1004400000000000000000000000000000000000AC
:10045000000000000000000000000000000000009C
:100460000000000000000080C0E07030383870F0FC
:10047000E0C000000000FCFFFF03000000000000DF
:1004800007FFFFF000001FFFFFE0000000000080FA
:10049000F0FF7F070000000001070F0E0E0E0E0791
:1004A0000301000000000000808080C0E0F8F80038
:1004B000000000000000000001010101FFFFFF003B
:1004C000000000000000000000000000FFFFFF002F
:1004D0000000000000000000000000000F0F0F00EF
:1004E0000000000000000000C0E0703038383070BC
:1004F000F0E0800000000007070700000000C0F0E7
:10050000FF7F0F0000000000C0E0F83C1E0F070155
:100510000000000000000C0F0F0F0E0E0E0E0E0E4E
:100520000E0E0E0000000080E0F07030383830F021
:10053000E0C000000000000303030000C0C0E0F0C2
:100540003F1F0700000030F0F080000000000103B2
:10055000FFFEFC000000000103070E0E0E0E0E0F42
:1005600007030000000000000000000080E0F8F831
:10057000F80000000000000080E0F83E0F03FFFFDD
:10058000FF0000000000787E7F7370707070FFFFC6
:10059000FF707070000000000000000000000F0FEE
:1005A0000F000000000000F8F8F838383838383804
:1005B00038383800000000FFFFFF6060303030F056
:1005C000E0C00000000020E1E181000000000080A8
:1005D000FFFF7F000000000103070E0E0E0E0E0746
:1005E000030100000000000080C0E0703038387067
:1005F000F0E08000000000FCFFFFC360303070704E
:10060000E1C181000000003FFFFF8000000000000A
:10061000FFFFFF00000000000103070E0E0E0E0F8B
:1006200007030000000000383838383838383838C8
:10063000F8F8780000000000000000000000E0FE74
:100640007F0700000000000000000080F0FF7F072F
:1006500000000000000000000000080F0F03000071
:100660000000000000000080E0F07030383830708A
:10067000E0C000000000000F3F7FE0C0C0C0C0E04D
:100680007F3F0F00000030FCFF87010100000103E5
:10069000FFFEFC000000000103070F0E0E0E0E0F00
:1006A0000703010000000080E0F07038383870F077
:1006B000E0800000000000FFFFFF0000000000805D
:1006C000FFFFFE00000000C0C3C7070E0E0607E3D1
:1006D000FFFF1F000000000103070F0E0E0E0F07A3
:1006E000010000000000F8F8F80000000000000021
:1006F000000000000000FFFFFFE030181818183855
:10070000F8F0C0000000FFFFFF80000000000000C4
:10071000C0FFFF0000000F0F0F03060E0C0C0E0FA2
:1007200007030000000000000000000000000000BF
:1007300000000000000000C0E0F038181818183859
:10074000F0F0C000000000FFFFE606060606060601
:10075000C7C7C7000000000003070F0E0E0E0E0EE5
:100760000703010000000000000000787878000016
:100770000000000000000000000000F8F8F8000091
:100780000000000000000000000000FFFFFF00006C
:1007900000000000000000000000000F0F0F00002C
:1007A0000000000000000000000000000000000049
:1007B00000000000000000C0F07038181818183849
:1007C000F0E0C00000003FFFFF80000000000000DC
:1007D00080FFFF1E0000000103070F0E0E0E0E0F1C
:1007E0000703010000000000C0E0F07038383870E6
:1007F000F0E080000000F0FFFF0F000000C0C0C06C
:10080000C1C7C70000000FFFFFE080000001010129
:10081000FFFFFF000000000003070F0E0E0E0E0783
:10082000030F0F00000000F8F8F8000000000000BF
:1008300000000000000000FFFFFF000000000000BB
:1008400000000000000000FFFFFF000000000000AB
:10085000000000000000000F0F0F0E0E0E0E0E0E17
:100860000E0E0E0E00000080E0F070303838307050
:10087000F0E080000000FCFFFF010000000000002D
:1008800001FFFFFC00001FFFFFC000000000000090
:10089000C0FFFF1F0000000003070F0E0E0E0E0F1B
:1008A00007030000000078F8F800000000000000D6
:1008B00080F8F83800000007FFFFF000000080F823
:1008C000FF7F030000000000000FFFFFE0F0FF7F4C
:1008D00007000000000000000000000F0F0F0700DD
:1008E00000000000002030313233343536373839DB
:1008F0004142434445464748494A4B4C4D4E4F5070
:100900005152535455565758595A3F2E0000000023
:100910000000000000000000000000000000F804DB
:10092000020204F800000F102020100F0000000445
:1009300004FE000000000000003F0000000018045A
:100940000202C438000030282621202000001804AC
:100950008282443800000C102020110E000000801C
:100960006018FE000000060504043F040000FE427B
:1009700022224282000008102020100F0000F8847C
:100980004242841800000F102020100F00000202C5
:100990000282720E000000003C0300000000384498
:1009A0008282443800000E112020110E000078844D
:1009B000020284F800000C102121100F00000080BA
:1009C0007806788000003807040404073800FE82A7
:1009D0008282824438003F20202020110E00F8043B
:1009E0000202020418000F10202020100C00FE024A
:1009F00002020204F8003F20202020100F00FE8297
:100A00008282828202003F20202020202000FE825D
:100A10008282828202003F00000000000000F80491
:100A20000202020418000F10202021113F00FE8056
:100A300080808080FE003F00000000003F0000003A
:100A400002FE020000000000203F20000000000025
:100A5000000000FE00000C102020100F0000FE001F
:100A60008060100C02003F01000106083000FE000B
:100A70000000000000003F20202020202000FE7801
:100A800080008078FE003F00073807003F00FE1816
:100A900060800000FE003F00000106183F00F804DF
:100AA00002020204F8000F10202020100F00FE8226
:100AB0008282824438003F00000000000000F804F9
:100AC00002020204F8000F10202428102F00FE82DA
:100AD0008282824438003F000000030C300038441A
:100AE0004282820418000C10202020110E00020205
:100AF00002FE020202000000003F00000000FE00B3
:100B000000000000FE000F10202020100F000EF04B
:100B1000000000F00E000000073807000000FE0093
:100B2000E01EE000FE00013E0100013E010006184B
:100B3000608060180600300C0300030C30000618BB
:100B40006080601806000000003F00000000020204
:100B50000282621A0600302C232020202000180474
:100B60000282443800000000333000000000000022
:100B700000000000000000303000000000002020D5
:100B80002020202020202030303030302020202015
:100B900020202020202020202020202020209040C5
:100BA00040404040404040404040404040400C0CAD
:100BB0000C0C0C0C0C0C0C0C40404040404040090C
:100BC00009090909090101010101010101010101ED
:100BD0000101010101010101014040404040400A82
:100BE0000A0A0A0A0A0202020202020202020202BD
:100BF00002020202020202020240404040200000C3
:100C000000000000000000000000000000000000E4
:100C100000000000000000000000000000000000D4
:100C200000000000000000000000000000000000C4
:100C300000000000000000000000000000000000B4
:100C400000000000000000000000000000000000A4
:100C50000000000000000000000000000000000094
:100C60000000000000000000000000000000000084
:100C70000000000000000000000000000000286EDE
:100C8000756C6C20707472207061737365642900D8
:100C9000696E7465676572206F6E6C792070726919
:100CA0006E74662C2073656C6563742050726F6A75
:100CB0006563742D3E4F7074696F6E732D3E546181
:100CC000726765742C224650207072696E746622B9
:100CD00020746F207072696E7420666C6F61746925
:100CE0006E6720706F696E74206E756D62657273C9
:100CF0003E00E800ED00F200F700FC0001010601F3
:100D00000B011101170119011B011D0139014601D8
:100D1000530160016D017A01870198019A019C01DC
:100D2000170119011B011D019E01A001A201A401CF
:100D3000A601AC01B201B401B601C701D801980106
:100D40009A019C014F464620000025642020200087
:100D500000256420200000200030256400002025AC
:100D6000640000256400000000014B455920554EE9
:100D70004C4F434B002020202020202020004B45BA
:100D800059204C4F434B004F4B0020202020202067
:100D9000200020535552453F200044454641554CC4
:100DA00054205345540025642048202564204D00DC
:100DB0000052554E2054494D450056312E300046C4
:100DC000572056455253494F4E0053595354454DA1
:100DD0002053455400564F4C554D45204D454D0030
:100DE0004D415820564F4C554D45002053004B4522
:100DF000594C4F434B004F46462000204D00534C6A
:100E00004545500055534220434841524745004212
:100E100041535320424F5354004D454E5500564FB9
:100E20004C002020004F4646004241535300425997
:100E3000452042594500476F56696265000700FF2B
:100E4000CFEFD8E0CDBFDEBFC451D0400AEA08835F
:100E50000024EDE4F2E012E0E23BF10711F0019230
:100E6000FBCF0083E2EFFCE0A0E0B1E01EE000E099
:100E70000BBFEF33F10721F0C89531960D92F9CFF2
:100E80000E94DD0BFFCF0E945E24A22EC02E25976C
:100E9000EB84EC8222242A8285E08C9D200180E272
:100EA00091E0F201E80FF91F249028828FE191E090
:100EB000F201E80FF91F249182E291E0F201E80FBC
:100EC000F91F25903490EA2DFF27EE0FFF1FE20D4A
:100ED000F31D008111810E94FA2125960C9448246B
:100EE0000E945A24422FA02E6997EBA0CDA04A3031
:100EF00060F0242E33243982288221E731E08E01EC
:100F00000B5F1F4F0E94AD270BC0242E3324398264
:100F100028822CE631E08E010B5F1F4F0E94AD2727
:100F20006E2D77276030670759F06130E0E07E076B
:100F300009F477C06230E0E07E0709F4A7C0DBC0A7
:100F40004A3060F0242E33243982288221E731E0B0
:100F50008E010B5F1F4F0E94AD270BC0242E332440
:100F60003982288227E631E08E010B5F1F4F0E94F5
:100F7000AD27CC8222242A822A2C3324220C331C33
:100F8000220C331C21018AE291E0F101E80FF91FE4
:100F90002490288289E291E0F201E80FF91F249160
:100FA0008E010B5F1F4F0E943222CC20E9F02224D9
:100FB0002C822A822A2C3324220C331C220C331C30
:100FC00021018AE291E0F101E80FF91F24902882C3
:100FD00089E291E0F201E80FF91F2491245F05E610
:100FE00011E00E94322287C081E08C8322242A8271
:100FF000EA2CFF24EE0CFF1CEE0CFF1C8AE291E0B1
:10100000F701E80FF91F2490288289E291E0F701A7
:10101000E80FF91F2491245F05E611E00E943222B7
:101020006AC04A3060F0242E33243982288221E7B6
:1010300031E08E010B5F1F4F0E94AD270BC0242EA5
:101040003324398228822CE631E08E010B5F1F4F5A
:101050000E94AD27CC8281E08A83EA2CFF24EE0C2B
:10106000FF1CEE0CFF1C8AE291E0F701E80FF91F6C
:101070002490288289E291E0F701E80FF91F24917A
:101080008E010B5F1F4F0E94322235C04A3060F044
:10109000242E33243982288221E731E08E010B5F30
:1010A0001F4F0E94AD270BC0242E33243982288283
:1010B0002CE631E08E010B5F1F4F0E94AD27CC82E2
:1010C00082E08A832A2C3324220C331C220C331C0A
:1010D00051018AE291E0F101E80FF91F2490288282
:1010E00089E291E0F501E80FF91F24918E010B5F71
:1010F0001F4F0E94322269960C944F24F8013187C9
:10110000208708950E947924A8016997AA241CC108
:10111000FA0122803A2C320C85E0839D20843184B0
:10112000F001E20DF31D8081813009F068C0FA0101
:1011300022803A2C320C2380231409F02FC081E046
:101140008C838A8324803580EA2DFF27EE0FFF1FD2
:10115000E20DF31D40805180F201319624902882E7
:10116000F2012491205AFA0122803A2C320C85E0B7
:10117000839D100140845184240C351CF101218091
:101180003280A381B481EC91FF27EE0FFF1FE20DA7
:10119000F31D008111810E94FA21D5C022242C82E6
:1011A00081E08A83FA0124803580EA2DFF27EE0F43
:1011B000FF1FE20DF31D60817181FB0131962490C8
:1011C0002882FB012491205AFA0122803A2C320C09
:1011D00085E0839DB00120843184620D731DFB0185
:1011E00021803280A381B481EC91FF27EE0FFF1F95
:1011F000E20DF31D008111810E94FA21A4C0FA01C1
:1012000022803A2C320C85E0839D20843184F001C9
:10121000E20DF31D8081823009F095C0FA01228031
:101220003A2C320C85E0839D20843184F001E20D5C
:10123000F31DA381B4818C918A30C8F0FA01228019
:101240003A2C320C85E0839D20843184F001E20D3C
:10125000F31DA381B4812C903324398228822FE599
:1012600031E08E010B5F1F4F0E94AD2730C0FA01A5
:1012700022803A2C320C85E0839D20843184F00159
:10128000E20DF31DA381B4818C918130C8F0FA0185
:1012900022803A2C320C85E0839D20843184F00139
:1012A000E20DF31DA381B4812C903324398228826E
:1012B00028E531E08E010B5F1F4F0E94AD2707C06C
:1012C00022E531E08E010B5F1F4F0E94AD27FA012E
:1012D00022803A2C320C23802314D1F481E08C83B9
:1012E0008A8324803580EA2DFF27EE0FFF1FE20D51
:1012F000F31D60817181FB01319624902882FB01EE
:101300002491205A8E010B5F1F4F0E9432221BC076
:1013100022242C8281E08A83FA0124803580EA2D00
:10132000FF27EE0FFF1FE20DF31D60817181FB01AE
:10133000319624902882FB012491205A8E010B5F64
:101340001F4F0E943222A394FA012180A21408F4B4
:10135000DFCE69960C9480240E945A246A857B858E
:101360004C85EE84C888AA88F80137832683758364
:1013700064834083E382C282A1820C944F240E9442
:101380006524A8012597AA2456C0FA0122803A2C88
:10139000320C2380231409F026C081E08C838A83D9
:1013A00024803580EA2DFF27EE0FFF1FE20DF31D8D
:1013B00040805180F201319624902882F2012491DC
:1013C0002A2C3324FA0142805524420C531C440C2D
:1013D000551C26803780F201E20DF31D008111813A
:1013E0000E94FA2127C022242C8281E08A83FA01FC
:1013F00024803580EA2DFF27EE0FFF1FE20DF31D3D
:1014000040805180F201319624902882F20124918B
:101410002A2C3324FA0142805524420C531C440CDC
:10142000551C26803780F201E20DF31D00811181E9
:101430000E94FA21A394FA012180A21408F4A5CFF6
:1014400025960C946A240E947924A8016997AA24FD
:1014500071C1FA0122803A2C320C2380231409F046
:1014600026C081E08C838A8324803580EA2DFF2783
:10147000EE0FFF1FE20DF31D40805180F201319607
:1014800024902882F20124912A2C3324FA014280EC
:101490005524420C531C440C551C26803780F20105
:1014A000E20DF31D008111810E94FA2127C0222440
:1014B0002C8281E08A83FA0124803580EA2DFF277F
:1014C000EE0FFF1FE20DF31D40805180F2013196B7
:1014D00024902882F20124912A2C3324FA0142809C
:1014E0005524420C531C440C551C26803780F201B5
:1014F000E20DF31D008111810E94FA21FA01228080
:101500003A2C320C85E0839D20843184F001E20D79
:10151000F31D8081813009F068C0FA0122803A2CE5
:10152000320C2380231409F02FC081E08C838A833E
:1015300024803580EA2DFF27EE0FFF1FE20DF31DFB
:1015400060817181FB01319624902882FB012491F6
:10155000205AFA0122803A2C320C85E0839DB0019A
:1015600020843184620D731DFB0121803280A381B0
:10157000B481EC91FF27EE0FFF1FE20DF31D0081F8
:1015800011810E94FA21D5C022242C8281E08A8315
:10159000FA0124803580EA2DFF27EE0FFF1FE20DB0
:1015A000F31D60817181FB01319624902882FB013B
:1015B0002491205AFA0122803A2C320C85E0839D36
:1015C000B00120843184620D731DFB0121803280C3
:1015D000A381B481EC91FF27EE0FFF1FE20DF31DF5
:1015E000008111810E94FA21A4C0FA0122803A2CC4
:1015F000320C85E0839D20843184F001E20DF31DDF
:101600008081823009F095C0FA0122803A2C320C98
:1016100085E0839D20843184F001E20DF31DA381D8
:10162000B4818C918A30C8F0FA0122803A2C320CB5
:1016300085E0839D20843184F001E20DF31DA381B8
:10164000B4812C903324398228822FE531E08E0139
:101650000B5F1F4F0E94AD2730C0FA0122803A2C49
:10166000320C85E0839D20843184F001E20DF31D6E
:10167000A381B4818C918130C8F0FA0122803A2C88
:10168000320C85E0839D20843184F001E20DF31D4E
:10169000A381B4812C9033243982288228E531E05B
:1016A0008E010B5F1F4F0E94AD2707C022E531E07E
:1016B0008E010B5F1F4F0E94AD27FA0122803A2C4A
:1016C000320C23802314D1F481E08C838A8324801C
:1016D0003580EA2DFF27EE0FFF1FE20DF31D60811D
:1016E0007181FB01319624902882FB012491205ABC
:1016F0008E010B5F1F4F0E9432221BC022242C82BE
:1017000081E08A83FA0124803580EA2DFF27EE0FDD
:10171000FF1FE20DF31D60817181FB013196249062
:101720002882FB012491205A8E010B5F1F4F0E94DB
:101730003222A394FA012180A21408F48ACE699679
:101740000C948024243009F01EC0F801808181505F
:101750002380281620F02224238222822DC0C80153
:101760000396FC0180818F5F8083F80121803280A5
:10177000320C2380231408F41FC021808381821936
:101780008F5F828319C0F8012380222041F4808179
:1017900081508383218082198F5F82830DC0C801AD
:1017A0000396FC01808181508083F8012280338080
:1017B000321410F42380228208950E94251D279A56
:1017C0000E949F230E94C41B0E945E1D0E949F22B4
:1017D0000E947C230E94C01B0E94321878940E94B1
:1017E00098220E946A220E94CD1B83D158D120905A
:1017F0005E0220926402009167020E941F1D07E0B2
:101800000E94BC0D84E690E09093560280935502AE
:10181000909358028093570280E797E190934E028D
:1018200080934D029093500280934F0222243324E0
:10183000309252022092510281E0809359024AC0B4
:101840004091590255274130E0E05E070CF43FC05B
:101850008FE090E0841795070CF439C088EC90E095
:10186000FA013197EE0FFF1FE80FF91F2590349012
:10187000F10109940E94BF0D2DC00E943B0E2AC0A9
:101880000E94EB0D27C00E94281024C00E94C210A5
:1018900021C00E944E111EC00E94DA111BC00E947E
:1018A000C81218C00E94B61315C00E945A1412C064
:1018B0000E94DF140FC00E9462150CC00E94BB156D
:1018C00009C00E949E1606C00E94331703C082E022
:1018D00080935902B5CF08950E948724A22EC02E6E
:1018E0004C2D55274130E0E05E0709F4AAC0423094
:1018F000E0E05E07A9F04430E0E05E0709F49BC039
:101900004530E0E05E0709F499C04730E0E05E074B
:1019100009F49FC04830E0E05E0709F487C0A0C02A
:101920004A2D55274030450759F04130E0E05E0729
:1019300009F475C04230E0E05E0709F493C092C03C
:101940000E949B1D05E512E090D0002351F182E03A
:1019500025B0282625B820905F02222091F080E053
:1019600020906802821528F4822D815080936802AD
:1019700008C0809159028F3021F02FE007E00E94CB
:1019800038180E94A80D002341F0809159028F3031
:1019900021F022E007E00E943818222708E00E9488
:1019A00038180DE412E061D0C02E002369F12090B8
:1019B0005E02222059F0809164028150809364027B
:1019C000882321F42EE007E00E94381840915C0241
:1019D0004F5F40935C024C33B8F0222420925C02AB
:1019E00040915A0250915B024F5F5F4F50935B02F0
:1019F00040935A028FE097E28417950728F4332426
:101A000030925B0220925A0201E512E02ED0C02EE5
:101A1000002341F1009160020E943A2323C00E94FA
:101A2000FD1B0E940A1C0E94CD1B1CC00E94101DA1
:101A30000E94A12317C0A092650214C0A092660262
:101A400011C00E942B1DC02E2C2D02E00E943818C0
:101A500009C0A0925902222700270E94381802C00C
:101A6000002701C001E00C948E24F8012080318011
:101A7000222011F4332089F0808191810197918394
:101A8000808320803180222041F4332031F4228071
:101A900033803182208201E001C000270895222492
:101AA0002092640285E0809365022092660281E0C4
:101AB0008093670220905F0220926802089522249A
:101AC000332430925B0220925A0220925C022092D0
:101AD0005D0220925E0220925F0281E080936302A9
:101AE0008CE3809362028AE080936002209261021C
:101AF00008952C978AE090E0998388839E012E5F59
:101B00003F4F002711270E94E6248B85813099F4EE
:101B10008AE090E0998388839E012E5F3F4F0AE51B
:101B200012E00E94C22320906102222079F48AE010
:101B3000809360020BC0C3DF8AE090E099838883C2
:101B40002AE532E0002711270E9409252C960895E6
:101B500080917501863028F48F5F8093750100278E
:101B60000AC080917501863029F48F5F80937501DA
:101B700001E001C0002708950093750108950E94B7
:101B800065242797AA2422242C8282E08A838883D2
:101B900020E104E412E00E94322210C04D8155275A
:101BA0004830E0E05E0709F005C022E007E00E944F
:101BB000381804C02E810D810E946C0C9E012A5F92
:101BC0003F4F8E010B5F1F4F0E946C18002331F7AF
:101BD00027960C946A24AA92BA92279722242C82E0
:101BE00080E88A83288227E000270E94812022241F
:101BF0002C8281E08A8383E0888324E20CE312E074
:101C00000E9432228AE090E0998388832AE532E0BC
:101C1000002711270E940925A090600207C0AA94FE
:101C20000A2D0E943A2304E10E94471DAA20B9F719
:101C30000E94092322242C8280E88A83288227E0BC
:101C400000270E9481200E949B2207C0AD80BB24F8
:101C500000C02E810D810E946C0C9E012A5F3F4FB7
:101C60008E010B5F1F4F0E946C18002379F7279697
:101C7000B990A99008954A935A9327972090770195
:101C8000222031F000915D020E9457230E94C02261
:101C900022242C8280E88A83288227E000270E9461
:101CA000812081E08C8322242A822882222707E354
:101CB00012E00E9432228FEF8C8389E18A8388E1CF
:101CC000888321E000270E948120222428822091FD
:101CD0005D0200270E9443078FEF8C8380E28A8396
:101CE0008FE1888321E000270E94812081E08883A2
:101CF0002091660201E00E94430781E08A8386E02A
:101D0000888322270EE30E94522120905E02222027
:101D100049F022242A8228822091640200270E940E
:101D200070070AC081E08C8322242A8228822EE454
:101D300003E312E00E94322220906602222069F022
:101D400020906702222049F081E08A8387E088831F
:101D5000222700E60E9452210AC081E08C838A83F8
:101D60002224288220E600E312E00E9432228091A1
:101D70006502873049F481E08A8385E088832227E1
:101D800000E70E9452210AC081E08A8380916502A7
:101D900081508883222700E70E94522122242C822E
:101DA00082E08A8383E0888320E10CE212E00E94D3
:101DB000322222242A8282E088832091600201E07C
:101DC0000E94700720907701222099F0222420920F
:101DD000770108EC0E94471D08EC0E94471D08ECA3
:101DE0000E94471D08EC0E94471D009160020E945E
:101DF0003A2307E0C1DE1DC14D8155274330E0E0A5
:101E00005E0709F472C04430E0E05E0709F4BEC02A
:101E10004530E0E05E0709F4E3C04830E0E05E07EB
:101E200009F003C120905E02222049F022242A8278
:101E300028822091640200270E9470070AC081E076
:101E40008C8322242A8228822EE403E312E00E945B
:101E5000322220906602222049F12090670222203F
:101E600029F180916502873061F481E08A8385E001
:101E70008883222700E70E945221222420927601A3
:101E80002FC081E08A83209076012882222700E7F4
:101E90000E94522180917601853020F48F5F8093DB
:101EA00076011EC02224209276011AC0809165021C
:101EB000873049F481E08A8385E08883222700E720
:101EC0000E9452210AC081E08A838091650281507C
:101ED0008883222700E70E94522122242092760143
:101EE0002E810D810E946C0CA4C04E81552741307B
:101EF000E0E05E0709F49DC04230E0E05E0791F04B
:101F00004330E0E05E0799F04430E0E05E0739F1ED
:101F10004630E0E05E0709F08CC02EE007E00E944A
:101F2000381887C023E007E00E94381882C020904C
:101F3000620230906002321420F4832D8F5F809310
:101F4000600222242A8282E088832091600201E0DC
:101F50000E947007009160020E943A236AC080E0EC
:101F600020906002821520F4822D815080936002BF
:101F700022242A8282E088832091600201E00E946C
:101F80007007009160020E943A2353C02E80209275
:101F90006502222021F42EE007E00E9438182090EC
:101FA0006602222029F020906702222009F041C019
:101FB00080916502873049F481E08A8385E08883D7
:101FC000222700E70E94522134C081E08A83809159
:101FD000650281508883222700E70E94522129C090
:101FE0002E802092660281E08883222D01E00E94EB
:101FF000430720906602222069F020906702222089
:1020000049F081E08A8387E08883222700E60E94E6
:1020100052210FC081E08C838A832224288220E60B
:1020200000E312E00E94322204C02E810D810E9442
:102030006C0C9E012A5F3F4F8E010B5F1F4F0E9469
:102040006C18002309F0D8CE27965991499108952C
:102050004A935A93E89789EE91E0FE01759603E260
:1020600010E0FA93EA939A938A930E94B724222469
:102070002C8280E88A83288227E000270E94812022
:1020800022242C8281E08A83288220E307E212E066
:102090000E94322283E0888722242E822C8287E0CD
:1020A0008A8388E291E0998388832AE131E08E0176
:1020B000055F1F4F0E94AC099E012B5E3F4F8E01B2
:1020C000055F1F4F0E947E088E01055F1F4F0E9413
:1020D000230A002751DD47C0498555274330E0E0FA
:1020E0005E0709F03CC0002747DD4A85552741308F
:1020F000E0E05E07B9F04230E0E05E0769F04330AF
:10210000E0E05E07A1F04430E0E05E07E1F0463039
:10211000E0E05E0741F127C02E852C5F07E00E94BA
:10212000381821C022E007E00E9438181CC02A8518
:102130008E01055F1F4F0E94A20B8E01055F1F4F8E
:102140000E94230A10C02A858E01055F1F4F0E943E
:10215000A20B8E01055F1F4F0E94230A04C02A852F
:1021600009850E946C0C9E01265F3F4F8E01075F20
:102170001F4F0E946C18002309F0AECFE8965991CA
:10218000499108954A935A93659722242C8280E8B6
:102190008A83288227E000270E94812022242C8223
:1021A00081E08A8328822CE10DE112E00E94322234
:1021B00084E0888722242E8220905D022C828A83EC
:1021C00086E391E0998388832EE231E08E01055FFA
:1021D0001F4F0E94AC098E01055F1F4F0E94BF096F
:1021E0004EC0498555274330E0E05E0709F043C003
:1021F0000027C2DC4A8555274130E0E05E0791F0B8
:102200004230E0E05E0709F43AC04330E0E05E07A8
:1022100071F04430E0E05E07E1F04630E0E05E0758
:1022200071F12DC023E007E00E94381828C024E097
:102230008E01055F1F4F0E94A20B8E01055F1F4F8D
:102240000E94BF092E8420925D02022D0E94572316
:1022500016C023E08E01055F1F4F0E94A20B8E0166
:10226000055F1F4F0E94BF092E8420925D02022D40
:102270000E94572304C02A8509850E946C0C9E0188
:10228000265F3F4F8E01075F1F4F0E946C1800238F
:1022900009F0A7CF65965991499108954A935A93A9
:1022A000659722242C8280E88A83288227E00027F1
:1022B0000E94812022242C8281E08A83288228E1C6
:1022C00002E112E00E94322282E0888722242E82DC
:1022D000209067022C828A8382E491E0998388832C
:1022E0002EE331E08E01055F1F4F0E94AC098E0185
:1022F000055F1F4F0E94BF094EC0498555274330D7
:10230000E0E05E0709F043C0002736DC4A85552728
:102310004130E0E05E0791F04230E0E05E0709F412
:102320003AC04330E0E05E0771F04430E0E05E0721
:10233000E1F04630E0E05E0771F12DC023E007E0F8
:102340000E94381828C02A858E01055F1F4F0E9401
:10235000A20B8E01055F1F4F0E94BF092E842092A1
:102360006702022D0E941F1D16C02A858E01055F7F
:102370001F4F0E94A20B8E01055F1F4F0E94BF09D5
:102380002E8420926702022D0E941F1D04C02A8500
:1023900009850E946C0C9E01265F3F4F8E01075FEE
:1023A0001F4F0E946C18002309F0A7CF6596599122
:1023B000499108954A935A93279722242C8280E8C2
:1023C0008A83288227E000270E94812022242C82F1
:1023D00081E08A8328822CE20CE012E00E94322203
:1023E00020905E022220A9F022242A8281E08883A4
:1023F00020915E0202E00E94700722242C8281E07C
:102400008A8384E0888320E409E012E00E9432227B
:10241000B0C022242C8281E08A8384E0888320E378
:1024200004E012E00E943222A4C04D8155274330BF
:10243000E0E05E0709F099C000279EDB4E8155273A
:102440004130E0E05E07A1F04230E0E05E0709F4D1
:1024500090C04330E0E05E0781F04430E0E05E078A
:1024600009F447C04630E0E05E0709F482C081C04D
:1024700023E007E00E9438187CC020905E022220F2
:1024800021F48AE080935E020DC080915E028A355D
:1024900021F4222420925E0205C080915E028F5FAB
:1024A00080935E0220905E02209264022220A9F0B6
:1024B00022242A8281E0888320915E0202E00E9429
:1024C000700722242C8281E08A8384E0888320E4C0
:1024D00009E012E00E9432224CC022242C8281E0CA
:1024E0008A8384E0888320E304E012E00E943222A1
:1024F00040C020905E02222021F48AE580935E0293
:102500000DC080915E028A3021F4222420925E0266
:1025100005C080915E02815080935E0220905E0231
:10252000209264022220A9F022242A8281E088835A
:1025300020915E0202E00E94700722242C8281E03A
:102540008A8384E0888320E409E012E00E9432223A
:1025500010C022242C8281E08A8384E0888320E3D7
:1025600004E012E00E94322204C02E810D810E94FC
:102570006C0C9E012A5F3F4F8E010B5F1F4F0E9424
:102580006C18002309F051CF27965991499108956D
:102590004A935A93279722242C8280E88A832882A0
:1025A00027E000270E94812022242C8281E08A8358
:1025B000288224E20CEF11E00E94322220905F0278
:1025C0002220A9F022242A8281E0888320915F02C0
:1025D00002E00E94700722242C8281E08A8384E03A
:1025E000888320E409EF11E00E943222B0C0222447
:1025F0002C8281E08A8384E0888320E304E012E077
:102600000E943222A4C04D8155274330E0E05E078E
:1026100009F099C00027B0DA4E8155274130E0E03B
:102620005E07A1F04230E0E05E0709F490C043305D
:10263000E0E05E0781F04430E0E05E0709F447C067
:102640004630E0E05E0709F482C081C023E007E085
:102650000E9438187CC020905F02222021F484E17F
:1026600080935F020DC080915F028C3321F422249D
:1026700020925F0205C080915F028F5F80935F02AE
:1026800020905F02209268022220A9F022242A8250
:1026900081E0888320915F0202E00E94700722247B
:1026A0002C8281E08A8384E0888320E409EF11E0B2
:1026B0000E9432224CC022242C8281E08A8384E052
:1026C000888320E304E012E00E94322240C0209080
:1026D0005F02222021F48CE380935F020DC0809181
:1026E0005F02843121F4222420925F0205C0809190
:1026F0005F02815080935F0220905F022092680207
:102700002220A9F022242A8281E0888320915F027E
:1027100002E00E94700722242C8281E08A8384E0F8
:10272000888320E409EF11E00E94322210C02224A5
:102730002C8281E08A8384E0888320E304E012E035
:102740000E94322204C02E810D810E946C0C9E01D9
:102750002A5F3F4F8E010B5F1F4F0E946C180023B2
:1027600009F051CF27965991499108954A935A9368
:10277000279722242C8280E88A83288227E000275A
:102780000E94812022242C8281E08A83288228E1F1
:102790000EEE11E00E94322222242A8281E08883F8
:1027A0002091620203E00E94700775C04D81552799
:1027B0004330E0E05E0709F06AC00027DDD94E81B2
:1027C00055274130E0E05E0799F04230E0E05E07D7
:1027D00009F461C04330E0E05E0779F04430E0E0A6
:1027E0005E0781F14630E0E05E0709F454C053C053
:1027F00023E007E00E9438184EC0809162028C33BB
:1028000021F484E18093620205C0809162028F5FAF
:10281000809362022090620233244090600255242B
:10282000241435042CF420926002022D0E943A23D5
:1028300022242A8281E088832091620203E00E94A0
:10284000700729C080916202843121F48CE3809367
:10285000620205C0809162028150809362022090E2
:1028600062023324409060025524241435042CF471
:1028700020926002022D0E943A2322242A8281E0C3
:1028800088832091620203E00E94700704C02E81B9
:102890000D810E946C0C9E012A5F3F4F8E010B5FE1
:1028A0001F4F0E946C18002309F080CF2796599182
:1028B000499108954A935A93659722242C8280E87F
:1028C0008A83288227E000270E94812022242C82EC
:1028D00081E08A83288228E103EE11E00E943222FF
:1028E00082E0888722242E82209061022C828A83B3
:1028F00082E491E0998388832EE331E08E01055FC5
:102900001F4F0E94AC098E01055F1F4F0E94BF0937
:1029100047C0498555274330E0E05E0709F03CC0D9
:1029200000272AD94A8555274130E0E05E0789F023
:102930004230E0E05E07A1F14330E0E05E0771F075
:102940004430E0E05E07C9F04630E0E05E0741F168
:1029500027C023E007E00E94381822C02A858E0194
:10296000055F1F4F0E94A20B8E01055F1F4F0E9443
:10297000BF092E842092610213C02A858E01055F53
:102980001F4F0E94A20B8E01055F1F4F0E94BF09BF
:102990002E842092610204C02A8509850E946C0C55
:1029A0009E01265F3F4F8E01075F1F4F0E946C18EC
:1029B000002309F0AECF65965991499108954A9345
:1029C0005A93659722242C8280E88A83288227E004
:1029D00000270E94812022242C8281E08A83288281
:1029E00028E108ED11E00E94322283E0888722244A
:1029F0002E822C828A838CE491E09983888326E45A
:102A000031E08E01055F1F4F0E94AC098E01055F0A
:102A10001F4F0E94BF0947C0498555274330E0E05A
:102A20005E0709F03CC00027A7D84A8555274130EA
:102A3000E0E05E07B9F04230E0E05E0769F0433065
:102A4000E0E05E07A1F04430E0E05E07E1F04630F0
:102A5000E0E05E0741F127C02E85255F07E00E9478
:102A6000381821C023E007E00E9438181CC02A85CE
:102A70008E01055F1F4F0E94A20B8E01055F1F4F45
:102A80000E94BF0910C02A858E01055F1F4F0E945A
:102A9000A20B8E01055F1F4F0E94BF0904C02A854B
:102AA00009850E946C0C9E01265F3F4F8E01075FD7
:102AB0001F4F0E946C18002309F0AECF6596599104
:102AC000499108954A935A93279722242C8280E8AB
:102AD0008A83288227E000270E94812022242C82DA
:102AE00081E08A83288228E10DEC11E00E943222E5
:102AF00022242C8281E08A8384E0888320E308EC0E
:102B000011E00E94322229C04D8155274330E0E078
:102B10005E0709F01EC000272FD84E81552741308F
:102B2000E0E05E0789F04230E0E05E07B1F043305C
:102B3000E0E05E0791F04430E0E05E0771F046307F
:102B4000E0E05E0751F009C02AE007E00E94381873
:102B500004C02E810D810E946C0C9E012A5F3F4FA4
:102B60008E010B5F1F4F0E946C18002369F6279699
:102B70005991499108950E9465246B9722242C82D3
:102B800080E88A83288227E000270E94812022246F
:102B90002C8281E08A83288220E20FEB11E00E94E0
:102BA000322220905C0233243B822A8220905A02F7
:102BB00030905B023982288224EB31E08E01095F7C
:102BC0001F4F0E94AD278E01095F1F4F0E94D02327
:102BD000A02E22242C8281E08A8384E088832A2C00
:102BE0003324220C331C220C331C220C331C00E82F
:102BF00010E00219130922E030E00E94E523202FA3
:102C00008E01095F1F4F0E94322289C04D815527D6
:102C10004330E0E05E0709F45FC04330E0E05E0768
:102C20000CF479C04830E0E05E0709F074C02090F1
:102C30005C0233243B822A8220905A0230905B024D
:102C40003982288224EB31E08E01095F1F4F0E94F8
:102C5000AD278E01095F1F4F0E94D023A02E222492
:102C60002C8281E08A8384E088832A2C3324220CFE
:102C7000331C220C331C220C331C00E810E0021918
:102C8000130922E030E00E94E523202F8E01095F26
:102C90001F4F0E94322222242C822A2C220C220C2A
:102CA00080E4821981508A832224288225E004E06E
:102CB0000E94812022242C8280E88A838A2D880F1A
:102CC000880F805C888325E004E00E9481202E81AB
:102CD0000D810E946C0C23C000270E94BC0D4E8108
:102CE00055274130E0E05E0789F04230E0E05E07C2
:102CF000B1F04330E0E05E0791F04430E0E05E0781
:102D000071F04630E0E05E0751F009C02AE007E0CC
:102D10000E94381804C02E810D810E946C0C9E0107
:102D20002A5F3F4F8E010B5F1F4F0E946C18A02E31
:102D3000002309F06BCF6B960C946A244A935A9344
:102D4000279722242C8280E88A83288227E0002784
:102D50000E94812022242C8281E08A83288224E11F
:102D600008EA11E00E94322222242C8281E08A8328
:102D700084E0888324E200EA11E00E94322264C0E9
:102D80004D8155274330E0E05E0709F059C0002728
:102D90000E94BC0D4E8155274130E0E05E0709F4EA
:102DA0004AC04230E0E05E0781F04330E0E05E0779
:102DB00009F44AC04430E0E05E0709F445C04630FB
:102DC000E0E05E0709F440C03FC00E945F0D8AE06A
:102DD00090E0998388832AE532E0002711270E943A
:102DE000092500915D020E945723009160020E9414
:102DF0003A2320905E022092640222242C8281E0F9
:102E00008A8384E0888324E208E911E00E94322268
:102E100022242C8281E08A8384E0888328E305E9E8
:102E200011E00E94322222E007E00E9438180AEFE7
:102E30000E94471D09C02AE007E00E94381804C01C
:102E40002E810D810E946C0C9E012A5F3F4F8E01E6
:102E50000B5F1F4F0E946C18002309F091CF27963B
:102E60005991499108954A935A93279722242C8285
:102E700080E88A83288227E000270E948120E3C01F
:102E80004D8155274330E0E05E0709F0D8C00027A8
:102E90000E94BC0D8E81853009F4BAC081E08C831C
:102EA00022242A822882222707E312E00E9432226B
:102EB0008FEF8C8389E18A8388E1888321E0002772
:102EC0000E9481202224288220915D0200270E94F6
:102ED00043078FEF8C8380E28A838FE1888321E030
:102EE00000270E94812081E088832091660201E012
:102EF0000E94430781E08A8386E0888322270EE3CD
:102F00000E94522120905E02222049F022242A822F
:102F100028822091640200270E9470070AC081E085
:102F20008C8322242A8228822EE403E312E00E946A
:102F3000322220906602222069F02090670222202F
:102F400049F081E08A8387E08883222700E60E9497
:102F500052210AC081E08C838A832224288220E6C1
:102F600000E312E00E94322280916502873049F42A
:102F700081E08A8385E08883222700E70E9452212E
:102F80000AC081E08A83809165028150888322276C
:102F900000E70E94522122242C8282E08A8383E06F
:102FA000888320E10CE212E00E94322222242A824D
:102FB00082E088832091600201E00E94700708ECA3
:102FC0000E94471D08EC0E94471D22242C8280E8A5
:102FD0008A83288227E000270E94812022242C82D5
:102FE00081E08A8383E0888320E20CE811E00E947C
:102FF000322208EC0E94471D22242C8281E08A8321
:1030000083E0888320E203E811E00E9432221BC0A3
:1030100022242C8281E08A8383E0888328E108E7E8
:1030200011E00E94322208EC0E94471D20905F02AE
:103030002092680222E007E00E94381804C02E8126
:103040000D810E946C0C9E012A5F3F4F8E010B5F29
:103050001F4F0E946C18002309F012CF2796599138
:103060004991089522242092690220926A020895CB
:103070000E948724C22E402F433041F48091590290
:103080008F3021F020905F02209268021AE00091B8
:103090006A020F5F0E941B24A02E20906902021575
:1030A00011F4002717C08BE692E0E0916A02FF2737
:1030B000EE0FFF1FE80FF91F40838CE692E0E091CE
:1030C0006A02FF27EE0FFF1FE80FF91FC082A092D0
:1030D0006A0201E00C948E240E9460246901580168
:1030E00020906A0230906902321401F18BE692E07E
:1030F000E32DFF27EE0FFF1FE80FF91F2080F501DA
:1031000020828CE692E0E0916902FF27EE0FFF1F1C
:10311000E80FF91F2080F60120821AE00091690271
:103120000F5F0E941B240093690205C081E0F50136
:103130008083F6018083F50100810C9443240E9472
:103140005A247901602F4A855B85CC84DD84AE8466
:10315000BF84AA2019F4BB2009F45AC0C7018130EA
:10316000E0E09E0759F4862F8F5F8093880250938A
:1031700087024093860281E080938502C7018230F6
:10318000E0E09E0759F4862F8F5F8093880250936A
:1031900087024093860282E080938502C7018330D4
:1031A000E0E09E07C9F427E030E08A010E94B024E5
:1031B000C8018E709070262E3324280E391EC1014E
:1031C000019680938802CA01907090938702809341
:1031D000860281E080938502D0928402C0928302AD
:1031E000B0928202A092810281E080937F02222429
:1031F0002092800285EA8093BC00209080022220E9
:10320000E1F3822D813011F401E003C0002701C0F9
:1032100000270C944F240E945A24622FC02E269718
:10322000EC88FD884427AA24FD82EC820A881B884A
:103230001B820A820888198819820882262F332760
:103240000C2D7DDFA02E242E33244F5F83E08215CA
:1032500008F402C0AA2041F3AA2019F409EF0E9441
:1032600098230A2D26960C944F240E945A24622FEC
:10327000E02E4A855B85CC84DD84AE84BF84AA20A1
:1032800019F4BB2009F44BC0613049F4E092880284
:10329000509387024093860281E0809385026230DA
:1032A00049F4E0928802509387024093860282E0BC
:1032B000809385026330B9F427E030E08A010E94F0
:1032C000B024C8018E7090702E2C3324280E391E25
:1032D00020928802CA0190709093870280938602A0
:1032E00081E080938502D0928402C0928302B092E2
:1032F0008202A092810282E080937F0222242092A7
:10330000800285EA8093BC00209080022220E1F3B5
:10331000822D813011F401E003C0002701C0002795
:103320000C944F240E945A24622FC02E2697EC88BA
:10333000FD884427AA24FD82EC820A881B881B8210
:103340000A820888198819820882262F0C2D8DDFA1
:10335000A02E242E33244F5F83E0821508F402C090
:10336000AA2049F3AA2019F408EF0E9498230A2DF5
:1033700026960C944F242A923A920A931A938A938F
:103380009A93AA93EA93FA932FB62A920091B900DE
:103390001127087F10700033E0E01E0709F477C1A1
:1033A00080E390E08017910754F10831E0E01E07B8
:1033B00009F477C088E190E08017910784F0083025
:1033C000E0E01E0709F445C00830E0E01E070CF4F9
:1033D000CBC10031E0E01E0709F454C0C5C1003282
:1033E000E0E01E0709F453C10032E0E01E070CF4D0
:1033F000BBC10832E0E01E0709F453C0B5C1083470
:10340000E0E01E0709F443C188E490E080179107CB
:1034100084F00833E0E01E0709F439C10833E0E026
:103420001E070CF4A1C10034E0E01E0709F410C12E
:103430009BC10035E0E01E0709F441C10035E0E022
:103440001E070CF491C10835E0E01E0709F46FC1B6
:103450008BC180917F02813031F4809188028E7F10
:103460008093BB0004C0209088022092BB00809112
:10347000BC008F7D8093BC008091BC0080688093ED
:10348000BC0072C1209088022092BB008091BC00D9
:103490008F7D8093BC008091BC0080688093BC00CD
:1034A00063C120907F02222009F03EC0209081025B
:1034B00030908202222011F43320F9F0E09183024F
:1034C000F09184022190F0938402E0938302209291
:1034D000BB008091BC008F7D8093BC008091BC00BC
:1034E00080688093BC008091810290918202019754
:1034F000909382028093810217C08091BC0080610A
:103500008093BC008091BC008F7D8093BC00809133
:10351000BC0080688093BC008091BC008B7F80934E
:10352000BC0081E08093800280917F02813009F0AD
:103530004AC0809185028230C9F4809186029091C0
:103540008702892F992790708093BB008091BC00DF
:103550008F7D8093BC008091BC0080688093BC000C
:1035600080918502815080938502FEC08091850202
:103570008130B9F480918602909187029070809397
:10358000BB008091BC008F7D8093BC008091BC000B
:1035900080688093BC008091850281508093850271
:1035A000E3C020908502222071F48091BC008062EB
:1035B0008093BC008091BC0080688093BC00222472
:1035C00020927F02D1C080917F02823009F0CCC06E
:1035D00080E020908502821508F0C6C0822D8230DE
:1035E000C1F48091860290918702892F992790706B
:1035F0008093BB008091BC008F7D8093BC00809144
:10360000BC0080688093BC00822D8150809385022D
:10361000ABC080918502813009F0A6C080918602FE
:103620009091870290708093BB008091BC008F7D49
:103630008093BC008091BC0080688093BC00809126
:103640008502815080938502222420927F028CC0C3
:1036500081E090E0209081023090820282159305F3
:1036600030F08091BC008F7B8093BC0005C08091BE
:10367000BC0080648093BC008091BC008F7D8093EF
:10368000BC008091BC0080688093BC006DC08091BC
:10369000BC008F7D8093BC008091BC0080688093CB
:1036A000BC008091BC0080618093BC008091BC0014
:1036B0008B7F8093BC008FEF8093800255C0209059
:1036C000BB00E0918302F09184022192F093840286
:1036D000E0938302809181029091820201979093FE
:1036E0008202809381028130E0E09E0781F4809124
:1036F000BC008F7B8093BC008091BC008F7D809349
:10370000BC008091BC0080688093BC002DC080917B
:10371000BC0080648093BC008091BC008F7D80934E
:10372000BC008091BC0080688093BC001DC02090CC
:10373000BB00E0918302F09184022192F093840215
:10374000E09383028091BC0080618093BC008091F3
:10375000BC008F7D8093BC008091BC00806880930A
:10376000BC0081E08093800229902FBEF991E991FD
:10377000A991999189911991099139902990189558
:1037800088E08093B800089580917C0080648093E5
:103790007C008EE080937A00089580917C00807F89
:1037A00080937C0080917C00866080937C00222442
:1037B000332430928C0220928B0230928A02209223
:1037C000890220928E0220928D0220928F02809197
:1037D0007A00806880937A0080917A008064809378
:1037E0007A00089580917A008F7780937A00809193
:1037F0007A008F7B80937A00089529E130E0009170
:103800008B0210918C020E9401241093930200936A
:103810009202089529E130E00091890210918A0214
:103820000E940124109391020093900208958091C8
:103830007C008770873011F401E001C000270895F3
:103840000A921A922A923A924A925A926A927A92D8
:103850008A929A920A931A932A933A938A939A9302
:10386000AA93BA93EA93FA930FB60A92AA92BA92DB
:10387000A0907800BB24209079003324322C22249D
:10388000A20CB31CD4DF002381F020908902309079
:103890008A022A0C3B1C30928A0220928902809173
:1038A0008D028F5F80938D020FC020908B0230902D
:1038B0008C022A0C3B1C30928C0220928B0280914D
:1038C0008E028F5F80938E0280918D02893148F045
:1038D00080918E02893128F085DF81E080938F020C
:1038E0001DC0A5DF002359F080917C00807F80936C
:1038F0007C0080917C00866080937C000AC080916F
:103900007C00807F80937C0080917C008760809326
:103910007C0080917A00806480937A00B990A990AD
:1039200009900FBEF991E991B991A9919991899165
:10393000399129911991099199908990799069907B
:10394000599049903990299019900990189500271D
:1039500080919202909193028C38E2E09E0710F0E1
:1039600007E05DC020909202309093028CE892E0D4
:103970008215930538F0C1018836E2E09E0710F009
:1039800006E04DC0209092023090930288E692E0CB
:103990008215930538F0C1018935E2E09E0710F0E9
:1039A00005E03DC0209192023091930289E592E0BA
:1039B0008217930730F02934E2E03E0710F004E06C
:1039C0002EC0209192023091930289E492E08217F6
:1039D000930730F02933E2E03E0710F003E01FC008
:1039E000209192023091930289E392E0821793072B
:1039F00030F02B32E2E03E0710F002E010C02091E0
:103A00009202309193028BE292E08217930730F09A
:103A10002D30E2E03E0710F001E001C000270895DC
:103A2000AA9295DFA02E20904B02021531F02A2D8C
:103A300004E00E943818A0924B02A9900895002338
:103A400011F02F9801C02F9A0895219A82E025B095
:103A5000282625B8089520909602222029F02224B5
:103A60002092960200270AC020908F02222029F07F
:103A7000222420928F0201E001C002E00895AA9260
:103A8000AA2401C0A394A016E8F3A99008950E9467
:103A90006F2441E00AC06627772702C06F5F7F4F1F
:103AA0006838E3E17E07D0F34395202E3324442E7B
:103AB0005524241435047CF70C94742456980895E6
:103AC000002720909002309091028FE590E08215BF
:103AD000930538F0C1018035E0E09E0710F002E068
:103AE0001EC020909002309091028FEC90E08215E1
:103AF000930538F0C101803CE0E09E0710F003E040
:103B00000EC020919002309191028BE391E08217D8
:103B1000930728F02C32E1E03E0708F004E0089516
:103B20004A9344274E9B02C041E002C0C9DF402FA8
:103B3000042F49910895AA924A93F2DFA02E002300
:103B4000B9F420909402222069F02090950281E03F
:103B5000821540F4822D823328F42091940203E0F0
:103B60000E943818222420929402209295023CC090
:103B700020909402A21499F582E320909502821578
:103B800078F440919402433011F0443069F52224D6
:103B9000209295022091940203E00E94381824C0DC
:103BA000809195028F5F809395028233E9F4809132
:103BB0009402813029F426E003E00E94381814C0F2
:103BC00080919402823029F425E003E00E943818A5
:103BD0000BC02091940203E00E94381805C0A09207
:103BE00094022224209295024991A99008954A9323
:103BF000402F289780E88E83842F8E6A8F8381E000
:103C000090E09D838C83CE0107969B838A832E80D0
:103C100033243982288221E008E70E9492192896ED
:103C200049910895AA92A02E289780E88E8385ED69
:103C30008F8381E090E09D838C83CE0107969B83E8
:103C40008A832E8033243982288221E008E70E946B
:103C5000921980E88E83AF8281E090E09D838C830F
:103C6000CE0107969B838A832E8033243982288253
:103C700021E008E70E9492192896A9900895AA9237
:103C8000A02E289780E88E8388EA8F8381E090E0D9
:103C90009D838C83CE0107969B838A832E80332459
:103CA0003982288221E008E70E94921980E88E83F9
:103CB000AF8281E090E09D838C83CE0107969B8349
:103CC0008A832E8033243982288221E008E70E94EB
:103CD00092192896A9900895AA92A02E289780E874
:103CE0008E8383ED8F8381E090E09D838C83CE0172
:103CF00007969B838A832E8033243982288221E091
:103D000008E70E94921980E88E83AF8281E090E0FC
:103D10009D838C83CE0107969B838A832E803324D8
:103D20003982288221E008E70E9492192896A990FA
:103D300008954A93402F289780E88E83842F8064CB
:103D40008F8381E090E09D838C83CE0107969B83D7
:103D50008A832E8033243982288221E008E70E945A
:103D600092192896499108954A93402F289780E800
:103D70008E838DE88F8381E090E09D838C83CE01DC
:103D800007969B838A832E8033243982288221E000
:103D900008E70E94921980E88E83842F80618F83C8
:103DA00081E090E09D838C83CE0107969B838A837C
:103DB0002E8033243982288221E008E70E9492195C
:103DC000289649910895AA92A02E289780E88E837C
:103DD00080E28F8381E090E09D838C83CE01079603
:103DE0009B838A832E8033243982288221E008E74E
:103DF0000E94921980E88E83AF8281E090E09D83DB
:103E00008C83CE0107969B838A832E80332439824C
:103E1000288221E008E70E9492192896A990089527
:103E20004A93402F289780E88E83842F806A8F835F
:103E300081E090E09D838C83CE0107969B838A83EB
:103E40002E8033243982288221E008E70E949219CB
:103E50002896499108954A93402F289780E88E83A9
:103E6000842F806C8F8381E090E09D838C83CE01D2
:103E700007969B838A832E8033243982288221E00F
:103E800008E70E9492192896499108954A93402F75
:103E9000289780E88E838AED8F8381E090E09D8370
:103EA0008C83CE0107969B838A832E8033243982AC
:103EB000288221E008E70E94921980E88E83842FEF
:103EC00082608F8381E090E09D838C83CE01079692
:103ED0009B838A832E8033243982288221E008E75D
:103EE0000E949219289649910895AA92A02E289787
:103EF00080E88E8381E88F8381E090E09D838C83CE
:103F0000CE0107969B838A832E80332439822882B0
:103F100021E008E70E94921980E88E83AF8281E059
:103F200090E09D838C83CE0107969B838A832E80AD
:103F300033243982288221E008E70E9492192896CA
:103F4000A9900895AA92A02E289780E88E8389EDE3
:103F50008F8381E090E09D838C83CE0107969B83C5
:103F60008A832E8033243982288221E008E70E9448
:103F7000921980E88E83AF8281E090E09D838C83EC
:103F8000CE0107969B838A832E8033243982288230
:103F900021E008E70E9492192896A9900895AA9214
:103FA000A02E289780E88E838BED8F8381E090E0B0
:103FB0009D838C83CE0107969B838A832E80332436
:103FC0003982288221E008E70E94921980E88E83D6
:103FD000AF8281E090E09D838C83CE0107969B8326
:103FE0008A832E8033243982288221E008E70E94C8
:103FF00092192896A99008954A93402F289780E80F
:104000008E83842F846A8F8381E090E09D838C83EC
:10401000CE0107969B838A832E803324398228829F
:1040200021E008E70E9492192896499108954A9341
:10403000402F289780E88E83842F866A8F8381E0C3
:1040400090E09D838C83CE0107969B838A832E808C
:1040500033243982288221E008E70E9492192896A9
:10406000499108954A93402F289780E88E83842FA2
:10407000806B8F8381E090E09D838C83CE010796D7
:104080009B838A832E8033243982288221E008E7AB
:104090000E949219289649910895AA92A02E2897D5
:1040A00080E88E8310E10A2D0E941B240F8381E09B
:1040B00090E09D838C83CE0107969B838A832E801C
:1040C00033243982288221E008E70E94921980E88F
:1040D0008E838A2D82958F70805F8F8381E090E040
:1040E0009D838C83CE0107969B838A832E80332405
:1040F0003982288221E008E70E9492192896A99027
:1041000008950E94DC230E945A24E22E2F97CC248B
:104110004E2D098C40194F5FAF8C0D8CA01880E498
:104120008E8361E009C0CE010696E62FFF27E80FD7
:10413000F91F09A00082639588E08617A0F738C0B0
:10414000098D0C0D8FDF0D8DA8DF66272EC02A2C60
:104150003324862F99270896281639068CF088E094
:1041600090E09D838C83CE0107969B838A832E806B
:1041700033243982288221E008E70E94921914C072
:10418000262E33244A2C5524421853085D824C8233
:10419000CE0107969B838A832E803324398228821E
:1041A00021E008E70E949219685F6A1580F2C394C3
:1041B000C41608F4C5CF2F960E944F242496089564
:1041C0000E94DC230E945A24622F2F974F8D0024D7
:1041D0000E86CC24E62EE694E694E694A42E5AC0ED
:1041E000098D0C0D3FDF0D8D58DF00240E864DC06C
:1041F0002A2C33248E85992708962816390614F020
:1042000068E003C06A2D0E846019442729C00BA002
:10421000002089F0CE010696E42FFF27E80FF91F52
:10422000A9A1BAA1FA93EA93FD012490E991F99129
:10423000209420820FC0CE010696E42FFF27E80FBE
:10424000F91FA9A1BAA1FA93EA93FD012490E9917B
:10425000F991208289A19AA101969AA389A34395F5
:104260004617A8F2262E33243D822C82CE010696D4
:104270009B838A8380E490E09983888321E008E728
:104280000E9492198E85885F8E870E840A1408F426
:10429000AFCFC394CE1408F4A3CF2F960E944F241F
:1042A000249608953A932A930E945A24C02E279761
:1042B000EB88AD8842E050E060E170E00E2D112700
:1042C0009A010E9433249B010E94332478018CE0E0
:1042D00092E0E80EF91EAE82FD82EC826A83C8820B
:1042E0009A01220F331F220F331F220F331F098918
:1042F00067DF27960E944F24229608953A932A93C7
:104300000E945A24C02E2B974F89AB8C0024112475
:1043100018860F82442309F058C082E090E09A8703
:104320008987BB24AA2011F4BB2051F0C50181303C
:10433000E0E09E0771F08230E0E09E0799F01FC038
:1043400066E070E081E293E07C018CE093E05C0148
:104350002DC068E070E08DE099E07C0185EE98E08A
:104360005C0124C084E090E09A87898760E170E076
:1043700085E294E07C0181E194E05C0117C068E093
:1043800070E08DE099E07C0185EE98E05C010EC064
:10439000F5012490098C021409F40CC0C5010196A2
:1043A0005C018F819885019698878F83F501249011
:1043B000222071F79B010F8118850E9433242985E3
:1043C0003A850E943324E00EF11E0D8C0E82FD8290
:1043D000EC826A83C88229853A85220F331F220F17
:1043E000331F220F331F0D89EBDE2B960E944F24C3
:1043F000229608953A932A930E945A246801279797
:10440000AD88EF88B601442724C0EE82AC82FB0160
:1044100024902A82222428822B890989040F6EDFA6
:10442000CA2CDD24CC2011F4DD2051F0C6018130EE
:10443000E0E09E0739F08230E0E09E0729F006C0F8
:104440004A5F05C0485F03C0405F01C0485F6F5FBF
:104450007F4FFB0124902220C1F627960E944F2413
:10446000229608953A932A930E945A246801279726
:10447000AD88EF88B601442724C0EE82AC82FB01F0
:1044800020802A82222428822B890989040F36DF82
:10449000CA2CDD24CC2011F4DD2051F0C60181307E
:1044A000E0E09E0739F08230E0E09E0729F006C088
:1044B0004A5F05C0485F03C0405F01C0485F6F5F4F
:1044C0007F4FFB0120802220C1F627960E944F24B7
:1044D000229608952597399A4198419A002787DBBB
:1044E00000E8A0DB0FE3CBDB0027F6DB002721DCB5
:1044F00004E03ADC02E067DC01E092DC08E0ABDCDF
:1045000000E1C4DC0FECF1DC01EF1CDD00E447DD71
:10451000002772DD00278BDD22242C8280E88A832D
:10452000288227E00027EDDD01E061DB2596089574
:10453000559A5D9A089501C05D98FECF0895222492
:1045400024BC25BC85B5846085BD85B5816085BDED
:1045500081EB86BD20926E0080916E008160809319
:104560006E002092960208958A938FB78A9381EB0A
:1045700086BD81E08093960289918FBF89911895BD
:104580002897539A549A529A5A9A81E08E832224F9
:104590002F8299279D838C83CE0107969B838A83E4
:1045A0002E8033243982288221E000EC0E94921967
:1045B00082E08E8320906002222019F480EC8F83A9
:1045C00002C081EC8F8381E090E09D838C83CE01DB
:1045D00007969B838A832E8033243982288221E0A8
:1045E00000EC0E94921981E08E8380EC8F8381E041
:1045F00090E09D838C83CE0107969B838A832E80D7
:1046000033243982288221E000EC0E9492192896F6
:104610000895289782E08E8380EC8F8381E090E07C
:104620009D838C83CE0107969B838A832E803324BF
:104630003982288221E000EC0E94921902E30E9454
:10464000471D81E08E8322242F8299279D838C83AE
:10465000CE0107969B838A832E8033243982288259
:1046600021E000EC0E94921902E30E94471D5A9833
:1046700028960895AA92A02E289782E08E83AF8272
:10468000AA2011F480EC8F8381E090E09D838C83DD
:10469000CE0107969B838A832E8033243982288219
:1046A00021E000EC0E9492192896A99008954A935F
:1046B0005A93402F55274030450769F04130E0E0DC
:1046C0005E0761F04230E0E05E0759F04330E0E021
:1046D0005E0751F00CC05B985C980BC05B985C9ACD
:1046E00008C05B9A5C9805C05B9A5C9A02C05B98B4
:1046F0005C9859914991089522242092C0002092FB
:10470000C1008091C10088608093C1002092C200E6
:104710008091C20084608093C2008091C200826058
:104720008093C2002092C50083E38093C400089563
:104730002090C00025FEFCCF0093C6000895269867
:1047400008954A931E9B02C041E001C04427209077
:104750004C024215A9F000270E943A2384E690E01B
:1047600090935202809351022224332430925402B7
:1047700020925302242F05E00E94381840934C02E7
:1047800049910895A02FB12FE22FF32F88819981AD
:104790008030980703C001900D920197E1F70895CA
:1047A000E02FF12FAA27BB270190002011F01196CE
:1047B000FBCF0A2F1B2F08953A932A931A930A933B
:1047C00008956894DA92D12E04C0E894DA92D12E3A
:1047D000D32617FF04C0109500950F5F1F4F37FFBA
:1047E00004C0309520952F5F3F4F0E940224D7FED2
:1047F00004C0109500950F5F1F4FD99008956894DD
:1048000001C0E894EA92FA928A93EE24FF2480E1B0
:10481000000F111FEE1CFF1CE216F30618F0E21A3F
:10482000F30A03958A95A1F716F40E2D1F2D899191
:10483000F990E9900895689401C0E8942A93FA9257
:10484000EA92FF24EE2420E1000FFF1CEE1CE1168B
:1048500010F0E11A03952A95B9F70EF40E2DE990A0
:10486000F990299108950A921A928A939A93029F35
:10487000C001129F900D039F900D8C019991899119
:10488000199009900895A990B990C990D990089568
:10489000A990B990C990D990E990F9900895A990FC
:1048A000B990C990D990E990F9904991599169913D
:1048B000799108957A936A935A934A93FA92EA9275
:1048C000DA92CA92BA92AA9208955A934A93BA92E5
:1048D000AA920895A990B9904991599108957A930F
:1048E0006A935A934A93089549915991699179919C
:1048F00008957A936A935A934A93BA92AA92089522
:10490000A990B990499159916991799108955A93D3
:104910004A93DA92CA92BA92AA920895A990B9904B
:10492000C990D9904991599108957A936A935A936D
:104930004A93DA92CA92BA92AA920895A990B9902B
:10494000C990D990499159916991799108950A92A4
:10495000C8950A923196C895F02DE991099009946D
:10496000222321F0169507952A95FACF0895AA9348
:10497000BA93EA93FA930A92AF81B885ED81FE81EA
:104980000030010731F0C8950D923196015010406A
:10499000F7CF0990F991E991B991A99124960895D9
:1049A000F999FECF12BD01BDF89A00B50895AA92FB
:1049B000F999FECF12BD01BD20BDAFB6F894FA9AA9
:1049C000F99AAFBE00271127A99008950E94952457
:1049D000C22ED32E602F712FA884B9844C2D5D2D4B
:1049E0000BC0062F172F0E94D024E42FF52F008331
:1049F0006F5F7F4F4F5F5F4F2A2C3B2C822D932D93
:104A00000197A82EB92E222061F7332051F70C947C
:104A10009E240E949524C22ED32E602F712FA8842D
:104A2000B9844C2D5D2D0BC0E42FF52F2081062F6E
:104A3000172F0E94D7246F5F7F4F4F5F5F4F2A2C45
:104A40003B2C822D932D0197A82EB92E222061F7A1
:104A5000332051F70C949E240E945A24622F732F06
:104A6000402F512FA62EB72EAA2059F4BB2049F46F
:104A700080E3E42FF52F8083222421820E2F1F2F25
:104A80006CC06030E0E07E0784F48A859B858A30C4
:104A9000E0E09E0751F4CC24C3948A2D9B2D809591
:104AA00090950196A82EB92E01C0CC24642F752FA5
:104AB0002A853B850A2D1B2D0E94FF23E02EF12E17
:104AC00089E090E0801791074CF08E2D9F2DC096C5
:104AD000E62FF72F81936E2F7F2F09C08E2D9F2DEC
:104AE000895A9F4FE62FF72F81936E2F7F2F2A85AC
:104AF0003B850A2D1B2D0E940124A02EB12EAA2039
:104B0000B9F6BB20A9F6CC2031F08DE2E62FF72FC5
:104B100081936E2F7F2F462E572E61507040222496
:104B2000E42DF52D2082A42EB52E12C0EA2DFB2DEA
:104B3000C080E62FF72F2080EA2DFB2D2192AE2E8C
:104B4000BF2E262E372E61507040E22DF32DC082ED
:104B5000A616B70658F3042F152F0C944F240E9465
:104B60005A24C22ED32EA02EB12EEA84FB844A2DC5
:104B70005B2D2E2D3F2D0C2D1D2D0E94FF23602F10
:104B8000712F89E090E0801791074CF0862F972FC6
:104B9000C096E42FF52F81934E2F5F2F09C0862FEB
:104BA000972F895A9F4FE42FF52F81934E2F5F2F18
:104BB0002E2D3F2D0C2D1D2D0E940124C02ED12EF7
:104BC000CC20B9F6DD20A9F6442E552E4150504098
:104BD0002224E42DF52D2082CA2CDB2C12C0EC2DD2
:104BE000FD2DE080E42FF52F2080EC2DFD2D21926E
:104BF000CE2EDF2E242E352E41505040E22DF32DA7
:104C0000E082C416D50658F30A2D1B2D0C944F24B0
:104C10008EE79BE0202E312E280E391EE22DF32D3B
:104C2000C895002D11270270107008954A935A9369
:104C3000402F512F042F152F0E9408260030010706
:104C400039F0042F152F015610400F5B1F4F02C083
:104C5000042F152F5991499108950E94DC230E9439
:104C60005A2424976A897B89442755275FC1E8899C
:104C7000F9898081853241F00081EE85FF850E94AF
:104C8000A7244F5F5F4F4DC187E992E0A82EB92E50
:104C900080E2C82E888999890196998B888BE82FA4
:104CA000F92FE080FF248E2D9F2D8835E0E09E07B0
:104CB00009F46CC088E58E159F05A4F08E2D9F2DFC
:104CC0008534E0E09E0709F427C18534E0E09E07C3
:104CD0000CF440C08E2D9F2D8335E0E09E0709F433
:104CE000C5C038C08E2D9F2D8336E0E09E0709F4A5
:104CF000ADC08436E0E09E0709F436C08536E0E0BA
:104D00009E0709F409C18636E0E09E0709F404C154
:104D10008936E0E09E0741F18F36E0E09E0709F416
:104D200035C08037E0E09E0709F430C08336E0E00C
:104D30009E0784F08E2D9F2D8337E0E09E0709F4B7
:104D4000BCC08537E0E09E0709F18837E0E09E07A8
:104D5000E9F000C0E889F9890081EE85FF850E94AD
:104D6000A7244F5F5F4FDDC06E5F7F4FE62FF72FA9
:104D70003297E080F1808AE090E0998388832E2D3D
:104D80003F2D0A2D1B2D0E942C255BC06E5F7F4F8F
:104D9000E62FF72F3297E080F180E889F98980814A
:104DA000853759F48AE090E0998388832E2D3F2D32
:104DB0000A2D1B2D0E94AF2544C0E889F989808106
:104DC0008F3659F488E090E0998388832E2D3F2D0B
:104DD0000A2D1B2D0E94AF2534C0E889F9898081F6
:104DE000803741F480E3EA2DFB2D819388E781939E
:104DF000AE2EBF2E80E190E0998388832E2D3F2D2B
:104E00000A2D1B2D0E94AF25E889F98980818835FC
:104E1000C1F487E992E0A82EB92E0EC0EA2DFB2D31
:104E2000008111270E941626EA2DFB2D00838A2D72
:104E30009B2D0196A82EB92EEA2DFB2D2080222035
:104E400069F787E992E0A82EB92E47C06E5F7F4FC1
:104E5000E62FF72F3297208031802A82022DEE85AF
:104E6000FF850E94A7244F5F5F4F5BC06E5F7F4F3F
:104E7000E62FF72F3297E080F1808C2D8D32B9F438
:104E80000DE2EE85FF850E94A7244F5F5F4F0FC0A4
:104E9000EE2DFF2DC895002DEE85FF850E94A724DD
:104EA0004F5F5F4F8E2D9F2D0196E82EF92EEE2D30
:104EB000FF2DC895002061F734C06E5F7F4FE62F4D
:104EC000F72F3297A080B180AA2039F4BB2029F4B3
:104ED0008EE79CE0E82EF92ED0CF8C2D8D32B1F4E8
:104EE0000DE2EE85FF850E94A7244F5F5F4F0EC045
:104EF000EA2DFB2D0081EE85FF850E94A7244F5FE0
:104F00005F4F8A2D9B2D0196A82EB92EEA2DFB2DE1
:104F10002080222069F705C080E99CE0E82EF92E68
:104F2000ACCF888999890196998B888BE889F98912
:104F30002080222009F09BCE042F152F24960E945A
:104F40004F2424960895E091B002F091B1020193AC
:104F5000F093B102E093B00208950E94DC23AA927C
:104F6000BA9222972C803D803092B1022092B002FA
:104F70008C2F9D2F0896A82EB92EB982A8822E813B
:104F80003F8106EE10E00E942D262224E091B0021F
:104F9000F091B10220822C803D800091B0021091EE
:104FA000B102021913092296B990A9902496089586
:104FB000FFFFFFFFFFFFFFFFFFFFFFFFFFFFFFFF01
:104FC000FFFFFFFFFFFFFFFFFFFFFFFFFFFFFFFFF1
:104FD000FFFFFFFFFFFFFFFFFFFFFFFFFFFFFFFFE1
:104FE000FFFFFFFFFFFFFFFFFFFFFFFFFFFFFFFFD1
:108000000200130000002C013C01FFFFFFFFFFFFF7
:10801000FFFFFFFFFFFFFFFFFFFFFFFFFFFFFFFF70
:10802000FFFFFFFFFFFFFFFFFFFFFFFFFFFFFFFF60
:10803000FFFFFFFFFFFFFFFFFFFFFFFFFFFFFFFF50
:10804000FFFFFFFFFFFFFFFFFFFFFFFFFFFFFFFF40
:00000001FF
