:100000000C94A50A0C94E90A0C94040B0C94E90ACC
:100010000C94E90A0C94E90A0C94E90A0C94E90A94
:100020000C94E90A0C94E90A0C9481270C94E90ACF
:100030000C94E90A0C94E90A0C94E90A0C94E90A74
:100040000C94E90A0C94E90A0C94E90A0C94E90A64
:100050000C94E90A0000000000000000000000000D
:100060000000000000000000000000000000000090
:100070000000000000000000000000000000000080
:1000800000000000000000000000000000008040B0
:10009000402020202010101010100808040404082C
:1000A0003040800000000000000000000000000060
:1000B0000000000000000000000000000000000040
:1000C0000000000000000000000000000000000030
:1000D00000808080000000000000000000000000A0
:1000E0000000000000000000000000000000000010
:1000F0000000000000000000000000000000000000
:1001000000000000001864820202020202010000E6
:10011000000080800000000000000000008000302F
:100120003000C0C1C1C2040810204080000000801F
:100130008080804040404020202020101010100877
:100140000808080804040404040202020201010170
:10015000010000000000000000000000000000009E
:10016000000000000000000000000000000000008F
:10017000000000000000000000000000000000007F
:1001800000000000C0380403000000000000000C64
:100190000C0C0D010040A0212212111111090808B8
:1001A0000808040408081010101010110F010100B5
:1001B000000000000000000000000000000000003F
:1001C000000000000000000000000000000000002F
:1001D000000000000000000000000000000000001F
:1001E000000000000080808080804040404040202F
:1001F00020202020101010101008080808080404FF
:1002000004040402030202010101010101020204CB
:1002100004080808080807000000000000000000AB
:1002200000000000000000000000000000000000CE
:1002300000000000000000000000000000000000BE
:1002400000000000000000000000000000000000AE
:10025000000000000000000000000000000000009E
:10026000000000000000000000000000000000008E
:10027000000000000000000000000000000000007E
:1002800000000000000000000000000000008040AE
:10029000402020202010101010100808040404082A
:1002A000304080000000000000000000000000005E
:1002B000000000000000000000000000000000003E
:1002C000000000000000000000000000000000002E
:1002D000008080800000000000000000000000009E
:1002E000000000000000000000000000000000000E
:1002F00000000000000000000000000000000000FE
:1003000000000000001864820202020202010000E4
:10031000000080800000000000000000008000302D
:100320003000C0C1C1C2040810204080000000801D
:100330008080804040404020202020101010100875
:10034000080808080404040404020202020101016E
:10035000010000000000000000000000000000009C
:10036000000000000000000000000000000000008D
:10037000000000000000000000000000000000007D
:1003800000000000C0380403000000000000000C62
:100390000C0C0D010040A0212212111111090808B6
:1003A0000808040408081010101010110F010100B3
:1003B000000000000000000000000000000000003D
:1003C000000000000000000000000000000000002D
:1003D000000000000000000000000000000000001D
:1003E000000000000080808080804040404040202D
:1003F00020202020101010101008080808080404FD
:1004000004040402030202010101010101020204C9
:1004100004080808080807000000000000000000A9
:1004200000000000000000000000000000000000CC
:1004300000000000000000000000000000000000BC
:1004400000000000000000000000000000000000AC
:10045000000000000000000000000000000000009C
:10046000000000000000000000000000000000008C
:10047000000000000000000000000000000000007C
:1004800000000000000000000000000000000080EC
:100490008040404040202020201008040202041820
:1004A000608000000000000000000000000000006C
:1004B000000000000000000000000000000000003C
:1004C000000000000000000000000000000000002C
:1004D000008080800000000000000000000000009C
:1004E000000000000000000000000000000000000C
:1004F00000000000000000000000000000000000FC
:1005000000000000003CC2010102020404020100DC
:10051000000000000000000000000000000000607B
:1005200060008182828408102040800000000080EA
:100530008080804040404020202020101010100873
:10054000080808080404040404020202020101016C
:10055000010000000000000000000000000000009A
:10056000000000000000000000000000000000008B
:10057000000000000000000000000000000000007B
:100580000000000080701906000000000000001844
:1005900018181B030040A02224141212120B080882
:1005A0000808050509091010101010110F010100AD
:1005B000000000000000000000000000000000003B
:1005C000000000000000000000000000000000002B
:1005D000000000000000000000000000000000001B
:1005E000000000000080808080804040404040202B
:1005F00020202020101010101008080808080404FB
:1006000004040402030202010101010101020204C7
:1006100004080808080807000000000000000000A7
:1006200000000000000000000000000000000000CA
:1006300000000000000000000000000000000000BA
:1006400000000000000000000000000000000000AA
:10065000000000000000000000000000000000009A
:10066000000000000000000000000000000000008A
:10067000000000000000000000000000000000007A
:1006800000000000000000808000000000008040AA
:100690004020202020101010100804020101020C3C
:1006A000304080000000000000000000000000005A
:1006B000000000000000000000000000000000003A
:1006C000000000000000000000000000000000002A
:1006D000008080800000000000000000000000009A
:1006E000000000000000000000000000000000000A
:1006F00000000000000000000000000000000000FA
:1007000000000000001EE1000001010202010000E3
:100710000000808000000000000000000080003029
:100720003000C0C1C1C20408102040800000008019
:100730008080804040404020202020101010100871
:10074000080808080404040404020202020101016A
:100750000100000000000000000000000000000098
:100760000000000000000000000000000000000089
:100770000000000000000000000000000000000079
:100780000000000080700C03000000000000000C5E
:100790000C0C0D010040A0212212111111090808B2
:1007A0000808040408081010101010110F010100AF
:1007B0000000000000000000000000000000000039
:1007C0000000000000000000000000000000000029
:1007D0000000000000000000000000000000000019
:1007E0000000000000808080808040404040402029
:1007F00020202020101010101008080808080404F9
:1008000004040402030202010101010101020204C5
:1008100004080808080807000000000000000000A5
:1008200000000000000000000000000000000000C8
:1008300000000000000000000000000000000000B8
:1008400000000000000000000000000000000000A8
:100850000000000000000000000000000000000098
:100860000000000000000000000000000000000088
:100870000000000000000000000000000000000078
:1008800000000000000000000000000000008040A8
:10089000402020202010101010080804020202043A
:1008A0003840800000000000000000000000000050
:1008B0000000000000000000000000000000000038
:1008C0000000000000000000000000000000000028
:1008D0000080808000000000000000000000000098
:1008E0000000000000000000000000000000000008
:1008F00000000000000000000000000000000000F8
:1009000000000000001CE2010102020202010000DE
:100910000000808000000000000000000080003027
:100920003000C0C1C1C20408102040800000008017
:10093000808080404040402020202010101010086F
:100940000808080804040404040202020201010168
:100950000100000000000000000000000000000096
:100960000000000000000000000000000000000087
:100970000000000000000000000000000000000077
:100980000000000080700C03000000000000000C5C
:100990000C0C0D010040A0212212111111090808B0
:1009A0000808040408081010101010110F010100AD
:1009B0000000000000000000000000000000000037
:1009C0000000000000000000000000000000000027
:1009D0000000000000000000000000000000000017
:1009E0000000000000808080808040404040402027
:1009F00020202020101010101008080808080404F7
:100A000004040402030202010101010101020204C3
:100A100004080808080807000000000000000000A3
:100A200000000000000000000000000000000000C6
:100A300000000000000000000000000000000000B6
:100A400000000000000000000000000000000000A6
:100A50000000000000000000000000000000000096
:100A60000000000000000000000000000000000086
:100A70000000000000000000000000000000000076
:100A800000000000000000808000000000008040A6
:100A90004020202020101010100804020101020C38
:100AA0003040800000000000000000000000000056
:100AB0000000000000000000000000000000000036
:100AC0000000000000000000000000000000000026
:100AD0000080808000000000000000000000000096
:100AE0000000000000000000000000000000000006
:100AF00000000000000000000000000000000000F6
:100B000000000000001EE10000010102028180805F
:100B10000000808000000000000000000080003025
:100B200030000001E11A06093135018A7C0000809D
:100B3000808080404040402020202010101010086D
:100B40000808080804040404040202020201010166
:100B50000100000000000000000000000000000094
:100B60000000000000000000000000000000000085
:100B70000000000000000000000000000000000075
:100B80000000000080700C0300001806059899848E
:100B9000C37C414140402021221211111109080853
:100BA0000808040404040404020202010101010013
:100BB0000000000000000000000000000000000035
:100BC0000000000000000000000000000000000025
:100BD0000000000000000000000000000000000015
:100BE0000000000000808080808040404040402025
:100BF00020202020101010101008080808080404F5
:100C000004040402030202010101010101000000C9
:100C100000000000000000000000000000000000D4
:100C200000000000000000000000000000000000C4
:100C300000000000000000000000000000000000B4
:100C400000000000000000000000000000000000A4
:100C50000000000000000000000000000000000094
:100C60000000000000000000000000000000000084
:100C70000000000000000000000000000000000074
:100C800000000000000000808000000000008040A4
:100C90004020202020101010100804020101020C36
:100CA00030408000000000000000F8F8F8F8000074
:100CB0000000008080000000000000000000000034
:100CC0000000000000000000000000000000000024
:100CD0000080808000000000000000000000000094
:100CE0000000000000000000000000000000000004
:100CF00000000000000000000000000000000000F4
:100D000000000000001EE10000010102028180805D
:100D10000000808000000000000000000080003023
:100D2000300000010102040810204387070100B8C9
:100D3000BCBE9F5F5F4F4C20202020101010100879
:100D40000808080804040404040202020201010164
:100D50000100000000000000000000000000000092
:100D60000000000000000000000000000000000083
:100D70000000000000000000000000000000000073
:100D80000000000080700C0300001806059899848C
:100D9000437C4141404020212212111111090808D1
:100DA0000808040408081010101010110F013D7CF1
:100DB000FCFCFCFCFC3C0C000000000000000000FF
:100DC0000000000000000000000000000000000023
:100DD0000000000000000000000000000000000013
:100DE0000000000000808080808040404040402023
:100DF00020202020101010101008080808080404F3
:100E000004040402030202010101010101000000C7
:100E100000000000000000000000000000000000D2
:100E200000000000000000000000000000000000C2
:100E300000010303000000000000000000000000AB
:100E400000000000000000000000000000000000A2
:100E50000000000000000000000000000000000092
:100E60000000000000000000000000000000000082
:100E70000000000000000000000000000000000072
:100E800000000000000000808000000000008040A2
:100E90004020202020101010100804020101020C34
:100EA0003040800000000000000000000000000052
:100EB0000000000000000000000000000000000032
:100EC0000000000000000000000000000000000022
:100ED0000080808000000000000000000000000092
:100EE0000000000000000000000000000000000002
:100EF00000000000000000000000000000000000F2
:100F000000000000001EE1000001010202010000DB
:100F10000000808000000000000000000080003021
:100F200030000001E11A06093135018A7C00008099
:100F30008080804040404020202020101010100869
:100F40000808080804040404040202020201010162
:100F50000100000000000000000000000000000090
:100F60000000000000000000000000000000000081
:100F70000000000000000000000000000000000071
:100F80000000000080700C03000000000000000062
:100F9000000001010040A0212212111111090808CE
:100FA000080804040404040402020201010101000F
:100FB0000000000000000000000000000000000031
:100FC0000000000000000000000000000000000021
:100FD0000000000000000000000000000000000011
:100FE0000000000000808080808040404040402021
:100FF00020202020101010101008080808080404F1
:1010000004040402037A7A79797979393102020485
:10101000040808088888878000000000000000009D
:1010200000000000000000000000000000000000C0
:1010300000000000000000000000000000000000B0
:1010400000000000000000000000000000000000A0
:1010500000000000165C3A003B003C003D003E00F2
:101060003F004000410042004300440045000000B2
:101070004600A80035001E001F00200021002200AD
:10108000230024002500260027002D002E0000004C
:101090002A0049002B0014001A0008001500170050
:1010A0001C0018000C00120013002F00300000007C
:1010B00031004C00390004001600070009000A0046
:1010C0000B000D000E000F00330034000000000084
:1010D00028004B00E10000001D001B000600190065
:1010E000050011001000360037003800E500000050
:1010F00052004E00E000E300E200000000000000AB
:101100002C00000000000000E6000151500000002B
:1011100051004F0001000100010001000100010029
:1011200001000100010001000100010001000000B8
:1011300001000100010001000100010001000100A7
:101140000100010001000100010001000100000098
:10115000010001000100010001000100005C01002C
:101160000100010001000100010001000100000078
:10117000010001003900010001000100010001002F
:101180000100010001000100010001000000000059
:101190000100010001000000010001000100010048
:1011A0000100010001000100010001000100000038
:1011B000010001000100010001000000000000002A
:1011C0000100000000000000E600015101000000E5
:1011D0000100010001000100010001000100010007
:1011E00001000100010001000100010001000000F8
:1011F00001000100010001000100010001000100E7
:1012000001000100010001000100010001000000D7
:10121000010001000100010001000100005C01006B
:1012200001000100010001000100010001000000B7
:10123000010001003900010001000100010001006E
:101240000100010001000100010001000000000098
:101250000100010001000000010001000100010087
:101260000100010001000100010001000100000077
:101270000100010001000100010000000000000069
:101280000100000000000000E60001510100000024
:101290000100010001000100010001000100010046
:1012A0000100010001000100010001000100000037
:1012B0000100010001000100010001000100010026
:1012C0000100010001000100010001000100000017
:1012D000010001000100010001000100005C0100AB
:1012E00001000100010001000100010001000000F7
:1012F00001000100390001000100010001000100AE
:1013000001000100010001000100010000000000D7
:1013100001000100010000000100010001000100C6
:1013200001000100010001000100010001000000B6
:1013300001000100010001000100000000000000A8
:101340000100000000000000E60001510100000063
:101350000100010000000000000000002A2B28000E
:101360000000000000000000000000000000002954
:10137000000000002C1E3420212224342627252E94
:10138000362D3738271E1F202122232425263333CC
:10139000362E37381F0405060708090A0B0C0D0EF8
:1013A0000F101112131415161718191A1B1C1D2FC4
:1013B0003130232D350405060708090A0B0C0D0EE4
:1013C0000F101112131415161718191A1B1C1D2FA4
:1013D0003130354C0000000000000000000000002B
:1013E00000000000000000000000000000000000FD
:1013F00000000000000000007E0F00D4FFFFFFC7C8
:101400000000007800AE00AF00DA0281FFD9F1DB06
:1014100020A4A62EAF00A0C000A1C800AED580A811
:101420001FD300408D14200009025B00030100A0BF
:10143000FA09040000010301010009210101000172
:10144000224000070581030800010904010002038E
:101450000000000921010100012222000705840388
:101460000800010705040308000109040200010344
:101470000000000921010100012232000705830359
:101480000800011201100100000008567863610293
:1014900000010200010C036C0063006B0037003593
:1014A0000000000C034C00790073006F0031000055
:1014B00000040309040660FF0961A1010962150027
:1014C00026FF009520750881020963150026FF009C
:1014D000952075089102C005010980A101850319B5
:1014E000012AB700150126B700950175108100C0CB
:1014F000050C0901A101850419012AA00215012684
:10150000A002950175108100C005010906A1010521
:101510000719E029E7150025019508750181029555
:1015200001750881030507190029FF150026FF0032
:1015300095067508810005081901290595057501AD
:101540009102950175039103C00011241FBECFE5E0
:10155000D8E0DEBFCDBF04B603FE24C080910605EF
:1015600090910705A0910805B09109058730904B2F
:10157000A740B04BB9F410920605109207051092DF
:1015800008051092090514BE84B7877F84BF0FB683
:10159000F894A89581B5886181BD11BC0FBEE0E0CB
:1015A000F8E3099511E0A0E6B0E0EEE1FCE502C049
:1015B00005900D92A830B107D9F725E0A8E0B1E079
:1015C00001C01D92A630B207E1F70E94301C0C94B6
:1015D000DC2D0C940000A82FB92F80E090E041E0B2
:1015E00050EA609530E009C02D9182279795879544
:1015F00010F084279527305EC8F36F5FA8F3089535
:10160000EADF8D939D930895CF93CFB7CF93DF9368
:10161000C395839BE9F7839B10C0839B0EC0839B7C
:101620000CC0839B0AC0839B08C0839B06C0C091EB
:10163000DD04C395C093DD048EC06F93C091DC04BC
:10164000DD27CC51DB4F2F9365E5839B03C02F91A2
:101650006F91E1CF0F931F934F9320E040E15F9391
:1016600000B30C7003FB27F93F9350E03BE039C017
:101670001C7040642F77012F5F5F1EC0406810B35D
:101680001C702F7752501FC0406400B32F770C702E
:10169000D1F15F5F00C023C0406210B32F771C7090
:1016A00091F15F5F00C025C00C701027515012F4FB
:1016B0005D5F0000115027952C3F10B3C8F61C70D9
:1016C0000127015027952C3FC8F64227499300B3C4
:1016D0000C7010274F73115027952C3FA8F6469594
:1016E000469510B31C7079F00127015027952C3FC7
:1016F00098F66B5A60F3315000B3B0F600C010E8B2
:101700001ABF00271CC03B503195C31BD04010E8C6
:101710001ABF0881033C21F10B3411F12091D90447
:101720001981110F1213EDCF4A81441F093679F147
:101730000D3211F0013E29F74F7009F0042F00938C
:10174000E2043F915F914F911F910F912F916F9103
:10175000CAB7C7FD5DCFDF91CF91CFBFCF911895AD
:101760002091E204222369F31091E004112309F08F
:1017700049C034300AF448C03093E0042093DB04BD
:101780001091DC043BE0311B3093DC043DC0009140
:10179000E0040130BCF50AE54F7049F43091740063
:1017A00034FD33C000937400C6EBD4E032C0433044
:1017B00059F0443091F03091C10434FD26C00093BB
:1017C000C104C2ECD4E025C03091FA0434FD1DC040
:1017D0000093FA04CBEFD4E01CC03091CD0434FD6B
:1017E00014C00093CD04CEECD4E013C0052710E064
:1017F00000C0000002BB1AC0052710E0221F1DC058
:1018000010E021C04AE502C032ED432FC4E1D0E030
:1018100032E011B31C60939A02B311BB5CE020E884
:1018200065E320FF052702BB279517951C3FF0F6BF
:101830006695B8F7B1F720FF052702BB27951795E6
:101840001C3FD0F62795179517FF052700001C3F72
:1018500002BBB0F629913A9519F7037F1091E10484
:10186000110FC651D04002BB11F01093D90410E8FB
:101870001ABF086011B3137F402F437F54E05A957D
:10188000F1F702BB11BB42BB5CCF0E943B1C8F3106
:10189000C8F480910A0190E0019665E070E00E9432
:1018A0002C2D80930A0124E030E0A901481B590B3C
:1018B000CA01982F8827990F60E072E08C5A9F4FD9
:1018C0000E94D6200E943B1C8F3150F00E943B1C8E
:1018D000883230F460E072E084E59AE00E94D6201D
:1018E0000E943B1C8832B0F020910B0130E02F5F4A
:1018F0003F4F2170332720930B0181E090E0821B42
:10190000930B982F8827990F60E072E08C5A934FC1
:101910000C94D62008951F93CF93DF93182FD62FC2
:101920000E94031DC82F882341F0111106C0DD233A
:1019300049F089EA0E940110CD2F8C2FDF91CF91C1
:101940001F9108958AEA0E940110F7CF82E008955E
:101950000E943B1C882341F10E94162160911001D6
:101960007091110180911201909113010E946527DD
:10197000693C71058105910560F00E944A276093DA
:1019800010017093110180931201909313010E9432
:10199000450C0E944A2760930C0170930D018093BF
:1019A0000E0190930F01089560910C0170910D014B
:1019B00080910E0190910F010E946527613177425D
:1019C0008105910510F00C94322260911001709104
:1019D000110180911201909113010E946527693CC9
:1019E00071058105910560F00E944A2760931001FE
:1019F0007093110180931201909313010E94450C82
:101A000008959C013A9521153F4150F5FC01EE27C0
:101A1000F170BC0166277270AC01442754709C01C0
:101A20002227387094FF0EC080E1EF2B09F480E08C
:101A3000672B09F08062452B09F08064232B89F025
:101A40008068089581E0EF2B09F480E0672B09F0AE
:101A50008260452B09F08460232B19F0886008957B
:101A600080E00895CF93DF93EC010E94010D9E0169
:101A7000205E31092830310510F0209739F40E949A
:101A800009108C2FDF91CF910C947C0F0E94A9112B
:101A9000F8CFCF93DF93EC010E94C20FCE010E94DA
:101AA000010D9E01205E31092830310510F0CD2B4B
:101AB00021F4DF91CF910C941010DF91CF910C9411
:101AC000B011CF93DF93EC010E94320DCE01DF9174
:101AD000CF910C94490D81E0089581E008950C9414
:101AE0006D0D08950C94710D1F93CF93DF9300D06B
:101AF00000D00F92CDB7DEB749835A836B83309104
:101B0000140189819A8131111DC06623B9F0222305
:101B1000A9F00E94C712182F682F89819A810E940C
:101B2000741269817A81812F0F900F900F900F901E
:101B30000F90DF91CF911F910C946B1F0E94A01208
:101B4000182FEFCF0E94C71269817A81EDCFFC0177
:101B5000262F408151816281738184810C94740DA0
:101B600081E00895CF93DF93EC0160E00E94A70D20
:101B7000BE01DF91CF910C94720DE1E0F0E0DF0146
:101B800002C0AA0FBB1F6A95E2F7BD01DF0102C0C8
:101B9000AA0FBB1F4A95E2F76A2B01C0EE0F2A95E8
:101BA000EAF7962F9823961302C08E2B0895E0959E
:101BB0008E230895242F462F682F809139010E948B
:101BC000BD0D0C9431120E94BC1A0E94300F0E946D
:101BD0008E220C94D71A0E94C11C0C94DA1A089514
:101BE0000E94C9110E94EF0D2FEF84E39CE0215069
:101BF00080409040E1F700C000000C94A5270F93AF
:101C00001F93CF93DF93EC0161E00E94A70D8C013D
:101C10008A81882319F0C8010E94671CBE01C8018F
:101C20000E94B21D882389F1BE01C8010E946F0D78
:101C3000882359F1BE01C8010E943C23882329F161
:101C4000BE01C8010E94DB238823F9F0BE01C80150
:101C50000E942D248823C9F0BE01C8010E9450258E
:101C6000882399F08A81882339F001158CE51807BB
:101C700051F00E3D1C4579F0CE01DF91CF911F91BF
:101C80000F910C946B0D0E94F00D80E0DF91CF91CD
:101C90001F910F9108950E94A717F7CFDF92EF923F
:101CA000FF920F931F93CF93DF93E82FF0E0EC5A4E
:101CB000FC4ED490282F26952695269530E0F901E4
:101CC000EC50FC4E0491877010E0082E02C0159570
:101CD00007950A94E2F701701127F901EC51FC4EC7
:101CE000E490F12C082E02C0F594E7940A94E2F7F0
:101CF00091E0E922FF24F901EC52FC4EC491D0E0BE
:101D000002C0D595C7958A95E2F7C170DD27011508
:101D1000110519F081EE0E947C0FE114F10419F015
:101D200086EE0E947C0F8D2D0E940110EF2819F085
:101D300086EE0E94C20F012B19F081EE0E94C20FA5
:101D4000CD2B51F08CE2DF91CF911F910F91FF903D
:101D5000EF90DF900C940110DF91CF911F910F91C4
:101D6000FF90EF90DF900895EF92FF920F931F93F3
:101D7000CF93DF93EC01162F0AE08881882309F4C2
:101D800054C0813009F04EC08981813099F47E01C0
:101D900022E0E20EF11C8A810E940110E7012196E7
:101DA000812F815050F3EFE9FFE03197F1F700C048
:101DB0000000F7CF823041F47E0182E0E80EF11C92
:101DC0008A810E947C0FEACF833041F47E01E2E0F9
:101DD000EE0EF11C8A810E94C20FE0CF843011F018
:101DE0002196DDCF2A81229690E080E0AE014F5F00
:101DF0005F4F2053330B2A30310548F0019778F2BA
:101E0000EFE9FFE03197F1F700C00000F7CF089F3E
:101E1000B001099F700D1124C901860F971F2981F8
:101E2000EA01E4CF0E944E0EBACFDF91CF911F910D
:101E30000F91FF90EF90089560E00C94B40E982FEE
:101E40009F709A50963018F0805D0C944E0E895A0F
:101E5000FCCF08950C94290F81E008950C942C0F69
:101E60000895CF93C82F0E942A0F8C2FCF910C94E6
:101E70002E0FCF93DF93CDB7DEB72B970FB6F89425
:101E8000DEBF0FBECDBF4F83588769877A878B87A8
:101E900061110E94EA161E821D8285E0FE013796BE
:101EA000DE01119601900D928A95E1F78C819D815A
:101EB000892B89F449815A816B817C818D819E8136
:101EC0000E94FA152B960FB6F894DEBF0FBECDBF59
:101ED000DF91CF91089589819A8189238F3F51F3B2
:101EE000CE0101960E94B00D8111E4CFEBCFFC0131
:101EF000808191810C94F412CF93C82F882309F428
:101F00003FC08CEF8C0F813AA0F46C2F8091600061
:101F1000909161000E94C626882329F08C2F0E9490
:101F20009B160E94A8168C2F0E949416CF910C9499
:101F3000A81680E28C0F883048F4C77081E001C099
:101F4000880FCA95EAF70E94CA16F0CFEBE5EC0FAE
:101F5000E33040F4F0E0ED55FF4F808190E0CF9109
:101F60000C949A26C85AC73158F4EC2FF0E0EE0FC3
:101F7000FF1FEB58FF4F80819181CF910C94B026C9
:101F8000CF910895882329F19CEF980F913A20F47E
:101F90000E949B160C94A81690E2980F983050F46B
:101FA000877091E001C0990F8A95EAF7892F0E9406
:101FB000D016F0CF9BE5980F933020F490E080E0AE
:101FC0000C949A26885A873120F490E080E00C9493
:101FD000B02608951F93CF93DF93182FEB010E9433
:101FE0007C0F209731F4812FDF91CF911F910C94BA
:101FF000C20F8FE99FE00197F1F700C00000219721
:10200000F0CF70E060E0893311F460E570E00C948B
:10201000EA0F882321F00E94CA160C94A81608958E
:10202000882321F00E94D0160C94A81608950F93CF
:102030001F93CF93DF93DC01062F972F12962C91DD
:10204000129715963C91159732953F70C72FC29500
:10205000CF70D0E0FE01E252F24D0C945F2D172FAD
:102060001F70907F11F01295107F2223A9F0112389
:1020700059F080E2800F883010F0011109C0812FE3
:102080000E94CA160E94A816802F0E947C0F14C0BE
:10209000812F0E94DD16F6CF802F0E94C20F1123E0
:1020A00059F080E2800F883010F0011111C0812FAB
:1020B0000E94D0160E94A8162897249708F011C1F4
:1020C0000E948026DF91CF911F910F910C94310FC8
:1020D000812F0E94E316EECF872F8F70907F903272
:1020E00011F08295807F013061F4222329F036308F
:1020F00018F70E940910E0CF3530F0F60E9410105A
:10210000DBCF222319F03323A1F3BECF3323B1F366
:10211000093349F42FEF87EE93E02150804090403F
:10212000E1F700C00000802F0E94C20FC5CF872FAB
:1021300086958695837061F0813009F0BDCF862F3A
:102140009370211102C090E080E00E94B026B4CFCD
:10215000862F9370211102C090E080E00E949A26A1
:10216000ABCF872F837081F52111A6CF862F829563
:1021700086958770880F880F462F4F70082E01C0F4
:10218000440F0A94EAF7262F207164FF07C02FE05E
:1021900030E001C0220F8A95EAF720959695969532
:1021A0009370822F842B923049F058F4913019F0BB
:1021B0000E94231281CF0E941E127ECF0E942812FD
:1021C0007BCF0E941C1278CF8695222311F0872F97
:1021D0008170882309F470CF802F8295869587704F
:1021E000880F880F402F4F70082E01C0440F0A94AB
:1021F000EAF7202F207104FF07C02FE030E001C074
:10220000220F8A95EAF72095969596959370822FDE
:10221000842B923049F058F4913019F00E946912E1
:102220004BCF0E94641248CF0E946E1245CF0E948D
:10223000311242CF172F1F70222329F0812F0E94C5
:102240004212802F56CF862F0E941010812F0E949D
:102250004D1232CF613F19F148F4603F91F02223D3
:1022600069F1311111CF892F8F711DC0623FF1F0DB
:10227000633FA9F72223F9F0872F8F710E943A124A
:102280001BCF222341F0353008F016CF892F8F71F4
:102290000E94591211CF363008F00ECFF7CF872F9A
:1022A0008F712223A1F20E94421206CF872F8F71D5
:1022B0002223C9F3CCCF0E943712FECE311128CF92
:1022C000892F8F71C4CF472F4F70CD010E94C41842
:1022D0000E942213F1CE472F4F70CD010E94C718E4
:1022E000EBCEDF91CF911F910F9108950F931F9324
:1022F000CF93DF93EC01688179818A810E94FE127D
:102300008C010E9473120E941B12B801CE01DF9152
:10231000CF911F910F910C941710CF93DF93EC0185
:102320008B819C81892B29F08881998189238F3F1A
:1023300019F4DF91CF910895CE010E94FF0D8823FB
:10234000C1F3CE010E947611CE01DF91CF910C94A2
:10235000B20D882321F00E94DD160C94A816089572
:10236000882321F00E94E3160C94A816089590E0AB
:1023700080E00E949A2690E080E00E94B0260E94B1
:10238000EA160E94FA160C94A8160E94A2160C9443
:10239000B7110E94DA160C94C511E92FE295EF707F
:1023A000E250EE3070F4F0E0E251F24D0C945F2D0B
:1023B000803F19F020F4883E20F481E00895843FA6
:1023C000E1F380E00895883EC0F3813FD1F7F5CF77
:1023D00093FB882780F90895FC01808191810E94F8
:1023E000F4120C94CD11CF93DF9300D000D00F9254
:1023F000CDB7DEB70F900F900F900F900F90DF9139
:10240000CF910895CF93DF9300D000D000D0CDB707
:10241000DEB726960FB6F894DEBF0FBECDBFDF91B4
:10242000CF91089508950C9412120E941312809374
:102430003A010C94B71108950C94151290913A0139
:10244000892B0C94151290913A0189230C94151242
:1024500090913A0189270C9415120C9412120C9445
:102460002D120E942F12809339010C94B71180E035
:102470000C94311291E001C0990F8A95EAF7892FE7
:102480000C94311221E030E001C0220F8A95EAF766
:1024900080913901822B0C94311221E030E001C08F
:1024A000220F8A95EAF720958091390182230C94B6
:1024B000311221E030E001C0220F8A95EAF78091C5
:1024C000390182270C94311290913901892B0C9497
:1024D00031129091390189230C9431129091390174
:1024E00089270C94311208959295907F890F982F27
:1024F000977041E001C0440F9A95EAF7869586955A
:10250000869593E0899FF0011124EB5EFE4F30E049
:1025100020E070E05191DF011197CB01022E02C043
:10252000969587950A94E2F7817081958527842393
:1025300085278C932F5F3F4F2330310559F708953E
:102540009295907F890F982F97708695869586959E
:1025500023E0829FF0011124EB5EFE4F50E040E04B
:1025600080E0219130E0092E02C0369527950A942B
:10257000E2F721703327042E01C0220F0A94EAF7F4
:10258000822B4F5F5F4F4330510559F70895CF922B
:10259000DF92FF920F931F93CF93DF936C01009113
:1025A000390180913A01082BC7E0D0E010E0FC2E01
:1025B000C8010C2E02C0959587950A94E2F780FD1C
:1025C0000CC02197A0F7F12C8F2DDF91CF911F9197
:1025D0000F91FF90DF90CF900895B6018C2F0E944D
:1025E000C419019771F3F0CFCF93DF93EC010E94F0
:1025F000C712BE01DF91CF910C94C4191F93CF93E2
:10260000DF93EB0190911401992331F0CB01DF911D
:10261000CF911F910C94F412882379F0CB010E9482
:10262000C712182F682FCE010E947412BE01812F8D
:10263000DF91CF911F910C94C419CB010E94A0127D
:10264000182FF4CFEF92FF920F931F93CF93DF9346
:102650008C01892B81F0F12CEE24E394E801219682
:10266000F8018491843770F4843008F05FC08130C1
:10267000B1F08230A1F1DF91CF911F910F91FF90C6
:10268000EF900895853709F44CC008F43DC09CE7ED
:10269000980F903780F78F770E94C20F49C00E5F66
:1026A0001F4FFE01849190E2980F983060F487707C
:1026B000FE2D01C0FF0F8A95EAF78F2F0E94ED16BD
:1026C0000E94A81602C00E947C0F8F2D815030F20C
:1026D000EFE9FFE03197F1F700C00000F7CF0E5FA0
:1026E0001F4FFE01849190E2980F983050F487704C
:1026F000FE2D01C0FF0F8A95EAF78F2F0E94F31677
:10270000DFCF0E94C20FE1CF0E5F1F4FFE01C491C9
:10271000C150D8F28FE99FE00197F1F700C00000A7
:10272000F7CF0E5F1F4FFE01F490CFCF0E947C0FBA
:102730008E01CBCF1F93CF93DF93C0913B0116E067
:1027400080913C018C1304C0DF91CF911F910895BB
:10275000D0E01C9FF0011D9FF00D1124E35CFE4FA3
:102760004081518162817381848195810E9402122E
:102770002196C770E5CF40916D0150916E01609137
:102780006F017091700180917101909172010C94B0
:10279000021220913B0190913C0156E0291302C0A6
:1027A00080E0089530E0529FF001539FF00D112416
:1027B000E35CFE4F7181761306C07081781303C00D
:1027C0007281741304C02F5F3F4F2770E7CF81E001
:1027D00008951F93CF93DF9380917201807FA9F4B6
:1027E00080916F01882389F080913B01C0913C0169
:1027F00060916D0170916E01A0917001B0917101B5
:10280000D62FD72316E0C81304C0DF91CF911F91B4
:10281000089590E0109711F0DF3F19F4019687704A
:10282000F2CF189F9001199F300D1124F901E35C3C
:10283000FE4F41814713F2CF40814613EFCF4281D3
:102840004111ECCF438154814A1B5B0B483C51053D
:1028500028F7809172018F70806180937201F90175
:10286000EE5BFE4F80818F70806180838DE691E00A
:102870000E948D11DF91CF911F910C949A138F922A
:102880009F92AF92BF92CF92DF92EF92FF920F93FF
:102890001F93CF93DF93CDB7DEB761970FB6F89450
:1028A000DEBF0FBECDBF8C0185E0F801DE011D96B5
:1028B00001900D928A95E1F7D8011296EC9012974B
:1028C0008DE6A82E81E0B82E4091700150917101E3
:1028D0004115510509F46FC190916D0120916E0170
:1028E000892F82238F3F09F466C1CC901196DC902A
:1028F000119713968D909C901497F0906F01F401AE
:10290000E41BF50BFF2009F404C180917201382FFC
:10291000307FE83CF10508F0BEC0311189C0FE2CC3
:10292000D21226C09C1124C0E11022C08F70806199
:10293000809372010E94BB13C5010E948D1180918A
:102940007201D80115968C938F2D61960FB6F8946D
:10295000DEBF0FBECDBFDF91CF911F910F91FF90D2
:10296000EF90DF90CF90BF90AF909F908F900895A1
:102970008114910429F08D2D8C218F3F09F037C1EE
:1029800080E080FF15C04E2D6D2D8C2D0E94C91347
:10299000882371F08DE691E00E948D1186E0EDE6CE
:1029A000F1E0DF011D928A95E9F70E94BB133EC05A
:1029B000892829F08D2D8C218F3F09F015C180E0E9
:1029C000B82FB170AB2E80FF29C04E2D6D2D8C2DF0
:1029D0000E94C913B82E811121C0CD86DE868D8557
:1029E0009E850E94F412292F22952F70223050F0DC
:1029F000243078F49F7051F0F8019581907F31F484
:102A0000FB2CA2CF9F7011F08823D1F3805E883019
:102A1000B8F3C8010E948D11BA2CF2CFEE2009F450
:102A200093CF80917201816080937201F12C8CCFE1
:102A3000D21205C09C1103C0EE2009F487C0C80162
:102A40000E94EC11882319F1EE2009F180917201A6
:102A5000803270F020916D0130916E0138872F83A4
:102A600019869B868A868C87CE0107960E948D11D7
:102A700086E0F801ADE6B1E001900D928A95E1F7AC
:102A80000E94E9130E94BB13FF24F3945DCFC80199
:102A90000E948D11F9CF311112C0782D998A888A40
:102AA000A6016E2D89890E94F3118DE691E00E94A6
:102AB0008D1186E0F50111928A95E9F776CFD21251
:102AC0000FC09C110DC0E1100BC015968C93C8016E
:102AD0000E948D1186E0F50111928A95E9F734CFB5
:102AE000C8010E94EC11882391F2EE2081F28091BE
:102AF0007201803208F4BCCF20916D0130916E01DB
:102B00003A8329831B829D828C828E83CE0101961B
:102B1000ADCFE83CF10508F040C0FE2CEE2009F4F2
:102B2000B6CFD2122CC09C112AC08091720180FDB8
:102B30001DC0982F907FD1F015968C931597903FDC
:102B400039F0982F907F905F8F70892B15968C931A
:102B5000C8010E948D1186E0F801ADE6B1E0019058
:102B60000D928A95E1F70E94BB13EECE86E0F80144
:102B7000ADE6B1E001900D928A95E1F7E5CEC8018E
:102B80000E94EC11811174CF809172018160809359
:102B90007201C8010E948D11D7CE782D998A888A3A
:102BA000A6016E2D89890E94F31186E0F50111922C
:102BB0008A95E9F7D8CFEE2009F469CFC8010E94C1
:102BC000EC11F82E882309F462CF86E0F801ADE617
:102BD000B1E001900D928A95E1F78DE691E00E94B7
:102BE000770F0E94E913BFCF81E08E25E9CE81E007
:102BF0008E25C7CE1F93CF93DF93CDB7DEB72C972B
:102C00000FB6F894DEBF0FBECDBF4F8358876987DC
:102C10007A878B879C87CE0107960E943F14882372
:102C200069F08A859B85892B39F04F815885842FDF
:102C300085238F3F09F071C016E05FC086E0FE017A
:102C40003796DE01119601900D928A95E1F78A85FB
:102C50009B85892B89F38F81988589238F3F61F329
:102C600020913C0130E0C90101968770992740917D
:102C70003B014817190671F40E94C91110923C01DA
:102C800010923B0186E0EDE6F1E0DF011D928A95AE
:102C9000E9F7D2CF96E0929FD001939FB00D112417
:102CA000A35CBE4FFE01319601900D929A95E1F71B
:102CB00080933C010E949A13BFCF819FC0011124D1
:102CC000835C9E4F0E943F148823E9F0E0913B0112
:102CD0001E9FF0011124E35CFE4F4081518162810F
:102CE0007381848195810E94021280913B0190E062
:102CF00001968770992780933B0180913B019091C9
:102D00003C018913DACF2C960FB6F894DEBF0FBEC4
:102D1000CDBFDF91CF911F91089569857A858B850D
:102D20009C850E94021288CF682F8091600090914C
:102D300061000C94FC26682F8091600090916100E6
:102D40000C94FE2680916000909161000C94002705
:102D5000E0916000F091610080917D018083E091BD
:102D60006000F0916100808190917C01892B8083CB
:102D7000E0916000F0916100808190917B01892B4E
:102D8000808380916000909161000C948F268091E7
:102D90007D01089590917D01892B80937D01089597
:102DA000809590917D01982390937D010895809363
:102DB0007D01089510927D01089590917C01892BE9
:102DC00080937C010895809590917C019823909345
:102DD0007C01089510927C01089590917B01892BCC
:102DE00080937B010895809590917B019823909327
:102DF0007B01089510927B0108956FEF7FEF90E0C3
:102E000080E00C94C62D90E080E00E94A32D893EC6
:102E10009E4F11F40C945B1D80E0089582E090E0D9
:102E20000C949B2D83E090E00C949B2DCF9384E039
:102E300090E00E949B2DC82F82E290E00E949B2D83
:102E4000982F8C2FCF910895CF93C92F682F84E0AE
:102E500090E00E94A92D6C2F82E290E0CF910C941B
:102E6000A92DAB01BC018FE090E00C94BA2DAB0111
:102E7000BC0183E190E00C94BA2D60E070E0CB01DE
:102E80000C94371760E070E0CB010E9431170C946E
:102E90003D1769EE7EEF90E080E00E94C62D60E075
:102EA00082E090E00E94A92D60E083E090E00E9423
:102EB000A92D10923A0160E084E090E00E94A92DD3
:102EC00060E082E290E00E94A92D60E085E090E061
:102ED0000E94A92D60E086E090E00E94A92D6FEF8E
:102EE00087E090E00E94A92D40E050E0BA0188E020
:102EF00090E00E94BA2D60E08DE090E00E94A92D44
:102F000040E050E0BA0188E190E00E94BA2D60E014
:102F100087E190E00E94A92D40E050E0BA018CE1E9
:102F200090E00E94BA2D70E060E080E290E00E94A4
:102F3000C62D40E050E0BA0188E190E00E94BA2D31
:102F400080E00E94741D0E949A1D0C9442170C94FC
:102F50004917682F8EE090E00C94A92D0E944A2713
:102F600060939301709394018093950190939601DF
:102F700060938F01709390018093910190939201DF
:102F800008950E944A27609393017093940180935F
:102F900095019093960160938B0170938C018093BF
:102FA0008D0190938E01089584B7806884BF84B7A3
:102FB000806884BF0895089508950C94DB170895E0
:102FC0000C94DF170E94D41782EA9AE10E94B82776
:102FD0000E94DC170C94DD1781E008950C94EC1727
:102FE000089508950E94F0170C94F1170E94372756
:102FF0000E94A91D0E94981B80E00E9479200E94D7
:10300000051D0C94E0177F928F929F92AF92BF9212
:10301000CF92DF92EF92FF920F931F93CF93DF93A4
:10302000CDB7DEB72A970FB6F894DEBF0FBECDBF7F
:103030000E94AB1BA82E81110E94AE175FE7852E60
:1030400051E0952E10E000E0702E802F0E94DC1AD7
:103050006C01F401E190F1904F01E816F90609F4D2
:1030600068C08091970181FD0E94E51AC7018C25F7
:103070009D25B12CEE24E394F12C9C012E213F21BF
:10308000232B09F450C00E94EE178823A9F0BE82BA
:103090007F82CE20DF2081E0CD2809F480E0888780
:1030A0000E943E278160782F9A8789874E815F81B1
:1030B00068858A850E94390F000F111FF801E158B9
:1030C000FE4F80819181E826F926F182E0820E94FC
:1030D000141D182F81110E94C1170E944D22A110AA
:1030E00001C011110E9416210E94802690917E013C
:1030F0008917B1F10E94802680937E012A960FB62F
:10310000F894DEBF0FBECDBFDF91CF911F910F911D
:10311000FF90EF90DF90CF90BF90AF909F908F90F7
:103120007F900C94310FB394EE0CFF1CF0E1BF12B2
:10313000A4CF0F5F1F4F0630110509F085CF8FEF29
:1031400089838A831B820E943E278160782F9D831A
:103150008C8349815A816B818D810E94390FB7CF51
:103160002A960FB6F894DEBF0FBECDBFDF91CF9188
:103170001F910F91FF90EF90DF90CF90BF90AF9095
:103180009F908F907F90089590E080E0089508953B
:10319000FC01EE0FFF1FEC5FFB4E859194910895AB
:1031A000CF93DF930E94C819EC01811520E49207A8
:1031B000D8F5811530E3930708F0B1C0803E910542
:1031C00018F5803C910508F0A2C0883A910570F48A
:1031D000853A910508F093C08130910509F1009777
:1031E000F9F00497E8F4D0E0C0E01AC08F3B9105F5
:1031F000D0F7C85AD0E0CC0FDD1FCA55DF4F099079
:10320000D881C02DD4640CC0811540E2940708F029
:1032100084C0C11581E0D80718F4C83ED10518F75D
:10322000CE01DF91CF910895C11593E5D90760F5DF
:10323000C11522E5D20708F083C0C11531E5D307D7
:1032400008F079C0C11540E5D40708F471C0CE017B
:1032500064E0969587956A95E1F783702C2F269503
:103260002695237090E2299F90011124382B8C2FF2
:103270008370C1E0D0E002C0CC0FDD1F8A95E2F779
:10328000C22BD32BDC68CCCFC11589E5D807F0F46D
:10329000C11598E5D90708F064C0C11524E5D20727
:1032A00008F0A1CFCE018370992721E030E002C061
:1032B000220F331F8A95E2F7C695C69580E2C89F14
:1032C000E0011124C22BD32BDA68AACFC1153AE54D
:1032D000D30708F44BC0CE0190568115904208F0F8
:1032E00082CF8D2F8F710E945F1A90E0982F8827D0
:1032F00088279F719C012C2BE901D06291CFC55A80
:10330000D0E0CC52DF4FC881D0E0D06489CF805C60
:1033100091090E94C818EC0183CF9F70FACF9927BA
:10332000D3FF03C0EC01D86C7BCFEC01D06C78CF1D
:10333000DF70D06A75CFDC2FCC27C16FD06A70CF19
:10334000CE018370992721E030E002C0220F331FA5
:103350008A95E2F7C695C69540E2C49FE001112424
:103360008FCFDC2FCC27C06FD06A5ACF8C2F8F70B5
:103370000E945F1A34E0D695C7953A95E1F7CF7071
:103380009C2FEC01D0694CCF0E946B1F0C94D0187D
:1033900082389105B1F1B0F48133910509F475C01B
:1033A00048F48932910509F469C08A32910509F41B
:1033B00073C008958533910509F459C08933910587
:1033C00001F10895833E9105A9F138F4803E9105FD
:1033D000F9F0823E910549F10895863E9105A9F1E3
:1033E000873E9105C9F1843E910519F520918D0222
:1033F00021FF1FC080918C0284FD14C087EE90E0F5
:10340000089520918C022370A1F080EE90E0089541
:1034100020918C0220FD47C030918D0230FF09C001
:1034200024FF44C090E080E004C020918C0222FD83
:10343000F7CF089520918C0222FD3BC030918D0280
:1034400030FDE3CF24FFF5CFEDCF20918C0223FF99
:10345000F0CF24FDE7CFD2CF20918C0223FD2CC0EA
:1034600030918D0231FFEECF84EE90E008952091EF
:103470008C0225FFDECF89E290E0089520918C0236
:1034800025FFD7CF85E390E0089520918C0226FF99
:10349000D0CF8AE290E0089520918C0226FFC9CF18
:1034A00081E390E0089589E390E0089583EE90E051
:1034B000089582EE90E0089586EE90E00895909150
:1034C0008C0292FF06C0282F28712830F9F4877FDC
:1034D000846093FF06C0282F28712831F1F4877E7D
:1034E000846120918D0220FF06C0382F387138305A
:1034F000D9F4877F816021FF06C0282F28712831E9
:10350000D1F4877E816194FD877E0895282F2471F0
:103510002430F9F68B7F8860DCCF282F247124318A
:1035200001F78B7E8861DDCF382F3171313019F78B
:103530008E7F8860E0CF282F2171213121F78E7E88
:103540008861E1CF80E008950C94FD160E94AB1BCA
:103550008FE39CE90197F1F700C000000E94AB1BCC
:1035600080E00E94DC1A80FF04C00E94A41A0C9420
:10357000A52708950C94A61A0E940317811102C072
:103580000E94A7170E940E17809397010E9416179A
:1035900090938D0280938C020E94BA1A0E94121797
:1035A0000E941C12809139010C942F1208950C94E2
:1035B000D61A08950C94D91AE82FF0E0EE0FFF1FE9
:1035C000E656FD4F808191810895089580EA8A959D
:1035D000F1F7089500C008950C94E61AF894E82FC6
:1035E000E295EF70F0E031A9282F2F7081E090E094
:1035F00001C0880F2A95EAF7982F9095932391ABF5
:1036000092A9892B82AB78940895CF93DF93C7EE6C
:10361000D0E089918F3F11F00E94EE1A80E0CD3EFC
:10362000D807B9F7C7EDD0E089918F3F11F00E941C
:10363000EE1A80E0C73ED807B9F7DF91CF91089521
:10364000AF92BF92CF92DF92EF92FF920F931F93B0
:10365000CF93DF938C01B62EC62FD0E0CE018951D7
:103660009F4F7C01FC0120812F3F09F453C0F89447
:10367000E22FE295EF70F0E031A92F7081E090E049
:1036800001C0880F2A95EAF7932F982B91AB92A946
:103690008095892382AB78940E94EA1AE7EDF0E0E6
:1036A00030E020E0D12CC12C41E050E081918F3FEF
:1036B000E1F1A82FA295AF70B0E0D0966C9170E0C8
:1036C0008F7002C0759567958A95E2F760FD2DC0F1
:1036D000CA01022E02C0880F991F0A94E2F7C82A75
:1036E000D92A2F5F3F4F2031310501F7F701808143
:1036F0008F3F11F00E94EE1A61E0C114D10409F469
:1037000060E08B2D0E94EC1ACC0FDD1FC00FD11F83
:10371000D982C882DF91CF911F910F91FF90EF90D6
:10372000DF90CF90BF90AF90089590E080E0D7CF2A
:103730000E94051BEEE8F2E0AAE9B2E011921192B4
:103740001D921D9282E0EA39F807C1F786E00E94D7
:10375000F61B0C94E30DFF920F931F93CF93DF930F
:10376000CDB7DEB72C970FB6F894DEBF0FBECDBF36
:103770008E010F5F1F4F8CE0F80111928A95E9F7D7
:10378000F12C6F2DC8010E94201BF394F6E0FF126C
:10379000F8CF4CE050E0B8018EE892E00E948E2D08
:1037A000FF24F394009709F4F12C892B41F08CE06D
:1037B000F801AEE8B2E001900D928A95E1F72F2D65
:1037C00046E06AE972E08EE892E00E94F71B0E94F0
:1037D000EB0D8F2D2C960FB6F894DEBF0FBECDBF2C
:1037E000DF91CF911F910F91FF9008950895FF925F
:1037F0000F931F93CF93DF93F82E092F162FD72FF8
:10380000C42F222349F081E080939A010E943E2731
:10381000909399018093980180919A018823A1F057
:1038200080919801909199010E945627059760F028
:10383000EF2DF02FA12FBD2F90E080E0D0E08C176E
:103840009D0744F010929A01DF91CF911F910F9143
:10385000FF900895219131912D933D930196EFCFE3
:103860000E9407270E94BD270E94C5270E94E527C6
:103870000E94F217FBCF80919D0108959C01305664
:10388000211540E2340748F0305E211540E134074D
:1038900020F0315C21153F4178F499279C01245098
:1038A00031092432310578F02752310981E02E3078
:1038B000310550F080E008958F3F910579F370F362
:1038C00090E080E0EBCF81E008950C943E1CCF9215
:1038D000DF92EF92FF92CF93DF930E94651C8823C3
:1038E00009F448C080919B0190919C010097E1F1FF
:1038F0000E9456279C0150E040E060E67AEE80E0AE
:1039000090E00E94402DCA01B90125E030E040E07E
:1039100050E00E94402D60919D012F3F310519F02C
:1039200010F02FEF30E0C62FD0E02C1B3D0BB9017B
:1039300090E080E00E94DC2B27EA39E747E45DE372
:103940000E94AB2C0E94962B6B017C01BE01DD0F07
:10395000880B990B0E94DE2BA70196010E942A2B4F
:103960000E94AD2B60939D010E943E2790939C0185
:1039700080939B01DF91CF91FF90EF90DF90CF90EC
:103980000895CF92DF92EF92FF92CF93DF938091D1
:103990009B0190919C010E945627893E934060F1C3
:1039A00060919D01C62FD0E0662777276C1B7D0BA9
:1039B000072E000C880B990B0E94DE2B27EA39E7B3
:1039C00047E45DE30E94AB2C6B017C01BE01DD0F7F
:1039D000880B990B0E94DE2B9B01AC01C701B6013D
:1039E0000E942A2B0E94AD2B60939D010E943E27CE
:1039F00090939C0180939B01DF91CF91FF90EF907A
:103A0000DF90CF90089581E008958898909A8998E2
:103A1000919A80B38170819905C090E0892B809341
:103A2000A001089592E0FACFE091A001EE0FEE0F11
:103A3000E093A00140B3842F817040B341FB222763
:103A400020F941FF02C022E030E0822BE82BE09316
:103A5000A001EF70F0E0E351FF4F808190919F0152
:103A6000890F80939F0120E0823054F080919E0165
:103A70008F5F80939E0160E080E00E948B0C21E0CC
:103A800080919F018F3F54F480919E0181508093DB
:103A90009E0161E080E00E948B0C21E080919F01FB
:103AA000082E000C990B62E070E00E942C2D809390
:103AB0009F01822F089583E290E00E949B2D813226
:103AC00089F484E290E00E949B2D823159F485E2D2
:103AD00090E00E949B2D91E0873109F090E0892FC2
:103AE0008170089580E0FCCFCF93C82F6FEF8111D4
:103AF00061E283E290E00E94A92D6FEFC11162E1C3
:103B000084E290E00E94A92D6FEFC11167E185E288
:103B100090E0CF910C94A92D089586E290E00E9448
:103B20009B2D682F70E090E080E0089586E290E0A1
:103B30000C94A92D80E00E94741D60E070E0CB0120
:103B40000E94961D0E94E31E0E94CD1F81E00C94EE
:103B5000741D0E948C1D0E945B1D811102C00C947B
:103B60009A1D0895CF93FB01C281CC2309F19C01DA
:103B700022513F452031310520F582510E94DD1F41
:103B8000C0E08C2FCF91089581E00E94421243E063
:103B900062E081E00E94DA0DF3CF81E00E944D12D5
:103BA00043E062E081E00E94DA0DEBCF82E0F6CFE5
:103BB0008031FFE59F0789F381319F45B9F3C1E06B
:103BC000E0CF8031EFE59E07F9F281319F45C9F6DC
:103BD00082E0DBCF2FEFFC0120830895EF92FF926C
:103BE0000F931F93CF93DF93EC01062FE881E150F1
:103BF000E33108F05EC0F0E0E450F24D0C945F2D2C
:103C0000198289E08A83602FCE01DF91CF911F91C5
:103C10000F91FF90EF900C94D0288981823069F049
:103C2000833071F08130D9F40E944A270E94652DBB
:103C30006A837B838C839D83E6CF0E948D1DF6CFA4
:103C40007E0110E0812F0E94DC1AF70192838383AA
:103C50001F5FF2E0EF0EF11C1630A1F7D4CF602FFA
:103C6000CE010E94EA1DCFCF89818230C1F76A81DF
:103C70007B818C819D810E94652D0E94961DC3CF02
:103C80004B816A8189810E94B51E982789279827D0
:103C90009D838C83B8CF2C813D8132272327322707
:103CA0004B816A8189810E94CE1EADCF0E94E31EA6
:103CB000AACF8FEF8883A7CF0E94781F8983A3CFD5
:103CC0000E947A1F9827892798279A8389839BCFF8
:103CD0006B8170E089819A81AE014C5F5F4F9827BC
:103CE000892798270E947D1F8ECF6B8170E0898184
:103CF0009A81AE014C5F5F4F9827892798270E94D1
:103D0000A31F81CF0E94CD1F7ECF0E94A21ED6CFBF
:103D10006B8170E089819A81AE014C5F5F4F98277B
:103D2000892798270E941B1F6ECF6B8170E08981C5
:103D30009A81AE014C5F5F4F9827892798270E9490
:103D4000411F61CF84E0089590E2699FB001112482
:103D500050E0440F551F640F751F90EC899F600D54
:103D6000711D1124CB01879608950F931F93CF9354
:103D7000DF930E94A41E8C010E949B2DC82FD0E0CF
:103D8000DC2FCC27C80101960E949B2D9E01282B79
:103D9000C901DF91CF911F910F9108950F931F9348
:103DA000CF93DF93122F032F0E94A41EEC01602FEC
:103DB0000E94A92D612FCE010196DF91CF911F9115
:103DC0000F910C94A92DAF92BF92CF92DF92EF92F8
:103DD000FF921F93CF93DF9384E5C82E80E1D82E06
:103DE000D0E07601C0E014C0F50125913491412F57
:103DF0006C2F8D2F0E94CE1E82E0A80EB11C1F5F7B
:103E0000103191F780E2E80EF11CCF5FC63019F057
:103E1000570110E0E9CFDF5F80ECC80ED11CD43031
:103E200001F7DF91CF911F91FF90EF90DF90CF903E
:103E3000BF90AF900895EF92FF920F931F93CF938F
:103E4000DF93EC018A017C01E60EF71ECE01879616
:103E5000CE15DF0539F4DF91CF911F910F91FF90BF
:103E6000EF900895C11523E0D20740F40E949B2DE6
:103E7000F80180830F5F1F4F2196E8CFF801108271
:103E8000F9CFCF92DF92EF92FF920F931F93CF93D0
:103E9000DF937C016A018C01060F171FEC01CE0134
:103EA0008796C017D10749F4DF91CF911F910F91E9
:103EB000FF90EF90DF90CF900895C11523E0D207D7
:103EC00040F4FE01EE19FF09EC0DFD1D60810E941A
:103ED000A92D2196E4CF462F843038F4763028F48B
:103EE000603118F4672F0C94B51E90E080E00895BF
:103EF00080E1089589ED90E00895EF92FF920F938D
:103F00001F93CF93DF93EC018A017C01E60EF71E2D
:103F1000CE01895D9C4FCE15DF0539F4DF91CF913D
:103F20001F910F91FF90EF900895C93DD10540F486
:103F30000E949B2DF80180830F5F1F4F2196E8CFD1
:103F4000F8011082F9CFCF92DF92EF92FF920F9398
:103F50001F93CF93DF937C016A018C01060F171F1B
:103F6000EC01CE01895D9C4FC017D10749F4DF9168
:103F7000CF911F910F91FF90EF90DF90CF90089518
:103F8000C93DD10540F4FE01EE19FF09EC0DFD1D00
:103F900060810E94A92D2196E4CFCF93DF93C7E2E1
:103FA000D3E060E0CE010E94A92D2196C11584E0E6
:103FB000D807B9F7DF91CF910895DF92EF92FF9282
:103FC0000F931F93CF93DF9300D000D0CDB7DEB710
:103FD000F82E8FE08F1540F08FEF93E00E949B2D1D
:103FE00007E213E08823C1F00F900F900F900F901D
:103FF000DF91CF911F910F91FF90EF90DF90089587
:10400000011584E0180781F3C8010E949B2D8111DE
:1040100001C0FA940F5F1F4FF110F2CF19821A827C
:104020001B821C82DD24D39478018FEFE81AF80AF2
:10403000C8010E949B2D89831A828823A9F29FEFD1
:10404000980F933078F48A83D9820E5F1F4FC7018F
:104050000E949B2D8B83882339F2CE0101960E940A
:104060001C0FE2CF8701F9CFCF92DF92EF92FF9240
:104070000F931F93CF93DF936C017B0164E670E095
:1040800088E70E948A25EC0197FD12C010E000E04D
:10409000F601E00FF11F849164E670E00E94FB25B9
:1040A000EC01892B29F40F5F1F4F0E151F0581F7B7
:1040B0000E947826CE01DF91CF911F910F91FF9042
:1040C000EF90DF90CF900895E6EAF2E080E092E092
:1040D000DF019C011D9221503040E1F7F093AB04C9
:1040E000E093AA048FEF9FEF9093C7018093C601DE
:1040F00008950E94A60C8093C20180FD0FC080E845
:104100008093C1010E947A256DE070E08BE194E11B
:104110000E943420892B21F080E0089580E2F0CFC6
:104120008091C20163E070E081FD26C088E194E1E6
:104130000E943420892B81F76DE070E088E094E1E3
:104140000E943420892B41F70E944A27605F784DF6
:104150008F4F9F4F6093A6047093A7048093A80489
:104160009093A9040E94642081E08093C50180930C
:10417000C4011092C301089585E194E1D9CF209143
:10418000C10136E0839FC0011124629F800D911D03
:104190001124811522E0920714F090E080E08A5506
:1041A0009D4F9093AB048093AA040895CF93DF931F
:1041B0002091AA043091AB04265A3240A901460F3F
:1041C000571F4130524020F060E072E0621B730BD9
:1041D0004091C6015091C701FC01C901620F731FD4
:1041E000C1E0D0E08617970738F05093C70140939D
:1041F000C601DF91CF9108952491DC01AA55BD4FEE
:104200003C91321781F02C939C01A5E036952795BF
:10421000AA95E1F7DE0102C0AA0FBB1F2A95E2F7BB
:104220009D014A2B532B01963196DCCF8091C5011D
:10423000811103C08091C40108950E944A27605FE4
:10424000784D8F4F9F4F6093A6047093A70480937F
:10425000A8049093A9048091C4018111EBCF62E07E
:1042600070E086E094E10E943420892B19F781E008
:104270008093C401DFCF2F923F925F926F927F9223
:104280008F929F92AF92BF92CF92DF92EF92FF9266
:104290000F931F93CF93DF938091C501882369F01B
:1042A0002091C6013091C7012115310531F080916F
:1042B000C30161E070E0882399F0DF91CF911F91F5
:1042C0000F91FF90EF90DF90CF90BF90AF909F90B5
:1042D0008F907F906F905F903F902F9008958F5FA9
:1042E000082F10E01B01082E02C0220C331C0A9478
:1042F000E2F7A90142215321452B89F39091C20194
:1043000090FD44C08295880F807680936400980168
:10431000369527953695279520936700815E809383
:1043200065001092680024E630E047E050E062E665
:1043300070E088E70E942626892B09F0BECFA801ED
:1043400025E0440F551F2A95E1F78091C20180FDB9
:104350002BC04A555D4F04E610E020E230E060E4F7
:1043600088E70E944C26892B09F0A7CF0E941621CE
:10437000E101C095D0958091C6019091C701C823F5
:10438000D923D093C701C093C60197CF880F880F58
:10439000880F8093640010926700895F80936500A6
:1043A00083E080936800BFCFE1EAF1E080E2DF01C3
:1043B0001D928A95E9F7A1E0B1E00DEF10E085E0EC
:1043C000C82E81E0D82E97E0592E772473948D91D2
:1043D000E80129918E01240F352F311D2A553D4FBB
:1043E000E82FF0E0EF55FE4F90E080E0652C681A72
:1043F000872C082E01C0880C0A94EAF77901A12CB9
:10440000E701B9907E01B820662D6A196770962E73
:10441000062E000C770BDB2D01C0DD0F9A94EAF716
:104420007195619571096770772701C0B6946A9597
:10443000EAF7BD2A6081962E9B289082A39468E0BB
:10444000A612DECF019631968830910579F6CA160C
:10445000DB0609F0BCCF04E610E020E230E041EAE0
:1044600051E07DCF8091C4019091C501911103C0AD
:1044700091E089270895882369F062E070E084E084
:1044800094E10E943420892B19F08091C401089591
:104490001092C4018091C401EBCF0F931F938091C0
:1044A000C501882319F160E080E00E94BF200E94CE
:1044B000A80C0E943B218091C4018823B9F00E947E
:1044C0004A270091A6041091A7042091A8043091D6
:1044D000A904601B710B820B930B6F3F7F4F8F4FB3
:1044E0009F4720F41F910F910C9432221F910F913E
:1044F0000895CF93DF93EC0197FF0CC0FB018281FD
:10450000882341F00E94C722CE019F770E94212379
:104510000E94022381E0DF91CF9108958CE090E02A
:104520000E949B2D90E0B0E0A0E08093AC049093BB
:10453000AD04A093AE04B093AF041092C80184E020
:104540008093AC0408952091C801082E000C990BAB
:10455000820F911D27FD9A9563E070E00E942C2D3B
:1045600087FD0DC08093C801E091C8010E2E000C9C
:10457000FF0BEB5FFE4F80818093AC0408958D5F4D
:10458000F1CF6091AC048CE090E00C94A92D0E94D6
:104590008C26869581708093B1049091AC04913003
:1045A00029F4882319F089E30E9401100E94C7169C
:1045B0008093B0040E94DA168091AC04813089F0B7
:1045C000882359F0823091F08430B9F08FE39CE970
:1045D0000197F1F700C00000089582EE0E947C0F61
:1045E000F5CF88E193E00E94610DF0CF82EE0E944A
:1045F0007C0F87E50E940110E9CF86EE0E94011032
:1046000088E1F8CF8091AC04813071F0882341F0CB
:10461000823031F0843099F08091B0040C94D71638
:1046200082EE0E94C20FF8CF8CE20E9401108091AE
:10463000B104882389F389E30E940110EDCF88E259
:10464000FBCF0F931F93CF93DF938C01CCE0D0E08F
:10465000C8010C2E02C0969587950A94E2F78F70D8
:104660000E941F0F2497CC3F8FEFD80789F7DF9167
:10467000CF911F910F9108950F931F93CF93DF93C5
:10468000EC018B01FB018281882361F00E94C71637
:104690008272C03EFCE5DF07E1F060F4CF3DECE55F
:1046A000DE0799F0B801CE01DF91CF911F910F91F4
:1046B0000C947922C63EFCE5DF07A0F78C2F815EC3
:1046C0008093AC040E94C122EDCF811104C081E02F
:1046D00003C08111FCCF8FEF0E94A322E3CF0F9381
:1046E0001F93CF93DF93C42FD22FFC0182818823A5
:1046F000C9F04093CB010E943E279093CA0180935A
:10470000C90180E28C0F883008F050C0C77081E08A
:1047100001C0880FCA95EAF7DF91CF911F910F91E1
:104720000C9409101091CB01141335C08091C9016C
:104730009091CA010E945627883C910560F5C0E21D
:10474000CD0F1D17B9F080E2810F883040F417704B
:1047500081E001C0880F1A95EAF70E941010C83056
:1047600048F481E09D2F977001C0880F9A95EAF771
:104770000E940910802F0E940110C830B8F4D77031
:1047800081E001C0880FDA95EAF7DF91CF911F91A0
:104790000F910C94101080E28C0F883038F4C770A1
:1047A00081E001C0880FCA95EAF7EFCFDF91CF9182
:1047B0001F910F9108950F939C01CB01233F4CE56E
:1047C000340759F1A8F4283DFCE53F0701F1293DE4
:1047D0004CE53407D1F1273D3C4591F406E221EE4A
:1047E00041EE67ED7CE50E946F2380E00F91089514
:1047F000253FFCE53F07E9F0B0F0263F3C45F9F0E6
:10480000FC018281882339F11092CB01EFCF07E2BE
:1048100025EE45EE68ED7CE5E6CF06E221EE40EEC2
:1048200063EF7CE5E0CF07E225EE44EE64EF7CE544
:10483000DACF06E221EE42EE65EF7CE5D4CF07E267
:1048400025EE46EE66EF7CE5CECF08E221E045EEB0
:1048500069ED7CE5C8CF81E0C9CFCF93DF93EC0150
:10486000FB018281882309F419C1C230FCE5DF070E
:10487000C0F1C6319CE5D90730F09E012A5F3C4566
:104880002930310570F50E94161790938D028093A0
:104890008C02C031ECE5DE0709F4CFC008F05BC044
:1048A000C8308CE5D80709F4B6C088F5C430ECE50B
:1048B000DE0709F4A8C0C0F4C2308CE5D80709F4BB
:1048C0009CC080918C028260C330DC4509F498C0A2
:1048D00080918C0290918D020E9424170E94C91130
:1048E00080E0DF91CF91089580918C028061C63085
:1048F000ECE5DE0709F484C080918C028860C73043
:10490000DC4508F47DC080918C02806279C0CC3097
:104910008CE5D80709F489C070F480918C028C6012
:10492000CA30ECE5DE0709F46BC008F478C080916A
:104930008C028E7F65C0CE308CE5D80709F479C033
:1049400080918C028B7FCF30DC4508F459C0809178
:104950008C028F7E55C0CB3FECE5DE0709F457C0D3
:1049600030F5C3318CE5D80709F46FC078F4C13154
:10497000ECE5DE0709F465C0C231DC4509F0A8CFDB
:104980000E94C91180918C028F773AC0C5318CE5A5
:10499000D80709F462C008F476C080918D02816066
:1049A000CA3FDC4509F094CF80938D0291CFCF3F71
:1049B000FCE5DF0709F44DC088F480918D028D7FFE
:1049C000CD3F9CE5D90781F380918D028E7FCE3F4C
:1049D000DC4550F380918D028360E6CFC130FDE568
:1049E000DF0709F459C008F444C080E0C230DD4557
:1049F00009F06ECF0E94A9176BCF80918C02816065
:104A000080938C0265CF80918C028460F9CF809175
:104A10008D028260C9CF80918C028064F1CF0E94A8
:104A2000C91180918C028068EBCF80918C028D7FC0
:104A3000E7CF80918C02877FE3CF80918C028F7DBE
:104A4000DFCF80918C028F7BDBCF80918C02837FC4
:104A5000D7CF80918D028C7FA7CF80918C0282FB73
:104A6000992790F921E0922790FB82F990FB83F936
:104A7000C7CF80918D02982F909591708E7F892B52
:104A800090FB81F991CF0E94C91190918C02892FDE
:104A900097FB87F98058B4CF81E0ACCF81E021CF7C
:104AA000CF93DF93EB0186319C4511F50E94C71629
:104AB0009A81992399F08A7A91E009F490E0909391
:104AC000CC01811109C089E20E9494160E94A816A7
:104AD00080E0DF91CF91089585E3F6CF8091CC01FE
:104AE000811104C089E20E949B16F0CF85E3FBCFC1
:104AF00081E0EFCF11B88CE080B985B3836085BBCE
:104B000086B7846086BF86B7816086BF86B78064BB
:104B100086BF08959F92AF92BF92CF92DF92EF929D
:104B2000FF920F931F93CF93DF93B82EEB010E9458
:104B30003E276C01EE24E394F12CC431D10560F0E2
:104B400025E0E22EF12CCF3FDC0731F0CE0164E10D
:104B500070E00E94182D7B0184EAA82E94E8992E1B
:104B600016BEA6BE0E943E278C0106B607FE0BC0ED
:104B700081B1887F883031F181B1887F803111F136
:104B80000FEF1FEF09C00E943E27801B910B8E156F
:104B90009F0558F30EEF1FEFCF3FDC0709F3C60167
:104BA0000E9456278C179D07D8F2C801DF91CF913C
:104BB0001F910F91FF90EF90DF90CF90BF90AF903B
:104BC0009F900895B3B896BE0E943E278C0106B60A
:104BD00007FE09C081B1887F883111F0803481F6E9
:104BE00010E000E0E2CF0E943E27801B910B8E1563
:104BF0009F0568F3CFCF0F931F93CF93DF93EB0104
:104C000083B984E886BF0E943E278C0106B607FE62
:104C100010C021B1287F81E090E0283211F490E0AB
:104C200080E0919581959109DF91CF911F910F912E
:104C30000895CF3FDC0751F30E943E27801B910B64
:104C40008C179D0718F38EEF9FEFEECFCF92DF9278
:104C5000EF92FF920F931F93CF93DF936B018A0123
:104C60007901B9010E948A25E6010C0D1D1DC017AE
:104C7000D10759F424E926BFDF91CF911F910F91FD
:104C8000FF90EF90DF90CF90089597FDF3CFB7019D
:104C900089910E94FB25EBCFCF92DF92EF92FF929A
:104CA0000F931F93CF93DF93C62F6A017901B80149
:104CB0000E948A2597FD0CC0B8018C2F0E94FB250D
:104CC000E601EC0CFD1CCE15DF0511F097FF0BC0C3
:104CD00024E926BFDF91CF911F910F91FF90EF90B4
:104CE000DF90CF900895B80189910E94FB25EBCF0A
:104CF00084E986BF08959093D2018093D1010895ED
:104D0000E091D101F091D201309721F00190F08132
:104D1000E02D099480E008950E9480260895E09196
:104D2000D101F091D201309721F00280F381E02D82
:104D3000099408952091CF013091D00128173907A7
:104D400071F09093D0018093CF01E091D101F09167
:104D5000D201309721F00680F781E02D0994089563
:104D60002091CD013091CE012817390771F0909331
:104D7000CE018093CD01E091D101F091D201309725
:104D800021F00084F185E02D09940895662349F00F
:104D9000FC01329608962191261729F0E817F907A9
:104DA000D1F780E0089581E008959C01FC013296DE
:104DB0009FEF80E04191461751F09F3F19F4411158
:104DC00001C0982F8F5F8630A9F79F3F09F408959F
:104DD000290F311D97FD3A95F90162830895FC0171
:104DE000329608962191261303C0DF0111971C9279
:104DF000E817F907B9F708950C94D5260C94EF2617
:104E0000029626E0FC0111922A95E9F7089508958B
:104E1000089508950C9409278091D501882329F0DD
:104E20000E940A2780E00C94310F08950895CF93D3
:104E30000E9408270E94AB1B0E941627C0E08C2FFF
:104E40000E94DC1A892B31F4CF5FC630C1F780E0B5
:104E5000CF91089581E0FCCF08950C942C270E94F7
:104E6000C9110E9480260E94310F0C942D278BE0DF
:104E700083BF8AEF8CBF82E089BF08952FB7F89473
:104E80008091B2049091B304A091B404B091B504A0
:104E90002FBF08952FB7F8946091B2047091B304B6
:104EA0008091B4049091B5042FBF08959C014FB731
:104EB000F8948091B2049091B304A091B404B0919D
:104EC000B5044FBF821B930B0895CF92DF92EF92F0
:104ED000FF922FB7F894C090B204D090B304E09042
:104EE000B404F090B5042FBFA7019601261B370B21
:104EF000480B590BCA01B901FF90EF90DF90CF909A
:104F0000089578941F921FB61F9211248F939F9338
:104F1000AF93BF938091B2049091B304A091B40475
:104F2000B091B5040196A11DB11D8093B204909378
:104F3000B304A093B404B093B504BF91AF919F9113
:104F40008F911F901FBE1F90189588E198E00FB6B3
:104F5000F894A89581BD0FBE91BDA895F894D8E0AE
:104F6000CEE528E3299320E0299314BEFFCF0895CE
:104F7000909309018093080108950E943E27909321
:104F8000D4018093D3010C94E2170E940E2B8B9ACC
:104F900080E0815091F48B9878940E94F6170E94DB
:104FA0000A290E947B26FFEF20E782E0F150204093
:104FB0008040E1F700C000000895A895EFE9FFE008
:104FC0003197F1F700C00000E4CF8091DD04882321
:104FD00069F11092DD040E943E279093D4018093E2
:104FE000D3018091D501882341F01092D5010E9410
:104FF0002F278091D50181111DC00E941E2A80910A
:10500000E304882329F08091C10484FD0E940318E1
:105010000E9477280E941E2A8091E3048823C9F108
:105020008091FA0484FF35C00C94FE288091D5014C
:10503000882301F10E940C270E941727882349F139
:10504000F89421B3939A822F8C6081BB92B33CE099
:10505000932792BB4FE788E391E041508040904016
:10506000E1F700C0000082B3832782BB21BB939885
:10507000789408958091D3019091D4010E9456278D
:10508000069708F4B6CF81E08093D5010E940C27E3
:10509000B0CF089580918B0208959091DB01981311
:1050A00007C02091D9013091DA0126173707A9F0FE
:1050B0008093DB017093DA016093D9018093D6016C
:1050C0007093D8016093D7018091FA0484FF05C0E2
:1050D00063E086ED91E00C94162A0895BC0184E00B
:1050E0000C944D28BC0183E00C944D280895CF9377
:1050F000DF93CAE0D0E08091C10484FF1AC08091A0
:10510000080290910902981789F028E0829FC00157
:10511000112468E0865F9D4F0E94122A8091080248
:1051200090E001968F70992780930802DF91CF91CC
:1051300008950E941E2A8FE99FE00197F1F700C0B1
:1051400000002197C1F6F2CFCF93DF93EC01A0913D
:105150000902B0E0CD0101968F70992720910802D5
:10516000281779F093E0AA0FBB1F9A95E1F7A65F85
:10517000BD4F98E0FE0101900D929A95E1F7809362
:1051800009020E941E2A0E94772888E0FE01A0E002
:10519000B2E001900D928A95E1F7DF91CF910895E9
:1051A0000F931F93CF93DF93EC01603211F58C01C5
:1051B000005E1F4F02C00E941E2A8091CD0484FF12
:1051C000FACF68E0CE010E941A2A2896C017D107AC
:1051D000A1F78091CD0484FF09C060E090E080E0F9
:1051E000DF91CF911F910F910C941A2A0E941E2AD1
:1051F000F0CFDF91CF911F910F9108958091DF0142
:10520000803239F460E280EE91E00E94EE1D10924F
:10521000DF01089589E690E00895FC0180818076A1
:105220008032F1F48181813061F484819581892B10
:10523000B9F480E092E09093DF048093DE0488E08C
:105240000895823041F48AE892E09093DF048093DD
:10525000DE0481E008958A3029F4838180938A02F4
:1052600080E008958930E1F7828193818115924031
:1052700069F484819581892B49F481E08093DE0172
:10528000868197819093DD018093DC018FEF0895F3
:10529000FC018091DC019091DD01892B61F080910E
:1052A000DE01813041F4908190938B021092DD01F8
:1052B0001092DC0108958FEF0895683019F0109274
:1052C000DF0108952091DF012931C8F7FC01A22FE9
:1052D000B0E0A052BE4F089631913D93E817F90710
:1052E000D9F7285F2093DF010895FC018381833083
:1052F00089F130F48130F1F0823021F180E00895BD
:10530000813209F441C08232C9F7248135812130CC
:10531000310509F457C02115310509F44BC022307D
:10532000310561F787ED94E19093DF048093DE040B
:1053300082E3089583E894E19093DF048093DE0490
:1053400082E1089588E294E19093DF048093DE0483
:105350008BE508958281813079F0882329F08230AD
:1053600069F685E994E10AC081EB94E19093DF044A
:105370008093DE0484E0089583EA94E19093DF044F
:105380008093DE048CE008958281813081F088234F
:1053900031F0823009F0B2CF83E794E102C08AE3B2
:1053A00094E19093DF048093DE0489E0089583E51F
:1053B00094E1F7CF89E095E19093DF048093DE04D8
:1053C00080E4089525EB34E13093DF042093DE047C
:1053D00008951F93CF93DF93E82F792F162FEA01BB
:1053E000888184FF1CC0298188E828272983CE0171
:1053F0000296DC012E2F372F512F5E0FF9012191DC
:105400002D939F01452F4E1B1416C4F3612F0E944C
:10541000000B1C5F1883DF91CF911F9108958AE5DF
:105420008883E5CF41EC54E00C94E9294AEF54E03D
:105430000C94E9294DEC54E00C94E929CF93DF93C7
:105440006091E004635067FD12C08091DC04CCE001
:10545000D0E0C81BD109CC51DB4F8091DB048031F7
:1054600008F054C0CE010E945D291092E0048091A2
:10547000740084FF3EC0809173008F3FD1F1C82F2C
:10548000893008F0C8E0982F9C1B9093730090918E
:10549000B60428E892279093B6048823E9F0809117
:1054A000DE049091DF042091DA0426FFAEC0FC01F7
:1054B0002C2FA7EBB4E034913D9331962150D9F7CE
:1054C0009C012F5F3F4F8FEF8C0F820F932F911D09
:1054D0009093DF048093DE046C2F87EB94E00E94AE
:1054E000000BCC5FCC3019F08FEF80937300C0932A
:1054F000740084E190B39C7031F48150D9F710921C
:10550000E1041092D904DF91CF9108958D3209F012
:1055100069C0683009F0A9CF83EC8093B6048AE5AE
:10552000809374001092DA048881807671F0CE0145
:105530000E940D298F3FC1F4988197FD8E8190E8DC
:105540009093DA048093730090CF2A811092BF0465
:105550009981911111C01092C0042FEB34E082E0C8
:105560003093DF042093DE049F819111EBCF9E8165
:10557000981740F7892FE6CF953029F42093E1045E
:105580002FEB34E0EDCF963099F49B81913021F4EC
:10559000CE010E94752908C09230D1F39330C1F337
:1055A0009132B1F39232A1F390E49093DA04C2CF36
:1055B000983089F0993019F42093E304E1CF9A30C0
:1055C00071F09B30E9F69BE49093C2049093FB0446
:1055D0009093CE04D5CF23EE34E081E0C1CF2FEB02
:1055E00034E0FBCF8091DA0487FF3FCFCE010E94E9
:1055F00048298F3F21F48EE18093740036CF8823B1
:1056000009F433CF1092730030CFDC012C2FE7EB7D
:10561000F4E03D9131932150E1F752CFCF93DF93E6
:1056200085B7886085BF8BB780688BBFC1ECD4E03D
:105630008BE48983AAEFB4E011968C931197EDEC7B
:10564000F4E081838AE588838C938083DF91CF9116
:1056500008955058BB27AA270E94412B0C94592C1F
:105660000E944B2C38F00E94522C20F039F49F3FBE
:1056700019F426F40C94482C0EF4E095E7FB0C94F6
:10568000192CE92F0E946A2C58F3BA176207730786
:105690008407950720F079F4A6F50C94A42C0EF459
:1056A000E0950B2EBA2FA02D0B01B90190010C0132
:1056B000CA01A0011124FF27591B99F0593F50F44A
:1056C000503E68F11A16F040A22F232F342F4427A2
:1056D000585FF3CF469537952795A795F04053959A
:1056E000C9F77EF41F16BA0B620B730B840BBAF06A
:1056F0009150A1F0FF0FBB1F661F771F881FC2F7D5
:105700000EC0BA0F621F731F841F48F487957795E8
:105710006795B795F7959E3F08F0B0CF9395880FA2
:1057200008F09927EE0F9795879508950E948C2C85
:1057300090F09F3748F4911116F40C94A52C60E07A
:1057400070E080E89FE3089526F01B16611D711D2F
:10575000811D0C941F2C0C943A2C0E94722C88F002
:105760009F5798F0B92F9927B751B0F0E1F0660F25
:10577000771F881F991F1AF0BA95C9F714C0B13066
:1057800091F00E94A42CB1E008950C94A42C672FF2
:10579000782F8827B85F39F0B93FCCF38695779595
:1057A0006795B395D9F73EF490958095709561957E
:1057B0007F4F8F4F9F4F0895E89409C097FB3EF4A9
:1057C00090958095709561957F4F8F4F9F4F99234E
:1057D000A9F0F92F96E9BB279395F69587957795CC
:1057E0006795B795F111F8CFFAF4BB0F11F460FF8C
:1057F0001BC06F5F7F4F8F4F9F4F16C0882311F0E4
:1058000096E911C0772321F09EE8872F762F05C0F7
:10581000662371F096E8862F70E060E02AF09A9592
:10582000660F771F881FDAF7880F9695879597F987
:10583000089597F99F6780E870E060E008958823F5
:1058400071F4772321F09850872B762F07C06623B9
:1058500011F499270DC09051862B70E060E02AF07A
:105860009A95660F771F881FDAF7880F96958795A8
:1058700097F908959F3F31F0915020F487957795DF
:105880006795B795880F911D9695879597F9089517
:105890009FEF80EC089500240A9416161706180648
:1058A0000906089500240A94121613061406050624
:1058B0000895092E0394000C11F4882352F0BB0FB5
:1058C00040F4BF2B11F460FF04C06F5F7F4F8F4F18
:1058D0009F4F089557FD9058440F551F59F05F3F53
:1058E00071F04795880F97FB991F61F09F3F79F002
:1058F00087950895121613061406551FF2CF469584
:10590000F1DF08C0161617061806991FF1CF869505
:1059100071056105089408950E94722CA0F0BEE7FD
:10592000B91788F4BB279F3860F41616B11D672F8E
:10593000782F8827985FF7CF869577956795B11D63
:1059400093959639C8F30895E894BB27662777277F
:10595000CB0197F908950E94BE2C0C94592C0E94FB
:105960004B2C38F00E94522C20F0952311F00C940F
:10597000192C0C94482C11240C94A52C0E946A2CF0
:1059800070F3959FC1F3950F50E0551F629FF00192
:10599000729FBB27F00DB11D639FAA27F00DB11DAB
:1059A000AA1F649F6627B00DA11D661F829F222734
:1059B000B00DA11D621F739FB00DA11D621F839FBB
:1059C000A00D611D221F749F3327A00D611D231F91
:1059D000849F600D211D822F762F6A2F11249F57DF
:1059E00050409AF0F1F088234AF0EE0FFF1FBB1FE2
:1059F000661F771F881F91505040A9F79E3F5105A1
:105A000080F00C94192C0C94A52C5F3FE4F3983E85
:105A1000D4F3869577956795B795F795E7959F5F4A
:105A2000C1F7FE2B880F911D9695879597F90895DC
:105A3000AA1BBB1B51E107C0AA1FBB1FA617B707B4
:105A400010F0A61BB70B881F991F5A95A9F78095D0
:105A50009095BC01CD01089597FB072E16F4009494
:105A600007D077FD09D00E94182D07FC05D03EF421
:105A7000909581959F4F0895709561957F4F0895FA
:105A8000052E97FB1EF400940E94572D57FD07D05A
:105A90000E946C2D07FC03D04EF40C94572D5095AA
:105AA0004095309521953F4F4F4F5F4F089590950A
:105AB0008095709561957F4F8F4F9F4F0895EE0FA2
:105AC000FF1F0590F491E02D099469279627692717
:105AD0007827872778270895A1E21A2EAA1BBB1BD7
